{
  "contractName": "no1s1data",
  "abi": [
    {
      "inputs": [],
      "stateMutability": "nonpayable",
      "type": "constructor"
    },
    {
      "anonymous": false,
      "inputs": [
        {
          "indexed": false,
          "internalType": "uint256",
          "name": "pviv",
          "type": "uint256"
        },
        {
          "indexed": false,
          "internalType": "uint256",
          "name": "soe",
          "type": "uint256"
        },
        {
          "indexed": false,
          "internalType": "uint256",
          "name": "bsoc",
          "type": "uint256"
        },
        {
          "indexed": false,
          "internalType": "int256",
          "name": "adur",
          "type": "int256"
        },
        {
          "indexed": false,
          "internalType": "uint256",
          "name": "cost",
          "type": "uint256"
        }
      ],
      "name": "LastLog",
      "type": "event"
    },
    {
      "anonymous": false,
      "inputs": [
        {
          "indexed": false,
          "internalType": "uint256[]",
          "name": "",
          "type": "uint256[]"
        },
        {
          "indexed": false,
          "internalType": "uint256[]",
          "name": "",
          "type": "uint256[]"
        }
      ],
      "name": "accArrays",
      "type": "event"
    },
    {
      "anonymous": false,
      "inputs": [
        {
          "indexed": false,
          "internalType": "uint256",
          "name": "usernumber",
          "type": "uint256"
        },
        {
          "indexed": false,
          "internalType": "uint256",
          "name": "balance",
          "type": "uint256"
        }
      ],
      "name": "accountInfo",
      "type": "event"
    },
    {
      "anonymous": false,
      "inputs": [
        {
          "indexed": false,
          "internalType": "uint256",
          "name": "balance",
          "type": "uint256"
        }
      ],
      "name": "mybalance",
      "type": "event"
    },
    {
      "anonymous": false,
      "inputs": [
        {
          "indexed": false,
          "internalType": "string",
          "name": "userName",
          "type": "string"
        },
        {
          "indexed": false,
          "internalType": "uint256",
          "name": "confirmationCode",
          "type": "uint256"
        }
      ],
      "name": "newUserRegistered",
      "type": "event"
    },
    {
      "anonymous": false,
      "inputs": [
        {
          "indexed": false,
          "internalType": "uint256",
          "name": "batterystateofcharge",
          "type": "uint256"
        }
      ],
      "name": "no1s1update",
      "type": "event"
    },
    {
      "anonymous": false,
      "inputs": [
        {
          "indexed": false,
          "internalType": "bool",
          "name": "userActionConfirmed",
          "type": "bool"
        }
      ],
      "name": "userAction",
      "type": "event"
    },
    {
      "anonymous": false,
      "inputs": [
        {
          "indexed": false,
          "internalType": "uint256",
          "name": "numberOfusers",
          "type": "uint256"
        }
      ],
      "name": "userCount",
      "type": "event"
    },
    {
      "anonymous": false,
      "inputs": [
        {
          "indexed": false,
          "internalType": "uint256",
          "name": "theuuid",
          "type": "uint256"
        }
      ],
      "name": "whatuuid",
      "type": "event"
    },
    {
      "inputs": [
        {
          "internalType": "uint256",
          "name": "",
          "type": "uint256"
        }
      ],
      "name": "acclogs",
      "outputs": [
        {
          "internalType": "uint256",
          "name": "numberOfusers",
          "type": "uint256"
        },
        {
          "internalType": "uint256",
          "name": "balanceOfno1s1",
          "type": "uint256"
        }
      ],
      "stateMutability": "view",
      "type": "function",
      "constant": true
    },
    {
      "inputs": [
        {
          "internalType": "uint256",
          "name": "",
          "type": "uint256"
        }
      ],
      "name": "logs",
      "outputs": [
        {
          "internalType": "uint256",
          "name": "batterycurrent",
          "type": "uint256"
        },
        {
          "internalType": "uint256",
          "name": "batteryvoltage",
          "type": "uint256"
        },
        {
          "internalType": "uint256",
          "name": "batterystateofcharge",
          "type": "uint256"
        },
        {
          "internalType": "uint256",
          "name": "pvvoltage",
          "type": "uint256"
        },
        {
          "internalType": "uint256",
          "name": "pvcurrent",
          "type": "uint256"
        },
        {
          "internalType": "uint256",
          "name": "systempower",
          "type": "uint256"
        },
        {
          "internalType": "uint256",
          "name": "time",
          "type": "uint256"
        },
        {
          "internalType": "int256",
          "name": "allowedduration",
          "type": "int256"
        },
        {
          "internalType": "uint256",
          "name": "cost",
          "type": "uint256"
        }
      ],
      "stateMutability": "view",
      "type": "function",
      "constant": true
    },
    {
      "inputs": [
        {
          "internalType": "string",
          "name": "",
          "type": "string"
        }
      ],
      "name": "partners",
      "outputs": [
        {
          "internalType": "string",
          "name": "companyname",
          "type": "string"
        },
        {
          "internalType": "address payable",
          "name": "companyaccount",
          "type": "address"
        },
        {
          "internalType": "string",
          "name": "partnertype",
          "type": "string"
        },
        {
          "internalType": "uint256",
          "name": "workload",
          "type": "uint256"
        },
        {
          "internalType": "uint256",
          "name": "workprice",
          "type": "uint256"
        }
      ],
      "stateMutability": "view",
      "type": "function",
      "constant": true
    },
    {
      "inputs": [
        {
          "internalType": "string",
          "name": "",
          "type": "string"
        }
      ],
      "name": "usersid",
      "outputs": [
        {
          "internalType": "uint256",
          "name": "uuid",
          "type": "uint256"
        },
        {
          "internalType": "uint256",
          "name": "timereg",
          "type": "uint256"
        },
        {
          "internalType": "uint256",
          "name": "ccode",
          "type": "uint256"
        },
        {
          "internalType": "address payable",
          "name": "account",
          "type": "address"
        },
        {
          "internalType": "int256",
          "name": "expectedduration",
          "type": "int256"
        },
        {
          "internalType": "uint256",
          "name": "payamount",
          "type": "uint256"
        },
        {
          "internalType": "bool",
          "name": "haveaccount",
          "type": "bool"
        },
        {
          "internalType": "bool",
          "name": "isidentified",
          "type": "bool"
        },
        {
          "internalType": "bool",
          "name": "ispaid",
          "type": "bool"
        }
      ],
      "stateMutability": "view",
      "type": "function",
      "constant": true
    },
    {
      "inputs": [
        {
          "internalType": "string",
          "name": "",
          "type": "string"
        }
      ],
      "name": "usersusage",
      "outputs": [
        {
          "internalType": "address",
          "name": "account",
          "type": "address"
        },
        {
          "internalType": "uint256",
          "name": "actualduration",
          "type": "uint256"
        },
        {
          "internalType": "int256",
          "name": "paychangeamount",
          "type": "int256"
        },
        {
          "internalType": "uint256",
          "name": "timeex",
          "type": "uint256"
        },
        {
          "internalType": "bool",
          "name": "grantedentrance",
          "type": "bool"
        },
        {
          "internalType": "bool",
          "name": "startedmeditation",
          "type": "bool"
        },
        {
          "internalType": "bool",
          "name": "serviceclosed",
          "type": "bool"
        },
        {
          "internalType": "bool",
          "name": "paychanged",
          "type": "bool"
        },
        {
          "internalType": "uint256",
          "name": "actualpayment",
          "type": "uint256"
        }
      ],
      "stateMutability": "view",
      "type": "function",
      "constant": true
    },
    {
      "inputs": [
        {
          "internalType": "uint256",
          "name": "_Bcurrent",
          "type": "uint256"
        },
        {
          "internalType": "uint256",
          "name": "_Bvoltage",
          "type": "uint256"
        },
        {
          "internalType": "uint256",
          "name": "_BSOC",
          "type": "uint256"
        },
        {
          "internalType": "uint256",
          "name": "_Pvoltage",
          "type": "uint256"
        },
        {
          "internalType": "uint256",
          "name": "_Pcurrent",
          "type": "uint256"
        },
        {
          "internalType": "uint256",
          "name": "_Senergy",
          "type": "uint256"
        },
        {
          "internalType": "uint256",
          "name": "_time",
          "type": "uint256"
        }
      ],
      "name": "broadcastData",
      "outputs": [],
      "stateMutability": "nonpayable",
      "type": "function"
    },
    {
      "inputs": [],
      "name": "accountInfoLog",
      "outputs": [],
      "stateMutability": "nonpayable",
      "type": "function"
    },
    {
      "inputs": [
        {
          "internalType": "string",
          "name": "_username",
          "type": "string"
        },
        {
          "internalType": "uint256",
          "name": "_cCode",
          "type": "uint256"
        },
        {
          "internalType": "uint256",
          "name": "_time",
          "type": "uint256"
        },
        {
          "internalType": "uint256",
          "name": "_uuid",
          "type": "uint256"
        }
      ],
      "name": "initNewUser",
      "outputs": [],
      "stateMutability": "nonpayable",
      "type": "function"
    },
    {
      "inputs": [],
      "name": "checkStatus",
      "outputs": [
        {
          "internalType": "int256",
          "name": "c_allowtime",
          "type": "int256"
        },
        {
          "internalType": "uint256",
          "name": "estimated_cost",
          "type": "uint256"
        },
        {
          "internalType": "uint256",
          "name": "update_time",
          "type": "uint256"
        }
      ],
      "stateMutability": "view",
      "type": "function",
      "constant": true
    },
    {
      "inputs": [
        {
          "internalType": "address payable",
          "name": "_fundingAddress",
          "type": "address"
        },
        {
          "internalType": "address payable",
          "name": "_defaultAddress",
          "type": "address"
        }
      ],
      "name": "setUserAccounts",
      "outputs": [],
      "stateMutability": "nonpayable",
      "type": "function"
    },
    {
      "inputs": [
        {
          "internalType": "string",
          "name": "_partnername",
          "type": "string"
        },
        {
          "internalType": "address payable",
          "name": "_partnerAddress",
          "type": "address"
        },
        {
          "internalType": "string",
          "name": "_companyname",
          "type": "string"
        },
        {
          "internalType": "string",
          "name": "_partnertype",
          "type": "string"
        },
        {
          "internalType": "uint256",
          "name": "_workload",
          "type": "uint256"
        },
        {
          "internalType": "uint256",
          "name": "_workprice",
          "type": "uint256"
        }
      ],
      "name": "setPartner",
      "outputs": [],
      "stateMutability": "nonpayable",
      "type": "function"
    },
    {
      "inputs": [],
      "name": "whatismyacc",
      "outputs": [
        {
          "internalType": "address payable",
          "name": "",
          "type": "address"
        },
        {
          "internalType": "address payable",
          "name": "",
          "type": "address"
        },
        {
          "internalType": "address",
          "name": "",
          "type": "address"
        }
      ],
      "stateMutability": "view",
      "type": "function",
      "constant": true
    },
    {
      "inputs": [],
      "name": "whatismybalance",
      "outputs": [
        {
          "internalType": "uint256",
          "name": "",
          "type": "uint256"
        },
        {
          "internalType": "uint256",
          "name": "",
          "type": "uint256"
        }
      ],
      "stateMutability": "view",
      "type": "function",
      "constant": true
    },
    {
      "inputs": [],
      "name": "whatisuseruuid",
      "outputs": [
        {
          "internalType": "uint256",
          "name": "",
          "type": "uint256"
        }
      ],
      "stateMutability": "nonpayable",
      "type": "function"
    },
    {
      "inputs": [],
      "name": "balanceOf",
      "outputs": [
        {
          "internalType": "uint256",
          "name": "",
          "type": "uint256"
        }
      ],
      "stateMutability": "nonpayable",
      "type": "function"
    },
    {
      "inputs": [],
      "name": "userNumber",
      "outputs": [
        {
          "internalType": "uint256",
          "name": "",
          "type": "uint256"
        }
      ],
      "stateMutability": "nonpayable",
      "type": "function"
    },
    {
      "inputs": [],
      "name": "periodInfo",
      "outputs": [
        {
          "internalType": "uint256[]",
          "name": "",
          "type": "uint256[]"
        },
        {
          "internalType": "uint256[]",
          "name": "",
          "type": "uint256[]"
        }
      ],
      "stateMutability": "nonpayable",
      "type": "function"
    },
    {
      "inputs": [],
      "name": "mylastlogs",
      "outputs": [
        {
          "internalType": "uint256",
          "name": "",
          "type": "uint256"
        },
        {
          "internalType": "uint256",
          "name": "",
          "type": "uint256"
        },
        {
          "internalType": "uint256",
          "name": "",
          "type": "uint256"
        },
        {
          "internalType": "int256",
          "name": "",
          "type": "int256"
        },
        {
          "internalType": "uint256",
          "name": "",
          "type": "uint256"
        }
      ],
      "stateMutability": "nonpayable",
      "type": "function"
    },
    {
      "inputs": [
        {
          "internalType": "int256",
          "name": "_selectedDuration",
          "type": "int256"
        },
        {
          "internalType": "string",
          "name": "_username",
          "type": "string"
        }
      ],
      "name": "userPay",
      "outputs": [
        {
          "internalType": "uint256",
          "name": "",
          "type": "uint256"
        }
      ],
      "stateMutability": "payable",
      "type": "function",
      "payable": true
    },
    {
      "inputs": [],
      "name": "toContract",
      "outputs": [],
      "stateMutability": "payable",
      "type": "function",
      "payable": true
    },
    {
      "inputs": [
        {
          "internalType": "bool",
          "name": "_pressuredetected",
          "type": "bool"
        },
        {
          "internalType": "bool",
          "name": "_dooropened",
          "type": "bool"
        },
        {
          "internalType": "bool",
          "name": "_motiondetected",
          "type": "bool"
        },
        {
          "internalType": "string",
          "name": "_username",
          "type": "string"
        }
      ],
      "name": "userActive",
      "outputs": [],
      "stateMutability": "nonpayable",
      "type": "function"
    },
    {
      "inputs": [
        {
          "internalType": "bool",
          "name": "_motiondetected",
          "type": "bool"
        },
        {
          "internalType": "bool",
          "name": "_dooropened",
          "type": "bool"
        },
        {
          "internalType": "bool",
          "name": "_handletriggered",
          "type": "bool"
        },
        {
          "internalType": "string",
          "name": "_username",
          "type": "string"
        },
        {
          "internalType": "uint256",
          "name": "_actualduration",
          "type": "uint256"
        },
        {
          "internalType": "uint256",
          "name": "_timeex",
          "type": "uint256"
        }
      ],
      "name": "serviceClose",
      "outputs": [
        {
          "internalType": "uint256",
          "name": "",
          "type": "uint256"
        }
      ],
      "stateMutability": "nonpayable",
      "type": "function"
    }
  ],
  "bytecode": "0x608060405234801561001057600080fd5b5033600160006101000a81548173ffffffffffffffffffffffffffffffffffffffff021916908373ffffffffffffffffffffffffffffffffffffffff160217905550613314806100616000396000f3fe6080604052600436106101345760003560e01c806388debc31116100ab578063c886ef791161006f578063c886ef79146103fc578063cebfe4ff1461042c578063d9be18e91461045b578063dd12885114610484578063e79899bd146104c2578063ea22c2471461050757610134565b806388debc311461032257806395ee5dbd14610367578063976bfefc1461037e578063b8e51fb7146103aa578063c81c5bde146103d357610134565b80633bf3d530116100fd5780633bf3d5301461022a578063457967aa1461026f578063524189311461029857806361b21f4d146102c1578063722713f7146102cb5780637f4c42c3146102f657610134565b80621fe73f146101395780631c340090146101645780632acd01f8146101915780632b4e8413146101d25780633b7104f2146101fd575b600080fd5b34801561014557600080fd5b5061014e610544565b60405161015b9190612b2e565b60405180910390f35b34801561017057600080fd5b506101796105e4565b604051610188939291906128d0565b60405180910390f35b34801561019d57600080fd5b506101b860048036038101906101b391906123a1565b61063b565b6040516101c9959493929190612a1d565b60405180910390f35b3480156101de57600080fd5b506101e76107b7565b6040516101f49190612b2e565b60405180910390f35b34801561020957600080fd5b506102126107c4565b604051610221939291906129e6565b60405180910390f35b34801561023657600080fd5b50610251600480360381019061024c91906123a1565b6108f0565b60405161026699989796959493929190612907565b60405180910390f35b34801561027b57600080fd5b5061029660048036038101906102919190612557565b6109a8565b005b3480156102a457600080fd5b506102bf60048036038101906102ba91906123e2565b610b66565b005b6102c9610ce0565b005b3480156102d757600080fd5b506102e0610ce2565b6040516102ed9190612b2e565b60405180910390f35b34801561030257600080fd5b5061030b610cea565b604051610319929190612b49565b60405180910390f35b34801561032e57600080fd5b50610349600480360381019061034491906123a1565b610cf9565b60405161035e99989796959493929190612b72565b60405180910390f35b34801561037357600080fd5b5061037c610da4565b005b34801561038a57600080fd5b50610393610e99565b6040516103a1929190612994565b60405180910390f35b3480156103b657600080fd5b506103d160048036038101906103cc91906124b3565b6113aa565b005b3480156103df57600080fd5b506103fa60048036038101906103f5919061222d565b61162c565b005b61041660048036038101906104119190612349565b61170b565b6040516104239190612b2e565b60405180910390f35b34801561043857600080fd5b50610441611900565b604051610452959493929190612bff565b60405180910390f35b34801561046757600080fd5b50610482600480360381019061047d91906121f1565b611b46565b005b34801561049057600080fd5b506104ab60048036038101906104a6919061252e565b611c60565b6040516104b9929190612b49565b60405180910390f35b3480156104ce57600080fd5b506104e960048036038101906104e4919061252e565b611c94565b6040516104fe99989796959493929190612c52565b60405180910390f35b34801561051357600080fd5b5061052e600480360381019061052991906122a8565b611cf2565b60405161053b9190612b2e565b60405180910390f35b6000806007600160078054905061055b919061308f565b81548110610592577f4e487b7100000000000000000000000000000000000000000000000000000000600052603260045260246000fd5b90600052602060002090600202016000015490507f807fa0cefbabafb0fb4319dc66094a067d3b5db97ead843cb14671a4f6d2c5db816040516105d59190612b2e565b60405180910390a18091505090565b6000806000600260009054906101000a900473ffffffffffffffffffffffffffffffffffffffff16600360009054906101000a900473ffffffffffffffffffffffffffffffffffffffff1630925092509250909192565b600b8180516020810182018051848252602083016020850120818352809550505050505060009150905080600001805461067490613169565b80601f01602080910402602001604051908101604052809291908181526020018280546106a090613169565b80156106ed5780601f106106c2576101008083540402835291602001916106ed565b820191906000526020600020905b8154815290600101906020018083116106d057829003601f168201915b5050505050908060010160009054906101000a900473ffffffffffffffffffffffffffffffffffffffff169080600201805461072890613169565b80601f016020809104026020016040519081016040528092919081815260200182805461075490613169565b80156107a15780601f10610776576101008083540402835291602001916107a1565b820191906000526020600020905b81548152906001019060200180831161078457829003601f168201915b5050505050908060030154908060040154905085565b6000600780549050905090565b6000806000806601353a6b39400090506000600660016006805490506107ea919061308f565b81548110610821577f4e487b7100000000000000000000000000000000000000000000000000000000600052603260045260246000fd5b906000526020600020906009020160020154905060006006600160068054905061084b919061308f565b81548110610882577f4e487b7100000000000000000000000000000000000000000000000000000000600052603260045260246000fd5b90600052602060002090600902016006015490506000604b83106108a557602890505b602d83106108b257601490505b601983106108bf57600a90505b60198310156108cd57600590505b600084826108db9190612e8a565b90508181849750975097505050505050909192565b600a818051602081018201805184825260208301602085012081835280955050505050506000915090508060000160009054906101000a900473ffffffffffffffffffffffffffffffffffffffff16908060010154908060020154908060030154908060040160009054906101000a900460ff16908060040160019054906101000a900460ff16908060040160029054906101000a900460ff16908060040160039054906101000a900460ff16908060050154905089565b600160009054906101000a900473ffffffffffffffffffffffffffffffffffffffff1673ffffffffffffffffffffffffffffffffffffffff163373ffffffffffffffffffffffffffffffffffffffff1614610a0257600080fd5b60006601353a6b394000905060008690506000604b8210610a2257602d90505b602d8210610a2f57601990505b60198210610a3c57600f90505b6019821015610a4a57600590505b60008382610a589190612e8a565b905060066040518061012001604052808d81526020018c81526020018b81526020018a8152602001898152602001888152602001878152602001848152602001838152509080600181540180825580915050600190039060005260206000209060090201600090919091909150600082015181600001556020820151816001015560408201518160020155606082015181600301556080820151816004015560a0820151816005015560c0820151816006015560e08201518160070155610100820151816008015550507f2cb3f4d733f3d79088b00f79c0793d8e590b6b319cfc183bedcc434ce67f905789604051610b519190612b2e565b60405180910390a15050505050505050505050565b600160009054906101000a900473ffffffffffffffffffffffffffffffffffffffff1673ffffffffffffffffffffffffffffffffffffffff163373ffffffffffffffffffffffffffffffffffffffff1614610bc057600080fd5b83600b87604051610bd191906128b9565b90815260200160405180910390206000019080519060200190610bf5929190612048565b5084600b87604051610c0791906128b9565b908152602001604051809103902060010160006101000a81548173ffffffffffffffffffffffffffffffffffffffff021916908373ffffffffffffffffffffffffffffffffffffffff16021790555082600b87604051610c6791906128b9565b90815260200160405180910390206002019080519060200190610c8b929190612048565b5081600b87604051610c9d91906128b9565b90815260200160405180910390206003018190555080600b87604051610cc391906128b9565b908152602001604051809103902060040181905550505050505050565b565b600047905090565b60008060045447915091509091565b6009818051602081018201805184825260208301602085012081835280955050505050506000915090508060000154908060010154908060020154908060030160009054906101000a900473ffffffffffffffffffffffffffffffffffffffff16908060040154908060050154908060060160009054906101000a900460ff16908060060160019054906101000a900460ff16908060060160029054906101000a900460ff16905089565b600160009054906101000a900473ffffffffffffffffffffffffffffffffffffffff1673ffffffffffffffffffffffffffffffffffffffff163373ffffffffffffffffffffffffffffffffffffffff1614610dfe57600080fd5b600860405180604001604052806007805490508152602001478152509080600181540180825580915050600190039060005260206000209060020201600090919091909150600082015181600001556020820151816001015550507fa724c588fa32ca8ac3f60aff6a52d6593b560f7de7bfaabf61ffbae25cd9423a60078054905047604051610e8f929190612b49565b60405180910390a1565b6060806000600a9050806008805490501061111b5760008167ffffffffffffffff811115610ef0577f4e487b7100000000000000000000000000000000000000000000000000000000600052604160045260246000fd5b604051908082528060200260200182016040528015610f1e5781602001602082028036833780820191505090505b50905060008267ffffffffffffffff811115610f63577f4e487b7100000000000000000000000000000000000000000000000000000000600052604160045260246000fd5b604051908082528060200260200182016040528015610f915781602001602082028036833780820191505090505b50905060005b8381101561110c576008816001600880549050610fb4919061308f565b610fbe919061308f565b81548110610ff5577f4e487b7100000000000000000000000000000000000000000000000000000000600052603260045260246000fd5b906000526020600020906002020160000154838281518110611040577f4e487b7100000000000000000000000000000000000000000000000000000000600052603260045260246000fd5b6020026020010181815250506008816001600880549050611061919061308f565b61106b919061308f565b815481106110a2577f4e487b7100000000000000000000000000000000000000000000000000000000600052603260045260246000fd5b9060005260206000209060020201600101548282815181106110ed577f4e487b7100000000000000000000000000000000000000000000000000000000600052603260045260246000fd5b60200260200101818152505080806111049061319b565b915050610f97565b508181945094505050506113a6565b8060088054905010156113a457600060088054905067ffffffffffffffff81111561116f577f4e487b7100000000000000000000000000000000000000000000000000000000600052604160045260246000fd5b60405190808252806020026020018201604052801561119d5781602001602082028036833780820191505090505b509050600060088054905067ffffffffffffffff8111156111e7577f4e487b7100000000000000000000000000000000000000000000000000000000600052604160045260246000fd5b6040519080825280602002602001820160405280156112155781602001602082028036833780820191505090505b50905060005b60088054905081101561139557600881600160088054905061123d919061308f565b611247919061308f565b8154811061127e577f4e487b7100000000000000000000000000000000000000000000000000000000600052603260045260246000fd5b9060005260206000209060020201600001548382815181106112c9577f4e487b7100000000000000000000000000000000000000000000000000000000600052603260045260246000fd5b60200260200101818152505060088160016008805490506112ea919061308f565b6112f4919061308f565b8154811061132b577f4e487b7100000000000000000000000000000000000000000000000000000000600052603260045260246000fd5b906000526020600020906002020160010154828281518110611376577f4e487b7100000000000000000000000000000000000000000000000000000000600052603260045260246000fd5b602002602001018181525050808061138d9061319b565b91505061121b565b508181945094505050506113a6565b505b9091565b60006009856040516113bc91906128b9565b9081526020016040518091039020600001541461140e576040517f08c379a000000000000000000000000000000000000000000000000000000000815260040161140590612ace565b60405180910390fd5b8060098560405161141f91906128b9565b9081526020016040518091039020600001819055508160098560405161144591906128b9565b9081526020016040518091039020600101819055508260098560405161146b91906128b9565b908152602001604051809103902060020181905550600360009054906101000a900473ffffffffffffffffffffffffffffffffffffffff166009856040516114b391906128b9565b908152602001604051809103902060030160006101000a81548173ffffffffffffffffffffffffffffffffffffffff021916908373ffffffffffffffffffffffffffffffffffffffff160217905550600360009054906101000a900473ffffffffffffffffffffffffffffffffffffffff16600a8560405161153591906128b9565b908152602001604051809103902060000160006101000a81548173ffffffffffffffffffffffffffffffffffffffff021916908373ffffffffffffffffffffffffffffffffffffffff160217905550600760405180604001604052808381526020018681525090806001815401808255809150506001900390600052602060002090600202016000909190919091506000820151816000015560208201518160010190805190602001906115ea929190612048565b5050507f856405dc5c423d191949d8712dade6de9a0d115db1bb3b65f334b9e018215a69848460405161161e929190612a7e565b60405180910390a150505050565b60011515841515148015611644575060011515831515145b8015611654575060011515821515145b611693576040517f08c379a000000000000000000000000000000000000000000000000000000000815260040161168a90612aee565b60405180910390fd5b6001600a826040516116a591906128b9565b908152602001604051809103902060040160016101000a81548160ff0219169083151502179055507fce474fcd5a3ddce1c6c968be82029cd603cc3d3ecc0a8b2e1258a96af63d279560016040516116fd91906129cb565b60405180910390a150505050565b6000600360009054906101000a900473ffffffffffffffffffffffffffffffffffffffff1673ffffffffffffffffffffffffffffffffffffffff163373ffffffffffffffffffffffffffffffffffffffff161461176757600080fd5b346009848460405161177a9291906128a0565b90815260200160405180910390206005018190555083600984846040516117a29291906128a0565b9081526020016040518091039020600401819055506001600984846040516117cb9291906128a0565b908152602001604051809103902060060160026101000a81548160ff02191690831515021790555060006601353a6b39400090506000611814828761201c90919063ffffffff16565b905080341015611859576040517f08c379a000000000000000000000000000000000000000000000000000000000815260040161185090612b0e565b60405180910390fd5b61186e3460045461203290919063ffffffff16565b60048190555061187c610ce0565b6001600986866040516118909291906128a0565b908152602001604051809103902060060160016101000a81548160ff0219169083151502179055506001600a86866040516118cc9291906128a0565b908152602001604051809103902060040160006101000a81548160ff02191690831515021790555034925050509392505050565b6000806000806000806006600160068054905061191d919061308f565b81548110611954577f4e487b7100000000000000000000000000000000000000000000000000000000600052603260045260246000fd5b906000526020600020906009020160030154905060006006600160068054905061197e919061308f565b815481106119b5577f4e487b7100000000000000000000000000000000000000000000000000000000600052603260045260246000fd5b90600052602060002090600902016005015490506000600660016006805490506119df919061308f565b81548110611a16577f4e487b7100000000000000000000000000000000000000000000000000000000600052603260045260246000fd5b9060005260206000209060090201600201549050600060066001600680549050611a40919061308f565b81548110611a77577f4e487b7100000000000000000000000000000000000000000000000000000000600052603260045260246000fd5b9060005260206000209060090201600701549050600060066001600680549050611aa1919061308f565b81548110611ad8577f4e487b7100000000000000000000000000000000000000000000000000000000600052603260045260246000fd5b90600052602060002090600902016008015490507f5ba5debafe3adc7085c8bc7576bff320ffb2190848b3b169b82d537d9193b7fa8585858585604051611b23959493929190612bff565b60405180910390a184848484849950995099509950995050505050509091929394565b600160009054906101000a900473ffffffffffffffffffffffffffffffffffffffff1673ffffffffffffffffffffffffffffffffffffffff163373ffffffffffffffffffffffffffffffffffffffff1614611ba057600080fd5b600073ffffffffffffffffffffffffffffffffffffffff168273ffffffffffffffffffffffffffffffffffffffff161415611bda57600080fd5b81600260006101000a81548173ffffffffffffffffffffffffffffffffffffffff021916908373ffffffffffffffffffffffffffffffffffffffff16021790555080600360006101000a81548173ffffffffffffffffffffffffffffffffffffffff021916908373ffffffffffffffffffffffffffffffffffffffff1602179055505050565b60088181548110611c7057600080fd5b90600052602060002090600202016000915090508060000154908060010154905082565b60068181548110611ca457600080fd5b90600052602060002090600902016000915090508060000154908060010154908060020154908060030154908060040154908060050154908060060154908060070154908060080154905089565b600060011515851515148015611d0c575060011515861515145b8015611d1c575060011515871515145b611d5b576040517f08c379a0000000000000000000000000000000000000000000000000000000008152600401611d5290612aae565b60405180910390fd5b82600a85604051611d6c91906128b9565b90815260200160405180910390206001018190555081600a85604051611d9291906128b9565b908152602001604051809103902060030181905550600083600986604051611dba91906128b9565b908152602001604051809103902060040154611dd69190612ffb565b905060006601353a6b394000905060008183611df29190612e8a565b90506005869080600181540180825580915050600190039060005260206000200160009091909190915055600a831380611e4b57507ffffffffffffffffffffffffffffffffffffffffffffffffffffffffffffffff683125b15611f51576001600a88604051611e6291906128b9565b908152602001604051809103902060040160036101000a81548160ff02191690831515021790555080600a88604051611e9b91906128b9565b90815260200160405180910390206002018190555080600988604051611ec191906128b9565b908152602001604051809103902060050154611edd9190612da0565b600a88604051611eed91906128b9565b90815260200160405180910390206005018190555080600454611f109190612da0565b6004819055506001600a88604051611f2891906128b9565b908152602001604051809103902060040160026101000a81548160ff0219169083151502179055505b600a83128015611f8057507ffffffffffffffffffffffffffffffffffffffffffffffffffffffffffffffff683135b1561200757600987604051611f9591906128b9565b908152602001604051809103902060050154600a88604051611fb791906128b9565b9081526020016040518091039020600501819055506001600a88604051611fde91906128b9565b908152602001604051809103902060040160026101000a81548160ff0219169083151502179055505b60058054905093505050509695505050505050565b6000818361202a9190612fa1565b905092915050565b600081836120409190612e34565b905092915050565b82805461205490613169565b90600052602060002090601f01602090048101928261207657600085556120bd565b82601f1061208f57805160ff19168380011785556120bd565b828001600101855582156120bd579182015b828111156120bc5782518255916020019190600101906120a1565b5b5090506120ca91906120ce565b5090565b5b808211156120e75760008160009055506001016120cf565b5090565b60006120fe6120f984612d10565b612cdf565b90508281526020810184848401111561211657600080fd5b612121848285613127565b509392505050565b60008135905061213881613282565b92915050565b60008135905061214d81613299565b92915050565b600081359050612162816132b0565b92915050565b60008083601f84011261217a57600080fd5b8235905067ffffffffffffffff81111561219357600080fd5b6020830191508360018202830111156121ab57600080fd5b9250929050565b600082601f8301126121c357600080fd5b81356121d38482602086016120eb565b91505092915050565b6000813590506121eb816132c7565b92915050565b6000806040838503121561220457600080fd5b600061221285828601612129565b925050602061222385828601612129565b9150509250929050565b6000806000806080858703121561224357600080fd5b60006122518782880161213e565b94505060206122628782880161213e565b93505060406122738782880161213e565b925050606085013567ffffffffffffffff81111561229057600080fd5b61229c878288016121b2565b91505092959194509250565b60008060008060008060c087890312156122c157600080fd5b60006122cf89828a0161213e565b96505060206122e089828a0161213e565b95505060406122f189828a0161213e565b945050606087013567ffffffffffffffff81111561230e57600080fd5b61231a89828a016121b2565b935050608061232b89828a016121dc565b92505060a061233c89828a016121dc565b9150509295509295509295565b60008060006040848603121561235e57600080fd5b600061236c86828701612153565b935050602084013567ffffffffffffffff81111561238957600080fd5b61239586828701612168565b92509250509250925092565b6000602082840312156123b357600080fd5b600082013567ffffffffffffffff8111156123cd57600080fd5b6123d9848285016121b2565b91505092915050565b60008060008060008060c087890312156123fb57600080fd5b600087013567ffffffffffffffff81111561241557600080fd5b61242189828a016121b2565b965050602061243289828a01612129565b955050604087013567ffffffffffffffff81111561244f57600080fd5b61245b89828a016121b2565b945050606087013567ffffffffffffffff81111561247857600080fd5b61248489828a016121b2565b935050608061249589828a016121dc565b92505060a06124a689828a016121dc565b9150509295509295509295565b600080600080608085870312156124c957600080fd5b600085013567ffffffffffffffff8111156124e357600080fd5b6124ef878288016121b2565b9450506020612500878288016121dc565b9350506040612511878288016121dc565b9250506060612522878288016121dc565b91505092959194509250565b60006020828403121561254057600080fd5b600061254e848285016121dc565b91505092915050565b600080600080600080600060e0888a03121561257257600080fd5b60006125808a828b016121dc565b97505060206125918a828b016121dc565b96505060406125a28a828b016121dc565b95505060606125b38a828b016121dc565b94505060806125c48a828b016121dc565b93505060a06125d58a828b016121dc565b92505060c06125e68a828b016121dc565b91505092959891949750929550565b60006126018383612882565b60208301905092915050565b612616816130d5565b82525050565b612625816130c3565b82525050565b600061263682612d50565b6126408185612d73565b935061264b83612d40565b8060005b8381101561267c57815161266388826125f5565b975061266e83612d66565b92505060018101905061264f565b5085935050505092915050565b612692816130e7565b82525050565b6126a1816130f3565b82525050565b60006126b38385612d95565b93506126c0838584613127565b82840190509392505050565b60006126d782612d5b565b6126e18185612d84565b93506126f1818560208601613136565b6126fa81613271565b840191505092915050565b600061271082612d5b565b61271a8185612d95565b935061272a818560208601613136565b80840191505092915050565b6000612743601f83612d84565b91507f75736572206c6561766520616374696f6e206e6f7420646574656374656421006000830152602082019050919050565b6000612783601283612d84565b91507f75736572206e616d652069732074616b656e00000000000000000000000000006000830152602082019050919050565b60006127c3602283612d84565b91507f7573657220616374697669747920616374696f6e206e6f74206465746563746560008301527f64210000000000000000000000000000000000000000000000000000000000006020830152604082019050919050565b6000612829602283612d84565b91507f6d757374207265616368206d696e696d756d207061796d656e7420616d6f756e60008301527f74210000000000000000000000000000000000000000000000000000000000006020830152604082019050919050565b61288b8161311d565b82525050565b61289a8161311d565b82525050565b60006128ad8284866126a7565b91508190509392505050565b60006128c58284612705565b915081905092915050565b60006060820190506128e5600083018661260d565b6128f2602083018561260d565b6128ff604083018461261c565b949350505050565b60006101208201905061291d600083018c61261c565b61292a602083018b612891565b612937604083018a612698565b6129446060830189612891565b6129516080830188612689565b61295e60a0830187612689565b61296b60c0830186612689565b61297860e0830185612689565b612986610100830184612891565b9a9950505050505050505050565b600060408201905081810360008301526129ae818561262b565b905081810360208301526129c2818461262b565b90509392505050565b60006020820190506129e06000830184612689565b92915050565b60006060820190506129fb6000830186612698565b612a086020830185612891565b612a156040830184612891565b949350505050565b600060a0820190508181036000830152612a3781886126cc565b9050612a46602083018761260d565b8181036040830152612a5881866126cc565b9050612a676060830185612891565b612a746080830184612891565b9695505050505050565b60006040820190508181036000830152612a9881856126cc565b9050612aa76020830184612891565b9392505050565b60006020820190508181036000830152612ac781612736565b9050919050565b60006020820190508181036000830152612ae781612776565b9050919050565b60006020820190508181036000830152612b07816127b6565b9050919050565b60006020820190508181036000830152612b278161281c565b9050919050565b6000602082019050612b436000830184612891565b92915050565b6000604082019050612b5e6000830185612891565b612b6b6020830184612891565b9392505050565b600061012082019050612b88600083018c612891565b612b95602083018b612891565b612ba2604083018a612891565b612baf606083018961260d565b612bbc6080830188612698565b612bc960a0830187612891565b612bd660c0830186612689565b612be360e0830185612689565b612bf1610100830184612689565b9a9950505050505050505050565b600060a082019050612c146000830188612891565b612c216020830187612891565b612c2e6040830186612891565b612c3b6060830185612698565b612c486080830184612891565b9695505050505050565b600061012082019050612c68600083018c612891565b612c75602083018b612891565b612c82604083018a612891565b612c8f6060830189612891565b612c9c6080830188612891565b612ca960a0830187612891565b612cb660c0830186612891565b612cc360e0830185612698565b612cd1610100830184612891565b9a9950505050505050505050565b6000604051905081810181811067ffffffffffffffff82111715612d0657612d05613242565b5b8060405250919050565b600067ffffffffffffffff821115612d2b57612d2a613242565b5b601f19601f8301169050602081019050919050565b6000819050602082019050919050565b600081519050919050565b600081519050919050565b6000602082019050919050565b600082825260208201905092915050565b600082825260208201905092915050565b600081905092915050565b6000612dab826130f3565b9150612db6836130f3565b9250817f7fffffffffffffffffffffffffffffffffffffffffffffffffffffffffffffff03831360008312151615612df157612df06131e4565b5b817f8000000000000000000000000000000000000000000000000000000000000000038312600083121615612e2957612e286131e4565b5b828201905092915050565b6000612e3f8261311d565b9150612e4a8361311d565b9250827fffffffffffffffffffffffffffffffffffffffffffffffffffffffffffffffff03821115612e7f57612e7e6131e4565b5b828201905092915050565b6000612e95826130f3565b9150612ea0836130f3565b9250827f7fffffffffffffffffffffffffffffffffffffffffffffffffffffffffffffff0482116000841360008413161615612edf57612ede6131e4565b5b817f80000000000000000000000000000000000000000000000000000000000000000583126000841260008413161615612f1c57612f1b6131e4565b5b827f80000000000000000000000000000000000000000000000000000000000000000582126000841360008412161615612f5957612f586131e4565b5b827f7fffffffffffffffffffffffffffffffffffffffffffffffffffffffffffffff0582126000841260008412161615612f9657612f956131e4565b5b828202905092915050565b6000612fac8261311d565b9150612fb78361311d565b9250817fffffffffffffffffffffffffffffffffffffffffffffffffffffffffffffffff0483118215151615612ff057612fef6131e4565b5b828202905092915050565b6000613006826130f3565b9150613011836130f3565b9250827f80000000000000000000000000000000000000000000000000000000000000000182126000841215161561304c5761304b6131e4565b5b827f7fffffffffffffffffffffffffffffffffffffffffffffffffffffffffffffff018213600084121615613084576130836131e4565b5b828203905092915050565b600061309a8261311d565b91506130a58361311d565b9250828210156130b8576130b76131e4565b5b828203905092915050565b60006130ce826130fd565b9050919050565b60006130e0826130fd565b9050919050565b60008115159050919050565b6000819050919050565b600073ffffffffffffffffffffffffffffffffffffffff82169050919050565b6000819050919050565b82818337600083830152505050565b60005b83811015613154578082015181840152602081019050613139565b83811115613163576000848401525b50505050565b6000600282049050600182168061318157607f821691505b6020821081141561319557613194613213565b5b50919050565b60006131a68261311d565b91507fffffffffffffffffffffffffffffffffffffffffffffffffffffffffffffffff8214156131d9576131d86131e4565b5b600182019050919050565b7f4e487b7100000000000000000000000000000000000000000000000000000000600052601160045260246000fd5b7f4e487b7100000000000000000000000000000000000000000000000000000000600052602260045260246000fd5b7f4e487b7100000000000000000000000000000000000000000000000000000000600052604160045260246000fd5b6000601f19601f8301169050919050565b61328b816130d5565b811461329657600080fd5b50565b6132a2816130e7565b81146132ad57600080fd5b50565b6132b9816130f3565b81146132c457600080fd5b50565b6132d08161311d565b81146132db57600080fd5b5056fea2646970667358221220a1defed689acc15006e32609950b214551e0e37a8ab6d1c242ef5a71349f95bf64736f6c63430008000033",
  "immutableReferences": {},
  "source": "pragma solidity >=0.5.16;\r\nimport \"../node_modules/@openzeppelin/contracts/utils/math/SafeMath.sol\";\r\n\r\ncontract no1s1data{\r\n    using SafeMath for uint256;\r\n\r\n    address payable no1s1;\r\n    address adminacc;\r\n    address payable fundingacc;\r\n    address payable defaultuseracc;\r\n    uint256 no1s1balance;\r\n    uint256[] no1s1durations;\r\n   \r\n\r\n    \r\n    struct partner{\r\n        string companyname;\r\n        address payable companyaccount;\r\n        string partnertype;\r\n        uint256 workload;\r\n        uint256 workprice;\r\n    }\r\n    \r\n    struct component{\r\n        string materiallocation;\r\n        uint256 materialprice;\r\n        uint256 materialage;\r\n    }\r\n    \r\n    struct condition{\r\n        bool isrenovated;\r\n        uint256 countrenovation;\r\n        string[] renovationlocation;\r\n        string[] renovationprice;\r\n    }\r\n    \r\n    struct Material{\r\n        uint256 materialcount;\r\n        uint256 totalprice;\r\n        mapping (string => component) components;\r\n        mapping (string => condition) conditions;\r\n    }\r\n    \r\n\r\n    struct Log{\r\n      uint256 batterycurrent;\r\n      uint256 batteryvoltage;\r\n      uint256 batterystateofcharge;\r\n      uint256 pvvoltage;\r\n      uint256 pvcurrent;\r\n      uint256 systempower;\r\n      uint256 time;\r\n      int256 allowedduration;\r\n      uint256 cost;\r\n    }\r\n\r\n    struct UserID{\r\n      uint256 uuid;\r\n      uint256 timereg;\r\n      uint256 ccode;\r\n      address payable account;\r\n      int256 expectedduration;\r\n      uint256 payamount;\r\n      bool haveaccount;\r\n      bool isidentified;\r\n      bool ispaid;\r\n    }\r\n\r\n    struct User{\r\n      uint256 uuid;\r\n      string username;\r\n    }\r\n    \r\n    struct accLog{\r\n        uint256 numberOfusers;\r\n        uint256 balanceOfno1s1;\r\n    }\r\n\r\n    struct UserUSAGE{\r\n        address account;\r\n        uint256 actualduration;\r\n        int256 paychangeamount;\r\n        uint256 timeex;\r\n        bool grantedentrance;\r\n        bool startedmeditation;\r\n        bool serviceclosed;\r\n        bool paychanged;\r\n        uint256 actualpayment;\r\n    }\r\n\r\n    \r\n\r\n    /************the material identity**************/\r\n\r\n\r\n    Log[] public logs;\r\n    User[] private users;\r\n    accLog[] public acclogs;\r\n    //User[] public users;\r\n    //UsageHistory[] private histories;\r\n    //mapping (uint256 => Log[]) logs;\r\n    //mapping (uint256 => No1s1[]) no1s1histories;\r\n    mapping (string => UserID) public usersid;\r\n    mapping (string => UserUSAGE) public usersusage;\r\n    mapping (string => partner) public partners;\r\n\r\n    constructor(){\r\n      adminacc=msg.sender;\r\n    }\r\n\r\n    modifier onlyAdmin{\r\n      require(msg.sender == adminacc);\r\n      _;\r\n    }\r\n\r\n    modifier onlyMe{\r\n      require(msg.sender == no1s1);\r\n      _;\r\n    }\r\n\r\n    modifier onlyFundacc{\r\n      require(msg.sender == fundingacc);\r\n      _;\r\n    }\r\n    \r\n    modifier onlyDefault{\r\n      require(msg.sender == defaultuseracc);\r\n      _;\r\n    } \r\n\r\n\r\n    event no1s1update(uint batterystateofcharge);\r\n    function broadcastData(uint256 _Bcurrent,uint256 _Bvoltage,uint256 _BSOC,uint256 _Pvoltage,uint256 _Pcurrent,uint256 _Senergy, uint256 _time)public onlyAdmin{\r\n\r\n        int weiperchf = 34e13;\r\n        //uint256 costpm = weiperchf; \r\n        uint256 current_energy=_BSOC;\r\n        int256 _duration;\r\n        if(current_energy >= 75 ){\r\n              _duration = 45;}\r\n        if(current_energy >= 45 ){\r\n            _duration = 25;}\r\n        if(current_energy >= 25 ){\r\n            _duration = 15;}\r\n        if(current_energy <25 ){\r\n            _duration = 5;}\r\n        uint256 _servicecost = uint256(_duration * weiperchf);\r\n\r\n        logs.push(Log(\r\n          {batterycurrent: _Bcurrent, \r\n          batteryvoltage: _Bvoltage,\r\n          batterystateofcharge: _BSOC, \r\n          pvvoltage: _Pvoltage,\r\n          pvcurrent: _Pcurrent,\r\n          systempower: _Senergy,\r\n          time:_time,\r\n          allowedduration:_duration,\r\n          cost:_servicecost\r\n          }\r\n          ));\r\n        \r\n        emit no1s1update(_BSOC);\r\n    }\r\n    \r\n    event accountInfo(uint256 usernumber, uint256 balance);\r\n    function accountInfoLog() public onlyAdmin{\r\n        acclogs.push(accLog(\r\n            {numberOfusers: users.length,\r\n            balanceOfno1s1: address(this).balance\r\n            }));\r\n        emit accountInfo(users.length,address(this).balance);\r\n    }\r\n\r\n\r\n    event newUserRegistered(string userName,uint256 confirmationCode); \r\n    function initNewUser(string memory _username, uint256 _cCode, uint256 _time, uint256 _uuid) public {\r\n      require( usersid[_username].uuid ==  0 , \"user name is taken\");\r\n      usersid[_username].uuid = _uuid;\r\n      usersid[_username].timereg = _time;\r\n      usersid[_username].ccode = _cCode;\r\n      usersid[_username].account = defaultuseracc;\r\n      usersusage[_username].account = defaultuseracc;\r\n      users.push(User({uuid:_uuid,username:_username}));\r\n      //return _username;\r\n      emit newUserRegistered(_username, _cCode);\r\n      //do i calculate a uuid and ccode here?\r\n      //does it need emit? \r\n      //does it need return\r\n    }\r\n\r\n    function checkStatus()public view returns(int256 c_allowtime,uint256 estimated_cost ,uint256 update_time) {\r\n      /*require (logs.length == 0, \"no registered data yet\");*/\r\n      int weiperchf = 34e13;\r\n      //uint256 costpm = weiperchf; \r\n      uint256 current_energy=logs[logs.length-1].batterystateofcharge;\r\n      uint256 last_time=logs[logs.length-1].time;\r\n      int256 _duration;\r\n      if(current_energy >= 75 ){\r\n            _duration = 40;}\r\n        if(current_energy >= 45 ){\r\n            _duration = 20;}\r\n        if(current_energy >= 25 ){\r\n            _duration = 10;}\r\n        if(current_energy <25 ){\r\n            _duration = 5;}\r\n        uint256 servicecost = uint256(_duration * weiperchf);\r\n        return (_duration,servicecost,last_time);\r\n    }\r\n    \r\n    function setUserAccounts(address payable _fundingAddress, address payable _defaultAddress)public onlyAdmin{\r\n      require(_fundingAddress != address(0));\r\n      fundingacc=_fundingAddress;\r\n      defaultuseracc =_defaultAddress;\r\n    }\r\n    \r\n    function setPartner(string memory _partnername, address payable _partnerAddress,string memory _companyname,string memory _partnertype, uint256 _workload,uint256 _workprice) public onlyAdmin{\r\n        partners[_partnername].companyname=_companyname;\r\n        partners[_partnername].companyaccount= _partnerAddress;\r\n        partners[_partnername].partnertype= _partnertype;\r\n        partners[_partnername].workload= _workload;\r\n        partners[_partnername].workprice= _workprice;\r\n    }\r\n    \r\n    \r\n    function whatismyacc() public view returns(address payable,address payable,address){\r\n        return (fundingacc,defaultuseracc,address(this));\r\n    }\r\n    \r\n    function whatismybalance() public view returns(uint256,uint256){\r\n        return (no1s1balance, address(this).balance);\r\n    }\r\n\r\n    event whatuuid(uint theuuid);\r\n    function whatisuseruuid() public returns(uint256){\r\n      uint256 lastuuid=users[users.length-1].uuid;\r\n      emit whatuuid(lastuuid);\r\n      return (lastuuid);\r\n    }\r\n    //current information\r\n    event mybalance(uint balance);\r\n    function balanceOf() public returns(uint256){\r\n      return (address(this).balance);\r\n      emit mybalance(address(this).balance);\r\n    }\r\n    event userCount(uint numberOfusers);\r\n    function userNumber() public returns(uint256){\r\n        return (users.length);\r\n        emit userCount(users.length);\r\n    }\r\n    //record of last 10 current_energy\r\n    event accArrays(uint256[], uint256[]);\r\n    function periodInfo() public returns(uint256[] memory,uint256[] memory){\r\n        uint numberofRecords = 10 ;\r\n        if(acclogs.length>= numberofRecords){\r\n            uint256[] memory tenUsers = new uint256[](numberofRecords);\r\n            uint256[] memory tenBalances = new uint256[](numberofRecords);\r\n            for (uint i = 0; i<numberofRecords; i++){\r\n                tenUsers[i] = acclogs[acclogs.length-1-i].numberOfusers;\r\n                tenBalances[i] = acclogs[acclogs.length-1-i].balanceOfno1s1;\r\n                \r\n            }\r\n            return (tenUsers,tenBalances);\r\n            emit accArrays(tenUsers,tenBalances);\r\n        }\r\n        else if(acclogs.length < numberofRecords){\r\n            uint256[] memory tenUsers = new uint256[](acclogs.length);\r\n            uint256[] memory tenBalances = new uint256[](acclogs.length);\r\n            for (uint i = 0; i < acclogs.length; i++){\r\n                tenUsers[i] = acclogs[acclogs.length-1-i].numberOfusers;\r\n                tenBalances[i] = acclogs[acclogs.length-1-i].balanceOfno1s1;\r\n            }\r\n            return (tenUsers,tenBalances);\r\n            emit accArrays(tenUsers,tenBalances);\r\n        }\r\n        //    acclogs[acclogs.length-i].numberOfusers\r\n        //}  \r\n        //for (uint i = 0; i < tokenList[_account].length; i++)\r\n        //Member not found or visible after argument-dependent lookup in struct no1s1data.accLog storage\r\n        //return (acclogs.numberOfusers[acclogs.length-10:acclogs.length-1], acclogs.balanceOfno1s1[acclogs.length-10:acclogs.length-1]);\r\n        /////////////\r\n        //error index range access is only supported for dynamic calldata arrays\r\n        //return (acclogs[acclogs.length-10:acclogs.length-1].numberOfusers, acclogs[acclogs.length-10:acclogs.length-1].balanceOfno1s1); \r\n         \r\n        //return (acclogs[acclogs.length-lastdig].numberOfusers,acclogs[acclogs.length-lastdig].balanceOfno1s1);\r\n    } \r\n    \r\n    // function whatisuseruuid2() public view returns(uint256){\r\n    //   uint256 lastuuid=users[users.length-1].uuid;\r\n    //   return (lastuuid);\r\n    // }\r\n\r\n\r\n    event LastLog(uint pviv, uint soe, uint bsoc, int adur, uint cost);\r\n    function mylastlogs() public returns(uint256,uint256,uint256,int256,uint256){\r\n      uint256 lastPVIV=logs[logs.length-1].pvvoltage;\r\n      uint256 lastSOE=logs[logs.length-1].systempower;\r\n      uint256 lastBSoC=logs[logs.length-1].batterystateofcharge;\r\n      int256 lastAD=logs[logs.length-1].allowedduration;\r\n      uint256 lastC=logs[logs.length-1].cost;\r\n      emit LastLog(lastPVIV,lastSOE,lastBSoC,lastAD,lastC);\r\n      return (lastPVIV,lastSOE,lastBSoC,lastAD,lastC);\r\n    }\r\n    \r\n    // function mylastlogsV() public view returns(uint256,uint256,uint256){\r\n    //   uint256 lastPVIV=logs[logs.length-1].pvvoltage;\r\n    //   uint256 lastSOE=logs[logs.length-1].systempower;\r\n    //   uint256 lastBSoC=logs[logs.length-1].batterystateofcharge;\r\n    //   return (lastPVIV,lastSOE,lastBSoC);\r\n    // }\r\n\r\n\r\n    /*exucable once every season*/\r\n    // function fundDefault()external onlyFundacc payable{\r\n    //     address payable _to = defaultuseracc;\r\n    //     (bool sent, bytes memory data) = _to.call;/*{value: msg.value}(\"\");*/\r\n    //     require (sent, \"payment failed!\");\r\n    // }\r\n\r\n    function userPay(int _selectedDuration, string calldata _username) external onlyDefault payable returns(uint256){\r\n    /*msg.value* is survice cost*/\r\n    usersid[_username].payamount = msg.value;\r\n    usersid[_username].expectedduration = _selectedDuration;\r\n    usersid[_username].ispaid = true;\r\n    int256 weiperchf = 34e13;\r\n    uint256 minPayment = uint256(_selectedDuration).mul(uint256(weiperchf));\r\n    require(msg.value >= minPayment, \"must reach minimum payment amount!\");\r\n    no1s1balance = no1s1balance.add(msg.value);\r\n    toContract();\r\n    usersid[_username].isidentified = true;\r\n    usersusage[_username].grantedentrance =  true;\r\n    return msg.value; \r\n    /*address payable payacc=usersid[_username].account;*/\r\n    /*(bool sent, bytes memory data) = usersid[_username].account.call{value: msg.value}(\"\");*/\r\n    /*ToContract{value:servicecost}(log1, log2, log3);*/\r\n    /*ToContract(servicecost);*/\r\n    /*require (sent, \"payment failed!\");*/\r\n    }\r\n\r\n\r\n    function toContract() public payable {\r\n        \r\n    }\r\n    \r\n    event userAction(bool userActionConfirmed);\r\n    function userActive(bool _pressuredetected, bool _dooropened, bool _motiondetected, string memory _username) public {\r\n      require(_pressuredetected == true && _dooropened == true && _motiondetected == true, \"user activity action not detected!\");\r\n      usersusage[_username].startedmeditation = true;\r\n      emit userAction(true);\r\n    }\r\n    \r\n    function serviceClose(bool _motiondetected, bool _dooropened, bool _handletriggered, string memory _username, uint256 _actualduration, uint256 _timeex) public returns (uint) {\r\n      require(_handletriggered == true && _dooropened == true && _motiondetected == true, \"user leave action not detected!\");\r\n      usersusage[_username].actualduration = _actualduration;\r\n      usersusage[_username].timeex = _timeex;\r\n      int256 durationdif_min = usersid[_username].expectedduration - int256(_actualduration);\r\n      int256 weiperchf = 34e13;\r\n      //uint256 costpm = weiperchf;\r\n      int256 costdif = durationdif_min * weiperchf;\r\n      no1s1durations.push(_actualduration);\r\n      if (durationdif_min > 10 || durationdif_min < -10){\r\n        usersusage[_username].paychanged = true; \r\n        usersusage[_username].paychangeamount = costdif;\r\n        usersusage[_username].actualpayment = uint256(int256(usersid[_username].payamount) + costdif);\r\n        no1s1balance= uint256(int256(no1s1balance)+costdif);\r\n        usersusage[_username].serviceclosed = true;\r\n      }\r\n      if ( durationdif_min < 10 && durationdif_min > -10){\r\n          usersusage[_username].actualpayment=usersid[_username].payamount;\r\n          usersusage[_username].serviceclosed = true;\r\n      }\r\n      return no1s1durations.length;\r\n    }\r\n\r\n\r\n//uint256 historyID = no1s1histories.push(No1s1(_totalpayment,_totalduration));\r\n//      UsageHistory=histories[historyID];\r\n //     return historyID;\r\n\r\n\r\n\r\n\r\n}",
  "sourcePath": "C:\\Users\\hywan\\Documents\\GitHub\\no1s1_TI\\contracts\\no1s1data.sol",
  "compiler": {
    "name": "solc",
    "version": "0.8.0+commit.c7dfd78e.Emscripten.clang"
  },
  "schemaVersion": "3.4.2",
  "updatedAt": "2021-08-17T16:54:07.087Z",
  "networkType": "ethereum",
  "devdoc": {
    "kind": "dev",
    "methods": {},
    "version": 1
  },
  "userdoc": {
    "kind": "user",
    "methods": {},
    "version": 1
  }
}