{
  "contractName": "no1s1data",
  "abi": [
    {
      "inputs": [],
      "stateMutability": "nonpayable",
      "type": "constructor"
    },
    {
      "anonymous": false,
      "inputs": [
        {
          "indexed": false,
          "internalType": "uint256",
          "name": "pviv",
          "type": "uint256"
        },
        {
          "indexed": false,
          "internalType": "uint256",
          "name": "soe",
          "type": "uint256"
        },
        {
          "indexed": false,
          "internalType": "uint256",
          "name": "bsoc",
          "type": "uint256"
        }
      ],
      "name": "LastLog",
      "type": "event"
    },
    {
      "anonymous": false,
      "inputs": [
        {
          "indexed": false,
          "internalType": "string",
          "name": "userName",
          "type": "string"
        },
        {
          "indexed": false,
          "internalType": "uint256",
          "name": "confirmationCode",
          "type": "uint256"
        }
      ],
      "name": "newUserRegistered",
      "type": "event"
    },
    {
      "anonymous": false,
      "inputs": [
        {
          "indexed": false,
          "internalType": "uint256",
          "name": "batterystateofcharge",
          "type": "uint256"
        }
      ],
      "name": "no1s1update",
      "type": "event"
    },
    {
      "anonymous": false,
      "inputs": [
        {
          "indexed": false,
          "internalType": "bool",
          "name": "userActionConfirmed",
          "type": "bool"
        }
      ],
      "name": "userAction",
      "type": "event"
    },
    {
      "anonymous": false,
      "inputs": [
        {
          "indexed": false,
          "internalType": "uint256",
          "name": "theuuid",
          "type": "uint256"
        }
      ],
      "name": "whatuuid",
      "type": "event"
    },
    {
      "inputs": [
        {
          "internalType": "uint256",
          "name": "",
          "type": "uint256"
        }
      ],
      "name": "logs",
      "outputs": [
        {
          "internalType": "uint256",
          "name": "batteryoperatingtemp",
          "type": "uint256"
        },
        {
          "internalType": "uint256",
          "name": "batterycurrent",
          "type": "uint256"
        },
        {
          "internalType": "uint256",
          "name": "batteryvoltage",
          "type": "uint256"
        },
        {
          "internalType": "uint256",
          "name": "batterystateofcharge",
          "type": "uint256"
        },
        {
          "internalType": "uint256",
          "name": "batterychargecycle",
          "type": "uint256"
        },
        {
          "internalType": "uint256",
          "name": "batterycapacity",
          "type": "uint256"
        },
        {
          "internalType": "uint256",
          "name": "pvvoltage",
          "type": "uint256"
        },
        {
          "internalType": "uint256",
          "name": "pvcurrent",
          "type": "uint256"
        },
        {
          "internalType": "uint256",
          "name": "systempower",
          "type": "uint256"
        },
        {
          "internalType": "uint256",
          "name": "time",
          "type": "uint256"
        }
      ],
      "stateMutability": "view",
      "type": "function",
      "constant": true
    },
    {
      "inputs": [
        {
          "internalType": "string",
          "name": "",
          "type": "string"
        }
      ],
      "name": "partners",
      "outputs": [
        {
          "internalType": "string",
          "name": "companyname",
          "type": "string"
        },
        {
          "internalType": "address payable",
          "name": "companyaccount",
          "type": "address"
        },
        {
          "internalType": "string",
          "name": "partnertype",
          "type": "string"
        },
        {
          "internalType": "uint256",
          "name": "workload",
          "type": "uint256"
        },
        {
          "internalType": "uint256",
          "name": "workprice",
          "type": "uint256"
        }
      ],
      "stateMutability": "view",
      "type": "function",
      "constant": true
    },
    {
      "inputs": [
        {
          "internalType": "string",
          "name": "",
          "type": "string"
        }
      ],
      "name": "usersid",
      "outputs": [
        {
          "internalType": "uint256",
          "name": "uuid",
          "type": "uint256"
        },
        {
          "internalType": "uint256",
          "name": "timereg",
          "type": "uint256"
        },
        {
          "internalType": "uint256",
          "name": "ccode",
          "type": "uint256"
        },
        {
          "internalType": "address payable",
          "name": "account",
          "type": "address"
        },
        {
          "internalType": "int256",
          "name": "expectedduration",
          "type": "int256"
        },
        {
          "internalType": "uint256",
          "name": "payamount",
          "type": "uint256"
        },
        {
          "internalType": "bool",
          "name": "haveaccount",
          "type": "bool"
        },
        {
          "internalType": "bool",
          "name": "isidentified",
          "type": "bool"
        },
        {
          "internalType": "bool",
          "name": "ispaid",
          "type": "bool"
        }
      ],
      "stateMutability": "view",
      "type": "function",
      "constant": true
    },
    {
      "inputs": [
        {
          "internalType": "string",
          "name": "",
          "type": "string"
        }
      ],
      "name": "usersusage",
      "outputs": [
        {
          "internalType": "address",
          "name": "account",
          "type": "address"
        },
        {
          "internalType": "uint256",
          "name": "actualduration",
          "type": "uint256"
        },
        {
          "internalType": "int256",
          "name": "paychangeamount",
          "type": "int256"
        },
        {
          "internalType": "uint256",
          "name": "timeex",
          "type": "uint256"
        },
        {
          "internalType": "bool",
          "name": "grantedentrance",
          "type": "bool"
        },
        {
          "internalType": "bool",
          "name": "startedmeditation",
          "type": "bool"
        },
        {
          "internalType": "bool",
          "name": "serviceclosed",
          "type": "bool"
        },
        {
          "internalType": "bool",
          "name": "paychanged",
          "type": "bool"
        },
        {
          "internalType": "uint256",
          "name": "actualpayment",
          "type": "uint256"
        }
      ],
      "stateMutability": "view",
      "type": "function",
      "constant": true
    },
    {
      "inputs": [
        {
          "internalType": "uint256",
          "name": "_Btemp",
          "type": "uint256"
        },
        {
          "internalType": "uint256",
          "name": "_Bcurrent",
          "type": "uint256"
        },
        {
          "internalType": "uint256",
          "name": "_Bvoltage",
          "type": "uint256"
        },
        {
          "internalType": "uint256",
          "name": "_BSOC",
          "type": "uint256"
        },
        {
          "internalType": "uint256",
          "name": "_BCS",
          "type": "uint256"
        },
        {
          "internalType": "uint256",
          "name": "_Bcapacity",
          "type": "uint256"
        },
        {
          "internalType": "uint256",
          "name": "_Pvoltage",
          "type": "uint256"
        },
        {
          "internalType": "uint256",
          "name": "_Pcurrent",
          "type": "uint256"
        },
        {
          "internalType": "uint256",
          "name": "_Senergy",
          "type": "uint256"
        },
        {
          "internalType": "uint256",
          "name": "_time",
          "type": "uint256"
        }
      ],
      "name": "broadcastData",
      "outputs": [],
      "stateMutability": "nonpayable",
      "type": "function"
    },
    {
      "inputs": [
        {
          "internalType": "string",
          "name": "_username",
          "type": "string"
        },
        {
          "internalType": "uint256",
          "name": "_cCode",
          "type": "uint256"
        },
        {
          "internalType": "uint256",
          "name": "_time",
          "type": "uint256"
        },
        {
          "internalType": "uint256",
          "name": "_uuid",
          "type": "uint256"
        }
      ],
      "name": "initNewUser",
      "outputs": [],
      "stateMutability": "nonpayable",
      "type": "function"
    },
    {
      "inputs": [],
      "name": "checkStatus",
      "outputs": [
        {
          "internalType": "int256",
          "name": "c_allowtime",
          "type": "int256"
        },
        {
          "internalType": "uint256",
          "name": "estimated_cost",
          "type": "uint256"
        },
        {
          "internalType": "uint256",
          "name": "update_time",
          "type": "uint256"
        }
      ],
      "stateMutability": "view",
      "type": "function",
      "constant": true
    },
    {
      "inputs": [
        {
          "internalType": "address payable",
          "name": "_fundingAddress",
          "type": "address"
        },
        {
          "internalType": "address payable",
          "name": "_defaultAddress",
          "type": "address"
        }
      ],
      "name": "setUserAccounts",
      "outputs": [],
      "stateMutability": "nonpayable",
      "type": "function"
    },
    {
      "inputs": [
        {
          "internalType": "string",
          "name": "_partnername",
          "type": "string"
        },
        {
          "internalType": "address payable",
          "name": "_partnerAddress",
          "type": "address"
        },
        {
          "internalType": "string",
          "name": "_companyname",
          "type": "string"
        },
        {
          "internalType": "string",
          "name": "_partnertype",
          "type": "string"
        },
        {
          "internalType": "uint256",
          "name": "_workload",
          "type": "uint256"
        },
        {
          "internalType": "uint256",
          "name": "_workprice",
          "type": "uint256"
        }
      ],
      "name": "setPartner",
      "outputs": [],
      "stateMutability": "nonpayable",
      "type": "function"
    },
    {
      "inputs": [],
      "name": "whatismyacc",
      "outputs": [
        {
          "internalType": "address payable",
          "name": "",
          "type": "address"
        },
        {
          "internalType": "address payable",
          "name": "",
          "type": "address"
        },
        {
          "internalType": "address",
          "name": "",
          "type": "address"
        }
      ],
      "stateMutability": "view",
      "type": "function",
      "constant": true
    },
    {
      "inputs": [],
      "name": "whatismybalance",
      "outputs": [
        {
          "internalType": "uint256",
          "name": "",
          "type": "uint256"
        },
        {
          "internalType": "uint256",
          "name": "",
          "type": "uint256"
        }
      ],
      "stateMutability": "view",
      "type": "function",
      "constant": true
    },
    {
      "inputs": [],
      "name": "whatisuseruuid",
      "outputs": [
        {
          "internalType": "uint256",
          "name": "",
          "type": "uint256"
        }
      ],
      "stateMutability": "nonpayable",
      "type": "function"
    },
    {
      "inputs": [],
      "name": "whatisuseruuid2",
      "outputs": [
        {
          "internalType": "uint256",
          "name": "",
          "type": "uint256"
        }
      ],
      "stateMutability": "view",
      "type": "function",
      "constant": true
    },
    {
      "inputs": [],
      "name": "mylastlogs",
      "outputs": [
        {
          "internalType": "uint256",
          "name": "",
          "type": "uint256"
        },
        {
          "internalType": "uint256",
          "name": "",
          "type": "uint256"
        },
        {
          "internalType": "uint256",
          "name": "",
          "type": "uint256"
        }
      ],
      "stateMutability": "nonpayable",
      "type": "function"
    },
    {
      "inputs": [],
      "name": "mylastlogsV",
      "outputs": [
        {
          "internalType": "uint256",
          "name": "",
          "type": "uint256"
        },
        {
          "internalType": "uint256",
          "name": "",
          "type": "uint256"
        },
        {
          "internalType": "uint256",
          "name": "",
          "type": "uint256"
        }
      ],
      "stateMutability": "view",
      "type": "function",
      "constant": true
    },
    {
      "inputs": [
        {
          "internalType": "int256",
          "name": "_selectedDuration",
          "type": "int256"
        },
        {
          "internalType": "string",
          "name": "_username",
          "type": "string"
        },
        {
          "internalType": "uint256",
          "name": "_selectedCost",
          "type": "uint256"
        }
      ],
      "name": "userPay",
      "outputs": [
        {
          "internalType": "uint256",
          "name": "",
          "type": "uint256"
        }
      ],
      "stateMutability": "payable",
      "type": "function",
      "payable": true
    },
    {
      "inputs": [],
      "name": "toContract",
      "outputs": [],
      "stateMutability": "payable",
      "type": "function",
      "payable": true
    },
    {
      "inputs": [
        {
          "internalType": "bool",
          "name": "_pressuredetected",
          "type": "bool"
        },
        {
          "internalType": "bool",
          "name": "_dooropened",
          "type": "bool"
        },
        {
          "internalType": "bool",
          "name": "_motiondetected",
          "type": "bool"
        },
        {
          "internalType": "string",
          "name": "_username",
          "type": "string"
        }
      ],
      "name": "userActive",
      "outputs": [],
      "stateMutability": "nonpayable",
      "type": "function"
    },
    {
      "inputs": [
        {
          "internalType": "bool",
          "name": "_motiondetected",
          "type": "bool"
        },
        {
          "internalType": "bool",
          "name": "_dooropened",
          "type": "bool"
        },
        {
          "internalType": "bool",
          "name": "_handletriggered",
          "type": "bool"
        },
        {
          "internalType": "string",
          "name": "_username",
          "type": "string"
        },
        {
          "internalType": "uint256",
          "name": "_actualduration",
          "type": "uint256"
        },
        {
          "internalType": "uint256",
          "name": "_timeex",
          "type": "uint256"
        }
      ],
      "name": "serviceClose",
      "outputs": [
        {
          "internalType": "uint256",
          "name": "",
          "type": "uint256"
        }
      ],
      "stateMutability": "nonpayable",
      "type": "function"
    }
  ],
  "bytecode": "0x608060405234801561001057600080fd5b5033600160006101000a81548173ffffffffffffffffffffffffffffffffffffffff021916908373ffffffffffffffffffffffffffffffffffffffff160217905550612a59806100616000396000f3fe6080604052600436106101135760003560e01c80637f4c42c3116100a0578063c81c5bde11610064578063c81c5bde146103a1578063cebfe4ff146103ca578063d9be18e9146103f7578063e79899bd14610420578063ea22c2471461046657610113565b80637f4c42c3146102b157806388debc31146102dd5780638b3bf3ec14610322578063b8e51fb71461034f578063c28b86a71461037857610113565b80632acd01f8116100e75780632acd01f8146101cb5780633b7104f21461020c5780633bf3d53014610239578063524189311461027e57806361b21f4d146102a757610113565b80621fe73f14610118578063179a9f18146101435780631c3400901461017357806326afd994146101a0575b600080fd5b34801561012457600080fd5b5061012d6104a3565b60405161013a919061235c565b60405180910390f35b61015d60048036038101906101589190611c68565b610543565b60405161016a919061235c565b60405180910390f35b34801561017f57600080fd5b506101886106d1565b60405161019793929190612155565b60405180910390f35b3480156101ac57600080fd5b506101b5610728565b6040516101c2919061235c565b60405180910390f35b3480156101d757600080fd5b506101f260048036038101906101ed9190611cd4565b610791565b60405161020395949392919061226b565b60405180910390f35b34801561021857600080fd5b5061022161090d565b60405161023093929190612234565b60405180910390f35b34801561024557600080fd5b50610260600480360381019061025b9190611cd4565b610a39565b6040516102759998979695949392919061218c565b60405180910390f35b34801561028a57600080fd5b506102a560048036038101906102a09190611d15565b610af1565b005b6102af610c6b565b005b3480156102bd57600080fd5b506102c6610c6d565b6040516102d4929190612377565b60405180910390f35b3480156102e957600080fd5b5061030460048036038101906102ff9190611cd4565b610c7c565b604051610319999897969594939291906123d7565b60405180910390f35b34801561032e57600080fd5b50610337610d27565b604051610346939291906123a0565b60405180910390f35b34801561035b57600080fd5b5061037660048036038101906103719190611de6565b610e5f565b005b34801561038457600080fd5b5061039f600480360381019061039a9190611e8a565b6110e1565b005b3480156103ad57600080fd5b506103c860048036038101906103c39190611b4c565b611257565b005b3480156103d657600080fd5b506103df611336565b6040516103ee939291906123a0565b60405180910390f35b34801561040357600080fd5b5061041e60048036038101906104199190611b10565b6114a9565b005b34801561042c57600080fd5b5061044760048036038101906104429190611e61565b6115c3565b60405161045d9a99989796959493929190612464565b60405180910390f35b34801561047257600080fd5b5061048d60048036038101906104889190611bc7565b611627565b60405161049a919061235c565b60405180910390f35b600080600760016007805490506104ba919061281d565b815481106104f1577f4e487b7100000000000000000000000000000000000000000000000000000000600052603260045260246000fd5b90600052602060002090600202016000015490507f807fa0cefbabafb0fb4319dc66094a067d3b5db97ead843cb14671a4f6d2c5db81604051610534919061235c565b60405180910390a18091505090565b6000600360009054906101000a900473ffffffffffffffffffffffffffffffffffffffff1673ffffffffffffffffffffffffffffffffffffffff163373ffffffffffffffffffffffffffffffffffffffff161461059f57600080fd5b81600885856040516105b2929190612125565b90815260200160405180910390206005018190555084600885856040516105da929190612125565b908152602001604051809103902060040181905550600160088585604051610603929190612125565b908152602001604051809103902060060160026101000a81548160ff0219169083151502179055506106408260045461195190919063ffffffff16565b60048190555061064e610c6b565b600160088585604051610662929190612125565b908152602001604051809103902060060160016101000a81548160ff02191690831515021790555060016009858560405161069e929190612125565b908152602001604051809103902060040160006101000a81548160ff021916908315150217905550819050949350505050565b6000806000600260009054906101000a900473ffffffffffffffffffffffffffffffffffffffff16600360009054906101000a900473ffffffffffffffffffffffffffffffffffffffff1630925092509250909192565b6000806007600160078054905061073f919061281d565b81548110610776577f4e487b7100000000000000000000000000000000000000000000000000000000600052603260045260246000fd5b90600052602060002090600202016000015490508091505090565b600a818051602081018201805184825260208301602085012081835280955050505050506000915090508060000180546107ca906128f7565b80601f01602080910402602001604051908101604052809291908181526020018280546107f6906128f7565b80156108435780601f1061081857610100808354040283529160200191610843565b820191906000526020600020905b81548152906001019060200180831161082657829003601f168201915b5050505050908060010160009054906101000a900473ffffffffffffffffffffffffffffffffffffffff169080600201805461087e906128f7565b80601f01602080910402602001604051908101604052809291908181526020018280546108aa906128f7565b80156108f75780601f106108cc576101008083540402835291602001916108f7565b820191906000526020600020905b8154815290600101906020018083116108da57829003601f168201915b5050505050908060030154908060040154905085565b60008060008066066517289880009050600060066001600680549050610933919061281d565b8154811061096a577f4e487b7100000000000000000000000000000000000000000000000000000000600052603260045260246000fd5b90600052602060002090600a0201600501549050600060066001600680549050610994919061281d565b815481106109cb577f4e487b7100000000000000000000000000000000000000000000000000000000600052603260045260246000fd5b90600052602060002090600a02016009015490506000604b83106109ee57602890505b602d83106109fb57601490505b60198310610a0857600a90505b6019831015610a1657600590505b60008482610a249190612672565b90508181849750975097505050505050909192565b6009818051602081018201805184825260208301602085012081835280955050505050506000915090508060000160009054906101000a900473ffffffffffffffffffffffffffffffffffffffff16908060010154908060020154908060030154908060040160009054906101000a900460ff16908060040160019054906101000a900460ff16908060040160029054906101000a900460ff16908060040160039054906101000a900460ff16908060050154905089565b600160009054906101000a900473ffffffffffffffffffffffffffffffffffffffff1673ffffffffffffffffffffffffffffffffffffffff163373ffffffffffffffffffffffffffffffffffffffff1614610b4b57600080fd5b83600a87604051610b5c919061213e565b90815260200160405180910390206000019080519060200190610b80929190611967565b5084600a87604051610b92919061213e565b908152602001604051809103902060010160006101000a81548173ffffffffffffffffffffffffffffffffffffffff021916908373ffffffffffffffffffffffffffffffffffffffff16021790555082600a87604051610bf2919061213e565b90815260200160405180910390206002019080519060200190610c16929190611967565b5081600a87604051610c28919061213e565b90815260200160405180910390206003018190555080600a87604051610c4e919061213e565b908152602001604051809103902060040181905550505050505050565b565b60008060045447915091509091565b6008818051602081018201805184825260208301602085012081835280955050505050506000915090508060000154908060010154908060020154908060030160009054906101000a900473ffffffffffffffffffffffffffffffffffffffff16908060040154908060050154908060060160009054906101000a900460ff16908060060160019054906101000a900460ff16908060060160029054906101000a900460ff16905089565b60008060008060066001600680549050610d41919061281d565b81548110610d78577f4e487b7100000000000000000000000000000000000000000000000000000000600052603260045260246000fd5b90600052602060002090600a0201600601549050600060066001600680549050610da2919061281d565b81548110610dd9577f4e487b7100000000000000000000000000000000000000000000000000000000600052603260045260246000fd5b90600052602060002090600a0201600801549050600060066001600680549050610e03919061281d565b81548110610e3a577f4e487b7100000000000000000000000000000000000000000000000000000000600052603260045260246000fd5b90600052602060002090600a0201600301549050828282955095509550505050909192565b6000600885604051610e71919061213e565b90815260200160405180910390206000015414610ec3576040517f08c379a0000000000000000000000000000000000000000000000000000000008152600401610eba9061231c565b60405180910390fd5b80600885604051610ed4919061213e565b90815260200160405180910390206000018190555081600885604051610efa919061213e565b90815260200160405180910390206001018190555082600885604051610f20919061213e565b908152602001604051809103902060020181905550600360009054906101000a900473ffffffffffffffffffffffffffffffffffffffff16600885604051610f68919061213e565b908152602001604051809103902060030160006101000a81548173ffffffffffffffffffffffffffffffffffffffff021916908373ffffffffffffffffffffffffffffffffffffffff160217905550600360009054906101000a900473ffffffffffffffffffffffffffffffffffffffff16600985604051610fea919061213e565b908152602001604051809103902060000160006101000a81548173ffffffffffffffffffffffffffffffffffffffff021916908373ffffffffffffffffffffffffffffffffffffffff1602179055506007604051806040016040528083815260200186815250908060018154018082558091505060019003906000526020600020906002020160009091909190915060008201518160000155602082015181600101908051906020019061109f929190611967565b5050507f856405dc5c423d191949d8712dade6de9a0d115db1bb3b65f334b9e018215a6984846040516110d39291906122cc565b60405180910390a150505050565b600160009054906101000a900473ffffffffffffffffffffffffffffffffffffffff1673ffffffffffffffffffffffffffffffffffffffff163373ffffffffffffffffffffffffffffffffffffffff161461113b57600080fd5b60066040518061014001604052808c81526020018b81526020018a81526020018981526020018881526020018781526020018681526020018581526020018481526020018381525090806001815401808255809150506001900390600052602060002090600a0201600090919091909150600082015181600001556020820151816001015560408201518160020155606082015181600301556080820151816004015560a0820151816005015560c0820151816006015560e082015181600701556101008201518160080155610120820151816009015550507f2cb3f4d733f3d79088b00f79c0793d8e590b6b319cfc183bedcc434ce67f905787604051611243919061235c565b60405180910390a150505050505050505050565b6001151584151514801561126f575060011515831515145b801561127f575060011515821515145b6112be576040517f08c379a00000000000000000000000000000000000000000000000000000000081526004016112b59061233c565b60405180910390fd5b60016009826040516112d0919061213e565b908152602001604051809103902060040160016101000a81548160ff0219169083151502179055507fce474fcd5a3ddce1c6c968be82029cd603cc3d3ecc0a8b2e1258a96af63d279560016040516113289190612219565b60405180910390a150505050565b60008060008060066001600680549050611350919061281d565b81548110611387577f4e487b7100000000000000000000000000000000000000000000000000000000600052603260045260246000fd5b90600052602060002090600a02016006015490506000600660016006805490506113b1919061281d565b815481106113e8577f4e487b7100000000000000000000000000000000000000000000000000000000600052603260045260246000fd5b90600052602060002090600a0201600801549050600060066001600680549050611412919061281d565b81548110611449577f4e487b7100000000000000000000000000000000000000000000000000000000600052603260045260246000fd5b90600052602060002090600a02016003015490507f10edf295f3d0e1971ebe5b3ed9991b70142b62c2ae047eb10f9efcf402ccd13b838383604051611490939291906123a0565b60405180910390a1828282955095509550505050909192565b600160009054906101000a900473ffffffffffffffffffffffffffffffffffffffff1673ffffffffffffffffffffffffffffffffffffffff163373ffffffffffffffffffffffffffffffffffffffff161461150357600080fd5b600073ffffffffffffffffffffffffffffffffffffffff168273ffffffffffffffffffffffffffffffffffffffff16141561153d57600080fd5b81600260006101000a81548173ffffffffffffffffffffffffffffffffffffffff021916908373ffffffffffffffffffffffffffffffffffffffff16021790555080600360006101000a81548173ffffffffffffffffffffffffffffffffffffffff021916908373ffffffffffffffffffffffffffffffffffffffff1602179055505050565b600681815481106115d357600080fd5b90600052602060002090600a0201600091509050806000015490806001015490806002015490806003015490806004015490806005015490806006015490806007015490806008015490806009015490508a565b600060011515851515148015611641575060011515861515145b8015611651575060011515871515145b611690576040517f08c379a0000000000000000000000000000000000000000000000000000000008152600401611687906122fc565b60405180910390fd5b826009856040516116a1919061213e565b908152602001604051809103902060010181905550816009856040516116c7919061213e565b9081526020016040518091039020600301819055506000836008866040516116ef919061213e565b90815260200160405180910390206004015461170b9190612789565b9050600066066517289880009050600081836117279190612672565b90506005869080600181540180825580915050600190039060005260206000200160009091909190915055600a83138061178057507ffffffffffffffffffffffffffffffffffffffffffffffffffffffffffffffff683125b15611886576001600988604051611797919061213e565b908152602001604051809103902060040160036101000a81548160ff021916908315150217905550806009886040516117d0919061213e565b908152602001604051809103902060020181905550806008886040516117f6919061213e565b9081526020016040518091039020600501546118129190612588565b600988604051611822919061213e565b908152602001604051809103902060050181905550806004546118459190612588565b600481905550600160098860405161185d919061213e565b908152602001604051809103902060040160026101000a81548160ff0219169083151502179055505b600a831280156118b557507ffffffffffffffffffffffffffffffffffffffffffffffffffffffffffffffff683135b1561193c576008876040516118ca919061213e565b9081526020016040518091039020600501546009886040516118ec919061213e565b9081526020016040518091039020600501819055506001600988604051611913919061213e565b908152602001604051809103902060040160026101000a81548160ff0219169083151502179055505b60058054905093505050509695505050505050565b6000818361195f919061261c565b905092915050565b828054611973906128f7565b90600052602060002090601f01602090048101928261199557600085556119dc565b82601f106119ae57805160ff19168380011785556119dc565b828001600101855582156119dc579182015b828111156119db5782518255916020019190600101906119c0565b5b5090506119e991906119ed565b5090565b5b80821115611a065760008160009055506001016119ee565b5090565b6000611a1d611a1884612531565b612500565b905082815260208101848484011115611a3557600080fd5b611a408482856128b5565b509392505050565b600081359050611a57816129c7565b92915050565b600081359050611a6c816129de565b92915050565b600081359050611a81816129f5565b92915050565b60008083601f840112611a9957600080fd5b8235905067ffffffffffffffff811115611ab257600080fd5b602083019150836001820283011115611aca57600080fd5b9250929050565b600082601f830112611ae257600080fd5b8135611af2848260208601611a0a565b91505092915050565b600081359050611b0a81612a0c565b92915050565b60008060408385031215611b2357600080fd5b6000611b3185828601611a48565b9250506020611b4285828601611a48565b9150509250929050565b60008060008060808587031215611b6257600080fd5b6000611b7087828801611a5d565b9450506020611b8187828801611a5d565b9350506040611b9287828801611a5d565b925050606085013567ffffffffffffffff811115611baf57600080fd5b611bbb87828801611ad1565b91505092959194509250565b60008060008060008060c08789031215611be057600080fd5b6000611bee89828a01611a5d565b9650506020611bff89828a01611a5d565b9550506040611c1089828a01611a5d565b945050606087013567ffffffffffffffff811115611c2d57600080fd5b611c3989828a01611ad1565b9350506080611c4a89828a01611afb565b92505060a0611c5b89828a01611afb565b9150509295509295509295565b60008060008060608587031215611c7e57600080fd5b6000611c8c87828801611a72565b945050602085013567ffffffffffffffff811115611ca957600080fd5b611cb587828801611a87565b93509350506040611cc887828801611afb565b91505092959194509250565b600060208284031215611ce657600080fd5b600082013567ffffffffffffffff811115611d0057600080fd5b611d0c84828501611ad1565b91505092915050565b60008060008060008060c08789031215611d2e57600080fd5b600087013567ffffffffffffffff811115611d4857600080fd5b611d5489828a01611ad1565b9650506020611d6589828a01611a48565b955050604087013567ffffffffffffffff811115611d8257600080fd5b611d8e89828a01611ad1565b945050606087013567ffffffffffffffff811115611dab57600080fd5b611db789828a01611ad1565b9350506080611dc889828a01611afb565b92505060a0611dd989828a01611afb565b9150509295509295509295565b60008060008060808587031215611dfc57600080fd5b600085013567ffffffffffffffff811115611e1657600080fd5b611e2287828801611ad1565b9450506020611e3387828801611afb565b9350506040611e4487828801611afb565b9250506060611e5587828801611afb565b91505092959194509250565b600060208284031215611e7357600080fd5b6000611e8184828501611afb565b91505092915050565b6000806000806000806000806000806101408b8d031215611eaa57600080fd5b6000611eb88d828e01611afb565b9a50506020611ec98d828e01611afb565b9950506040611eda8d828e01611afb565b9850506060611eeb8d828e01611afb565b9750506080611efc8d828e01611afb565b96505060a0611f0d8d828e01611afb565b95505060c0611f1e8d828e01611afb565b94505060e0611f2f8d828e01611afb565b935050610100611f418d828e01611afb565b925050610120611f538d828e01611afb565b9150509295989b9194979a5092959850565b611f6e81612863565b82525050565b611f7d81612851565b82525050565b611f8c81612875565b82525050565b611f9b81612881565b82525050565b6000611fad838561257d565b9350611fba8385846128b5565b82840190509392505050565b6000611fd182612561565b611fdb818561256c565b9350611feb8185602086016128c4565b611ff4816129b6565b840191505092915050565b600061200a82612561565b612014818561257d565b93506120248185602086016128c4565b80840191505092915050565b600061203d601f8361256c565b91507f75736572206c6561766520616374696f6e206e6f7420646574656374656421006000830152602082019050919050565b600061207d60128361256c565b91507f75736572206e616d652069732074616b656e00000000000000000000000000006000830152602082019050919050565b60006120bd60228361256c565b91507f7573657220616374697669747920616374696f6e206e6f74206465746563746560008301527f64210000000000000000000000000000000000000000000000000000000000006020830152604082019050919050565b61211f816128ab565b82525050565b6000612132828486611fa1565b91508190509392505050565b600061214a8284611fff565b915081905092915050565b600060608201905061216a6000830186611f65565b6121776020830185611f65565b6121846040830184611f74565b949350505050565b6000610120820190506121a2600083018c611f74565b6121af602083018b612116565b6121bc604083018a611f92565b6121c96060830189612116565b6121d66080830188611f83565b6121e360a0830187611f83565b6121f060c0830186611f83565b6121fd60e0830185611f83565b61220b610100830184612116565b9a9950505050505050505050565b600060208201905061222e6000830184611f83565b92915050565b60006060820190506122496000830186611f92565b6122566020830185612116565b6122636040830184612116565b949350505050565b600060a08201905081810360008301526122858188611fc6565b90506122946020830187611f65565b81810360408301526122a68186611fc6565b90506122b56060830185612116565b6122c26080830184612116565b9695505050505050565b600060408201905081810360008301526122e68185611fc6565b90506122f56020830184612116565b9392505050565b6000602082019050818103600083015261231581612030565b9050919050565b6000602082019050818103600083015261233581612070565b9050919050565b60006020820190508181036000830152612355816120b0565b9050919050565b60006020820190506123716000830184612116565b92915050565b600060408201905061238c6000830185612116565b6123996020830184612116565b9392505050565b60006060820190506123b56000830186612116565b6123c26020830185612116565b6123cf6040830184612116565b949350505050565b6000610120820190506123ed600083018c612116565b6123fa602083018b612116565b612407604083018a612116565b6124146060830189611f65565b6124216080830188611f92565b61242e60a0830187612116565b61243b60c0830186611f83565b61244860e0830185611f83565b612456610100830184611f83565b9a9950505050505050505050565b60006101408201905061247a600083018d612116565b612487602083018c612116565b612494604083018b612116565b6124a1606083018a612116565b6124ae6080830189612116565b6124bb60a0830188612116565b6124c860c0830187612116565b6124d560e0830186612116565b6124e3610100830185612116565b6124f1610120830184612116565b9b9a5050505050505050505050565b6000604051905081810181811067ffffffffffffffff8211171561252757612526612987565b5b8060405250919050565b600067ffffffffffffffff82111561254c5761254b612987565b5b601f19601f8301169050602081019050919050565b600081519050919050565b600082825260208201905092915050565b600081905092915050565b600061259382612881565b915061259e83612881565b9250817f7fffffffffffffffffffffffffffffffffffffffffffffffffffffffffffffff038313600083121516156125d9576125d8612929565b5b817f800000000000000000000000000000000000000000000000000000000000000003831260008312161561261157612610612929565b5b828201905092915050565b6000612627826128ab565b9150612632836128ab565b9250827fffffffffffffffffffffffffffffffffffffffffffffffffffffffffffffffff0382111561266757612666612929565b5b828201905092915050565b600061267d82612881565b915061268883612881565b9250827f7fffffffffffffffffffffffffffffffffffffffffffffffffffffffffffffff04821160008413600084131616156126c7576126c6612929565b5b817f8000000000000000000000000000000000000000000000000000000000000000058312600084126000841316161561270457612703612929565b5b827f8000000000000000000000000000000000000000000000000000000000000000058212600084136000841216161561274157612740612929565b5b827f7fffffffffffffffffffffffffffffffffffffffffffffffffffffffffffffff058212600084126000841216161561277e5761277d612929565b5b828202905092915050565b600061279482612881565b915061279f83612881565b9250827f8000000000000000000000000000000000000000000000000000000000000000018212600084121516156127da576127d9612929565b5b827f7fffffffffffffffffffffffffffffffffffffffffffffffffffffffffffffff01821360008412161561281257612811612929565b5b828203905092915050565b6000612828826128ab565b9150612833836128ab565b92508282101561284657612845612929565b5b828203905092915050565b600061285c8261288b565b9050919050565b600061286e8261288b565b9050919050565b60008115159050919050565b6000819050919050565b600073ffffffffffffffffffffffffffffffffffffffff82169050919050565b6000819050919050565b82818337600083830152505050565b60005b838110156128e25780820151818401526020810190506128c7565b838111156128f1576000848401525b50505050565b6000600282049050600182168061290f57607f821691505b6020821081141561292357612922612958565b5b50919050565b7f4e487b7100000000000000000000000000000000000000000000000000000000600052601160045260246000fd5b7f4e487b7100000000000000000000000000000000000000000000000000000000600052602260045260246000fd5b7f4e487b7100000000000000000000000000000000000000000000000000000000600052604160045260246000fd5b6000601f19601f8301169050919050565b6129d081612863565b81146129db57600080fd5b50565b6129e781612875565b81146129f257600080fd5b50565b6129fe81612881565b8114612a0957600080fd5b50565b612a15816128ab565b8114612a2057600080fd5b5056fea2646970667358221220a19dc065a6bae7d93c096890b349000f3cc800ad0c9b6da442752a79ca679f9464736f6c63430008000033",
  "immutableReferences": {},
  "source": "pragma solidity >=0.5.16;\r\nimport \"../node_modules/@openzeppelin/contracts/utils/math/SafeMath.sol\";\r\n\r\ncontract no1s1data{\r\n    using SafeMath for uint256;\r\n\r\n    address payable no1s1;\r\n    address adminacc;\r\n    address payable fundingacc;\r\n    address payable defaultuseracc;\r\n    uint256 no1s1balance;\r\n    uint256[] no1s1durations;\r\n\r\n    \r\n    struct partner{\r\n        string companyname;\r\n        address payable companyaccount;\r\n        string partnertype;\r\n        uint256 workload;\r\n        uint256 workprice;\r\n    }\r\n    \r\n    struct component{\r\n        string materiallocation;\r\n        uint256 materialprice;\r\n        uint256 materialage;\r\n    }\r\n    \r\n    struct condition{\r\n        bool isrenovated;\r\n        uint256 countrenovation;\r\n        string[] renovationlocation;\r\n        string[] renovationprice;\r\n    }\r\n    \r\n    struct Material{\r\n        uint256 materialcount;\r\n        uint256 totalprice;\r\n        mapping (string => component) components;\r\n        mapping (string => condition) conditions;\r\n    }\r\n    \r\n\r\n    struct Log{\r\n      uint256 batteryoperatingtemp;\r\n      uint256 batterycurrent;\r\n      uint256 batteryvoltage;\r\n      uint256 batterystateofcharge;\r\n      uint256 batterychargecycle;\r\n      uint256 batterycapacity;\r\n      uint256 pvvoltage;\r\n      uint256 pvcurrent;\r\n      uint256 systempower;\r\n      uint256 time;\r\n    }\r\n\r\n    struct UserID{\r\n      uint256 uuid;\r\n      uint256 timereg;\r\n      uint256 ccode;\r\n      address payable account;\r\n      int256 expectedduration;\r\n      uint256 payamount;\r\n      bool haveaccount;\r\n      bool isidentified;\r\n      bool ispaid;\r\n    }\r\n\r\n    struct User{\r\n      uint256 uuid;\r\n      string username;\r\n    }\r\n\r\n    struct UserUSAGE{\r\n        address account;\r\n        uint256 actualduration;\r\n        int256 paychangeamount;\r\n        uint256 timeex;\r\n        bool grantedentrance;\r\n        bool startedmeditation;\r\n        bool serviceclosed;\r\n        bool paychanged;\r\n        uint256 actualpayment;\r\n    }\r\n\r\n    \r\n\r\n    /************the material identity**************/\r\n\r\n\r\n    Log[] public logs;\r\n    User[] private users;\r\n    //User[] public users;\r\n    //UsageHistory[] private histories;\r\n    //mapping (uint256 => Log[]) logs;\r\n    //mapping (uint256 => No1s1[]) no1s1histories;\r\n    mapping (string => UserID) public usersid;\r\n    mapping (string => UserUSAGE) public usersusage;\r\n    mapping (string => partner) public partners;\r\n\r\n    constructor(){\r\n      adminacc=msg.sender;\r\n    }\r\n\r\n    modifier onlyAdmin{\r\n      require(msg.sender == adminacc);\r\n      _;\r\n    }\r\n\r\n    modifier onlyMe{\r\n      require(msg.sender == no1s1);\r\n      _;\r\n    }\r\n\r\n    modifier onlyFundacc{\r\n      require(msg.sender == fundingacc);\r\n      _;\r\n    }\r\n    \r\n    modifier onlyDefault{\r\n      require(msg.sender == defaultuseracc);\r\n      _;\r\n    } \r\n\r\n\r\n    event no1s1update(uint batterystateofcharge);\r\n    function broadcastData(uint256 _Btemp,uint256 _Bcurrent,uint256 _Bvoltage,uint256 _BSOC,uint256 _BCS,uint256 _Bcapacity,uint256 _Pvoltage,uint256 _Pcurrent,uint256 _Senergy, uint256 _time)public onlyAdmin{\r\n        logs.push(Log(\r\n          {batteryoperatingtemp: _Btemp,\r\n          batterycurrent: _Bcurrent, \r\n          batteryvoltage: _Bvoltage,\r\n          batterystateofcharge: _BSOC, \r\n          batterychargecycle: _BCS, \r\n          batterycapacity: _Bcapacity,\r\n          pvvoltage: _Pvoltage,\r\n          pvcurrent: _Pcurrent,\r\n          systempower: _Senergy,\r\n          time:_time}\r\n          ));\r\n        \r\n        emit no1s1update(_BSOC);\r\n    }\r\n    \r\n\r\n\r\n    event newUserRegistered(string userName,uint256 confirmationCode); \r\n    function initNewUser(string memory _username, uint256 _cCode, uint256 _time, uint256 _uuid) public {\r\n      require( usersid[_username].uuid ==  0 , \"user name is taken\");\r\n      usersid[_username].uuid = _uuid;\r\n      usersid[_username].timereg = _time;\r\n      usersid[_username].ccode = _cCode;\r\n      usersid[_username].account = defaultuseracc;\r\n      usersusage[_username].account = defaultuseracc;\r\n      users.push(User({uuid:_uuid,username:_username}));\r\n      //return _username;\r\n      emit newUserRegistered(_username, _cCode);\r\n      //do i calculate a uuid and ccode here?\r\n      //does it need emit? \r\n      //does it need return\r\n    }\r\n\r\n    function checkStatus()public view returns(int256 c_allowtime,uint256 estimated_cost ,uint256 update_time) {\r\n      /*require (logs.length == 0, \"no registered data yet\");*/\r\n      int weiperchf = 18e14;\r\n      //uint256 costpm = weiperchf; \r\n      uint256 current_energy=logs[logs.length-1].batterycapacity;\r\n      uint256 last_time=logs[logs.length-1].time;\r\n      int256 _duration;\r\n      if(current_energy >= 75 ){\r\n            _duration = 40;}\r\n        if(current_energy >= 45 ){\r\n            _duration = 20;}\r\n        if(current_energy >= 25 ){\r\n            _duration = 10;}\r\n        if(current_energy <25 ){\r\n            _duration = 5;}\r\n        uint256 servicecost = uint256(_duration * weiperchf);\r\n        return (_duration,servicecost,last_time);\r\n    }\r\n    \r\n    function setUserAccounts(address payable _fundingAddress, address payable _defaultAddress)public onlyAdmin{\r\n      require(_fundingAddress != address(0));\r\n      fundingacc=_fundingAddress;\r\n      defaultuseracc =_defaultAddress;\r\n    }\r\n    \r\n    function setPartner(string memory _partnername, address payable _partnerAddress,string memory _companyname,string memory _partnertype, uint256 _workload,uint256 _workprice) public onlyAdmin{\r\n        partners[_partnername].companyname=_companyname;\r\n        partners[_partnername].companyaccount= _partnerAddress;\r\n        partners[_partnername].partnertype= _partnertype;\r\n        partners[_partnername].workload= _workload;\r\n        partners[_partnername].workprice= _workprice;\r\n    }\r\n    \r\n    \r\n    function whatismyacc() public view returns(address payable,address payable,address){\r\n        return (fundingacc,defaultuseracc,address(this));\r\n    }\r\n    \r\n    function whatismybalance() public view returns(uint256,uint256){\r\n        return (no1s1balance, address(this).balance);\r\n    }\r\n\r\n    event whatuuid(uint theuuid);\r\n    function whatisuseruuid() public returns(uint256){\r\n      uint256 lastuuid=users[users.length-1].uuid;\r\n      emit whatuuid(lastuuid);\r\n      return (lastuuid);\r\n    }\r\n\r\n    \r\n    function whatisuseruuid2() public view returns(uint256){\r\n      uint256 lastuuid=users[users.length-1].uuid;\r\n      return (lastuuid);\r\n    }\r\n    \r\n    event LastLog(uint pviv, uint soe, uint bsoc);\r\n    function mylastlogs() public returns(uint256,uint256,uint256){\r\n      uint256 lastPVIV=logs[logs.length-1].pvvoltage;\r\n      uint256 lastSOE=logs[logs.length-1].systempower;\r\n      uint256 lastBSoC=logs[logs.length-1].batterystateofcharge;\r\n      emit LastLog(lastPVIV,lastSOE,lastBSoC);\r\n      return (lastPVIV,lastSOE,lastBSoC);\r\n    }\r\n    \r\n    function mylastlogsV() public view returns(uint256,uint256,uint256){\r\n      uint256 lastPVIV=logs[logs.length-1].pvvoltage;\r\n      uint256 lastSOE=logs[logs.length-1].systempower;\r\n      uint256 lastBSoC=logs[logs.length-1].batterystateofcharge;\r\n      return (lastPVIV,lastSOE,lastBSoC);\r\n    }\r\n\r\n\r\n    /*exucable once every season*/\r\n    // function fundDefault()external onlyFundacc payable{\r\n    //     address payable _to = defaultuseracc;\r\n    //     (bool sent, bytes memory data) = _to.call;/*{value: msg.value}(\"\");*/\r\n    //     require (sent, \"payment failed!\");\r\n    // }\r\n\r\n    function userPay(int _selectedDuration, string calldata _username, uint256 _selectedCost) external onlyDefault payable returns(uint256){\r\n    /*msg.value* is survice cost*/\r\n    usersid[_username].payamount = _selectedCost;\r\n    usersid[_username].expectedduration = _selectedDuration;\r\n    usersid[_username].ispaid = true;\r\n    no1s1balance = no1s1balance.add(_selectedCost);\r\n    toContract();\r\n    usersid[_username].isidentified = true;\r\n    usersusage[_username].grantedentrance =  true;\r\n    return _selectedCost; \r\n    /*address payable payacc=usersid[_username].account;*/\r\n    /*(bool sent, bytes memory data) = usersid[_username].account.call{value: msg.value}(\"\");*/\r\n    /*ToContract{value:servicecost}(log1, log2, log3);*/\r\n    /*ToContract(servicecost);*/\r\n    /*require (sent, \"payment failed!\");*/\r\n    }\r\n    \r\n    function toContract() public payable {\r\n        \r\n    }\r\n    \r\n    event userAction(bool userActionConfirmed);\r\n    function userActive(bool _pressuredetected, bool _dooropened, bool _motiondetected, string memory _username) public {\r\n      require(_pressuredetected == true && _dooropened == true && _motiondetected == true, \"user activity action not detected!\");\r\n      usersusage[_username].startedmeditation = true;\r\n      emit userAction(true);\r\n    }\r\n    \r\n    function serviceClose(bool _motiondetected, bool _dooropened, bool _handletriggered, string memory _username, uint256 _actualduration, uint256 _timeex) public returns (uint) {\r\n      require(_handletriggered == true && _dooropened == true && _motiondetected == true, \"user leave action not detected!\");\r\n      usersusage[_username].actualduration = _actualduration;\r\n      usersusage[_username].timeex = _timeex;\r\n      int256 durationdif_min = usersid[_username].expectedduration - int256(_actualduration);\r\n      int256 weiperchf = 18e14;\r\n      //uint256 costpm = weiperchf;\r\n      int256 costdif = durationdif_min * weiperchf;\r\n      no1s1durations.push(_actualduration);\r\n      if (durationdif_min > 10 || durationdif_min < -10){\r\n        usersusage[_username].paychanged = true; \r\n        usersusage[_username].paychangeamount = costdif;\r\n        usersusage[_username].actualpayment = uint256(int256(usersid[_username].payamount) + costdif);\r\n        no1s1balance= uint256(int256(no1s1balance)+costdif);\r\n        usersusage[_username].serviceclosed = true;\r\n      }\r\n      if ( durationdif_min < 10 && durationdif_min > -10){\r\n          usersusage[_username].actualpayment=usersid[_username].payamount;\r\n          usersusage[_username].serviceclosed = true;\r\n      }\r\n      return no1s1durations.length;\r\n    }\r\n\r\n\r\n//uint256 historyID = no1s1histories.push(No1s1(_totalpayment,_totalduration));\r\n//      UsageHistory=histories[historyID];\r\n //     return historyID;\r\n\r\n\r\n\r\n\r\n}\r\n\r\n",
  "sourcePath": "C:/Users/wangho/Documents/RA/web_front/template integration/no1s1_TI/contracts/no1s1data.sol",
  "compiler": {
    "name": "solc",
    "version": "0.8.0+commit.c7dfd78e.Emscripten.clang"
  },
  "schemaVersion": "3.4.1",
  "updatedAt": "2021-05-21T08:37:17.553Z",
  "networkType": "ethereum",
  "devdoc": {
    "kind": "dev",
    "methods": {},
    "version": 1
  },
  "userdoc": {
    "kind": "user",
    "methods": {},
    "version": 1
  }
}