{
  "contractName": "no1s1Data",
  "abi": [
    {
      "inputs": [],
      "stateMutability": "nonpayable",
      "type": "constructor"
    },
    {
      "anonymous": false,
      "inputs": [
        {
          "indexed": false,
          "internalType": "address",
          "name": "appContract",
          "type": "address"
        }
      ],
      "name": "AuthorizedContract",
      "type": "event"
    },
    {
      "anonymous": false,
      "inputs": [
        {
          "indexed": false,
          "internalType": "address",
          "name": "appContract",
          "type": "address"
        }
      ],
      "name": "DeAuthorizedContract",
      "type": "event"
    },
    {
      "anonymous": false,
      "inputs": [
        {
          "indexed": false,
          "internalType": "uint256",
          "name": "batteryCurrency",
          "type": "uint256"
        },
        {
          "indexed": false,
          "internalType": "uint256",
          "name": "batteryVoltage",
          "type": "uint256"
        },
        {
          "indexed": false,
          "internalType": "uint256",
          "name": "batteryStateOfCharge",
          "type": "uint256"
        },
        {
          "indexed": false,
          "internalType": "uint256",
          "name": "pvVoltage",
          "type": "uint256"
        },
        {
          "indexed": false,
          "internalType": "uint256",
          "name": "systemEnergy",
          "type": "uint256"
        },
        {
          "indexed": false,
          "internalType": "uint256",
          "name": "logTime",
          "type": "uint256"
        }
      ],
      "name": "TechLogUpdate",
      "type": "event"
    },
    {
      "anonymous": false,
      "inputs": [
        {
          "indexed": false,
          "internalType": "uint256",
          "name": "no1s1Balance",
          "type": "uint256"
        },
        {
          "indexed": false,
          "internalType": "uint256",
          "name": "escrowBalance",
          "type": "uint256"
        },
        {
          "indexed": false,
          "internalType": "uint256",
          "name": "userCounter",
          "type": "uint256"
        },
        {
          "indexed": false,
          "internalType": "uint256",
          "name": "durationCounter",
          "type": "uint256"
        },
        {
          "indexed": false,
          "internalType": "uint256",
          "name": "logTime",
          "type": "uint256"
        }
      ],
      "name": "UsageLogUpdate",
      "type": "event"
    },
    {
      "anonymous": false,
      "inputs": [
        {
          "indexed": false,
          "internalType": "uint256",
          "name": "allowedTime",
          "type": "uint256"
        }
      ],
      "name": "accessSuceeded",
      "type": "event"
    },
    {
      "anonymous": false,
      "inputs": [
        {
          "indexed": false,
          "internalType": "uint256",
          "name": "totalMeditationTime",
          "type": "uint256"
        }
      ],
      "name": "exitSuccessful",
      "type": "event"
    },
    {
      "anonymous": false,
      "inputs": [
        {
          "indexed": false,
          "internalType": "bytes32",
          "name": "qrCode",
          "type": "bytes32"
        }
      ],
      "name": "newQRcode",
      "type": "event"
    },
    {
      "anonymous": false,
      "inputs": [
        {
          "indexed": false,
          "internalType": "uint256",
          "name": "price",
          "type": "uint256"
        },
        {
          "indexed": false,
          "internalType": "uint256",
          "name": "amountReturned",
          "type": "uint256"
        }
      ],
      "name": "refundSuccessful",
      "type": "event"
    },
    {
      "anonymous": false,
      "inputs": [
        {
          "indexed": false,
          "internalType": "bool",
          "name": "userActive",
          "type": "bool"
        }
      ],
      "name": "userActive",
      "type": "event"
    },
    {
      "stateMutability": "payable",
      "type": "fallback"
    },
    {
      "inputs": [
        {
          "internalType": "uint256",
          "name": "",
          "type": "uint256"
        }
      ],
      "name": "no1s1TechLogs",
      "outputs": [
        {
          "internalType": "uint256",
          "name": "batteryCurrency",
          "type": "uint256"
        },
        {
          "internalType": "uint256",
          "name": "batteryVoltage",
          "type": "uint256"
        },
        {
          "internalType": "uint256",
          "name": "batteryChargeState",
          "type": "uint256"
        },
        {
          "internalType": "uint256",
          "name": "pvVoltage",
          "type": "uint256"
        },
        {
          "internalType": "uint256",
          "name": "systemPower",
          "type": "uint256"
        },
        {
          "internalType": "uint256",
          "name": "time",
          "type": "uint256"
        }
      ],
      "stateMutability": "view",
      "type": "function"
    },
    {
      "inputs": [
        {
          "internalType": "uint256",
          "name": "",
          "type": "uint256"
        }
      ],
      "name": "no1s1UsageLogs",
      "outputs": [
        {
          "internalType": "uint256",
          "name": "totalBalance",
          "type": "uint256"
        },
        {
          "internalType": "uint256",
          "name": "totalEscrow",
          "type": "uint256"
        },
        {
          "internalType": "uint256",
          "name": "totalUsers",
          "type": "uint256"
        },
        {
          "internalType": "uint256",
          "name": "totalDuration",
          "type": "uint256"
        },
        {
          "internalType": "uint256",
          "name": "time",
          "type": "uint256"
        }
      ],
      "stateMutability": "view",
      "type": "function"
    },
    {
      "inputs": [],
      "name": "isOperational",
      "outputs": [
        {
          "internalType": "bool",
          "name": "",
          "type": "bool"
        }
      ],
      "stateMutability": "view",
      "type": "function"
    },
    {
      "inputs": [
        {
          "internalType": "bool",
          "name": "mode",
          "type": "bool"
        }
      ],
      "name": "setOperatingStatus",
      "outputs": [],
      "stateMutability": "nonpayable",
      "type": "function"
    },
    {
      "inputs": [
        {
          "internalType": "address",
          "name": "appContract",
          "type": "address"
        }
      ],
      "name": "authorizeContract",
      "outputs": [
        {
          "internalType": "bool",
          "name": "",
          "type": "bool"
        }
      ],
      "stateMutability": "nonpayable",
      "type": "function"
    },
    {
      "inputs": [
        {
          "internalType": "address",
          "name": "appContract",
          "type": "address"
        }
      ],
      "name": "deAuthorizeContract",
      "outputs": [
        {
          "internalType": "bool",
          "name": "",
          "type": "bool"
        }
      ],
      "stateMutability": "nonpayable",
      "type": "function"
    },
    {
      "inputs": [
        {
          "internalType": "bool",
          "name": "mode",
          "type": "bool"
        }
      ],
      "name": "setAccessabilityStatus",
      "outputs": [],
      "stateMutability": "nonpayable",
      "type": "function"
    },
    {
      "inputs": [
        {
          "internalType": "bool",
          "name": "mode",
          "type": "bool"
        }
      ],
      "name": "setOccupationStatus",
      "outputs": [],
      "stateMutability": "nonpayable",
      "type": "function"
    },
    {
      "inputs": [
        {
          "internalType": "uint256",
          "name": "_Bcurrent",
          "type": "uint256"
        },
        {
          "internalType": "uint256",
          "name": "_Bvoltage",
          "type": "uint256"
        },
        {
          "internalType": "uint256",
          "name": "_BSOC",
          "type": "uint256"
        },
        {
          "internalType": "uint256",
          "name": "_Pvoltage",
          "type": "uint256"
        },
        {
          "internalType": "uint256",
          "name": "_Senergy",
          "type": "uint256"
        },
        {
          "internalType": "uint256",
          "name": "_Time",
          "type": "uint256"
        },
        {
          "internalType": "uint256",
          "name": "FULL_VALUE",
          "type": "uint256"
        },
        {
          "internalType": "uint256",
          "name": "GOOD_VALUE",
          "type": "uint256"
        },
        {
          "internalType": "uint256",
          "name": "LOW_VALUE",
          "type": "uint256"
        }
      ],
      "name": "broadcastData",
      "outputs": [],
      "stateMutability": "nonpayable",
      "type": "function"
    },
    {
      "inputs": [
        {
          "internalType": "uint256",
          "name": "_Time",
          "type": "uint256"
        }
      ],
      "name": "no1s1InfoLog",
      "outputs": [],
      "stateMutability": "nonpayable",
      "type": "function"
    },
    {
      "inputs": [
        {
          "internalType": "uint256",
          "name": "_selectedDuration",
          "type": "uint256"
        },
        {
          "internalType": "address",
          "name": "txSender",
          "type": "address"
        },
        {
          "internalType": "string",
          "name": "_username",
          "type": "string"
        },
        {
          "internalType": "uint256",
          "name": "ESCROW_AMOUNT",
          "type": "uint256"
        },
        {
          "internalType": "uint256",
          "name": "MAX_DURATION",
          "type": "uint256"
        },
        {
          "internalType": "uint256",
          "name": "GOOD_DURATION",
          "type": "uint256"
        },
        {
          "internalType": "uint256",
          "name": "LOW_DURATION",
          "type": "uint256"
        }
      ],
      "name": "buy",
      "outputs": [],
      "stateMutability": "payable",
      "type": "function"
    },
    {
      "inputs": [
        {
          "internalType": "bytes32",
          "name": "_key",
          "type": "bytes32"
        },
        {
          "internalType": "uint256",
          "name": "GOOD_DURATION",
          "type": "uint256"
        },
        {
          "internalType": "uint256",
          "name": "LOW_DURATION",
          "type": "uint256"
        }
      ],
      "name": "checkAccess",
      "outputs": [],
      "stateMutability": "nonpayable",
      "type": "function"
    },
    {
      "inputs": [
        {
          "internalType": "bool",
          "name": "_pressureDetected",
          "type": "bool"
        },
        {
          "internalType": "bytes32",
          "name": "_key",
          "type": "bytes32"
        }
      ],
      "name": "checkActivity",
      "outputs": [],
      "stateMutability": "nonpayable",
      "type": "function"
    },
    {
      "inputs": [
        {
          "internalType": "bool",
          "name": "_doorOpened",
          "type": "bool"
        },
        {
          "internalType": "uint256",
          "name": "_actualDuration",
          "type": "uint256"
        },
        {
          "internalType": "bytes32",
          "name": "_key",
          "type": "bytes32"
        }
      ],
      "name": "exit",
      "outputs": [],
      "stateMutability": "nonpayable",
      "type": "function"
    },
    {
      "inputs": [
        {
          "internalType": "address",
          "name": "_sender",
          "type": "address"
        },
        {
          "internalType": "string",
          "name": "_username",
          "type": "string"
        },
        {
          "internalType": "uint256",
          "name": "MEDITATION_PRICE",
          "type": "uint256"
        }
      ],
      "name": "refundEscrow",
      "outputs": [],
      "stateMutability": "nonpayable",
      "type": "function"
    },
    {
      "inputs": [],
      "name": "howAmI",
      "outputs": [
        {
          "internalType": "bool",
          "name": "accessability",
          "type": "bool"
        },
        {
          "internalType": "bool",
          "name": "occupation",
          "type": "bool"
        },
        {
          "internalType": "uint256",
          "name": "batteryState",
          "type": "uint256"
        },
        {
          "internalType": "uint256",
          "name": "totalUsers",
          "type": "uint256"
        },
        {
          "internalType": "uint256",
          "name": "totalDuration",
          "type": "uint256"
        },
        {
          "internalType": "uint256",
          "name": "myBalance",
          "type": "uint256"
        }
      ],
      "stateMutability": "view",
      "type": "function"
    },
    {
      "inputs": [],
      "name": "whoAmI",
      "outputs": [
        {
          "internalType": "address",
          "name": "no1s1Address",
          "type": "address"
        }
      ],
      "stateMutability": "view",
      "type": "function"
    },
    {
      "inputs": [],
      "name": "howRichAmI",
      "outputs": [
        {
          "internalType": "uint256",
          "name": "no1s1Balance",
          "type": "uint256"
        }
      ],
      "stateMutability": "view",
      "type": "function"
    },
    {
      "inputs": [],
      "name": "getUsageLog",
      "outputs": [
        {
          "internalType": "uint256[]",
          "name": "users",
          "type": "uint256[]"
        },
        {
          "internalType": "uint256[]",
          "name": "balances",
          "type": "uint256[]"
        },
        {
          "internalType": "uint256[]",
          "name": "durations",
          "type": "uint256[]"
        }
      ],
      "stateMutability": "view",
      "type": "function"
    },
    {
      "inputs": [
        {
          "internalType": "uint256",
          "name": "MEDITATION_PRICE",
          "type": "uint256"
        },
        {
          "internalType": "uint256",
          "name": "FULL_DURATION",
          "type": "uint256"
        },
        {
          "internalType": "uint256",
          "name": "GOOD_DURATION",
          "type": "uint256"
        },
        {
          "internalType": "uint256",
          "name": "LOW_DURATION",
          "type": "uint256"
        }
      ],
      "name": "checkBuyStatus",
      "outputs": [
        {
          "internalType": "uint256",
          "name": "batteryState",
          "type": "uint256"
        },
        {
          "internalType": "uint256",
          "name": "availableMinutes",
          "type": "uint256"
        },
        {
          "internalType": "uint256",
          "name": "costPerMinute",
          "type": "uint256"
        },
        {
          "internalType": "uint256",
          "name": "lastUpdate",
          "type": "uint256"
        }
      ],
      "stateMutability": "view",
      "type": "function"
    },
    {
      "inputs": [],
      "name": "checkLastTechLogs",
      "outputs": [
        {
          "internalType": "uint256",
          "name": "pvVoltage",
          "type": "uint256"
        },
        {
          "internalType": "uint256",
          "name": "systemPower",
          "type": "uint256"
        },
        {
          "internalType": "uint256",
          "name": "batteryChargeState",
          "type": "uint256"
        },
        {
          "internalType": "uint256",
          "name": "batteryCurrency",
          "type": "uint256"
        },
        {
          "internalType": "uint256",
          "name": "batteryVoltage",
          "type": "uint256"
        }
      ],
      "stateMutability": "view",
      "type": "function"
    },
    {
      "inputs": [
        {
          "internalType": "bytes32",
          "name": "_key",
          "type": "bytes32"
        }
      ],
      "name": "checkUserKey",
      "outputs": [
        {
          "internalType": "uint256",
          "name": "meditationDuration",
          "type": "uint256"
        },
        {
          "internalType": "bool",
          "name": "accessed",
          "type": "bool"
        },
        {
          "internalType": "uint256",
          "name": "actualDuration",
          "type": "uint256"
        },
        {
          "internalType": "bool",
          "name": "left",
          "type": "bool"
        },
        {
          "internalType": "uint256",
          "name": "escrow",
          "type": "uint256"
        }
      ],
      "stateMutability": "view",
      "type": "function"
    },
    {
      "inputs": [
        {
          "internalType": "address",
          "name": "_sender",
          "type": "address"
        },
        {
          "internalType": "string",
          "name": "_username",
          "type": "string"
        }
      ],
      "name": "checkUserName",
      "outputs": [
        {
          "internalType": "bytes32",
          "name": "qrCode",
          "type": "bytes32"
        },
        {
          "internalType": "uint256",
          "name": "meditationDuration",
          "type": "uint256"
        },
        {
          "internalType": "bool",
          "name": "accessed",
          "type": "bool"
        },
        {
          "internalType": "uint256",
          "name": "actualDuration",
          "type": "uint256"
        },
        {
          "internalType": "bool",
          "name": "left",
          "type": "bool"
        },
        {
          "internalType": "uint256",
          "name": "escrow",
          "type": "uint256"
        }
      ],
      "stateMutability": "view",
      "type": "function"
    }
  ],
  "bytecode": "0x60806040526001600060146101000a81548160ff02191690831515021790555034801561002b57600080fd5b50336000806101000a81548173ffffffffffffffffffffffffffffffffffffffff021916908373ffffffffffffffffffffffffffffffffffffffff1602179055506001600060156101000a81548160ff0219169083151502179055506001600060166101000a81548160ff02191690831515021790555060008060176101000a81548160ff021916908360038111156100ed577f4e487b7100000000000000000000000000000000000000000000000000000000600052602160045260246000fd5b021790555060006001819055506000600281905550614bf880620001126000396000f3fe6080604052600436106101445760003560e01c80638c9b2830116100b6578063ac6d61291161006f578063ac6d612914610555578063ba67b94514610582578063c78efcf3146105b2578063cd905dff146105db578063da91254c14610606578063f57ba4af1461063157610145565b80638c9b28301461043f57806390362bf61461045b578063a1a5faf114610484578063a26e140c146104c1578063a49b183d14610503578063a5e5b6a11461052c57610145565b80633dfb6eda116101085780633dfb6eda146103005780634aaddc84146103415780634c6374cd1461036a5780635ceef388146103aa57806367561d93146103d95780637cdfacdb1461041657610145565b806303be086c14610218578063110466ed1461025a57806324e55582146102835780632726a1b5146102ac578063312fbf56146102d757610145565b5b6001600660003373ffffffffffffffffffffffffffffffffffffffff1673ffffffffffffffffffffffffffffffffffffffff16815260200190815260200160002054146101c7576040517f08c379a00000000000000000000000000000000000000000000000000000000081526004016101be90614673565b60405180910390fd5b600060149054906101000a900460ff16610216576040517f08c379a000000000000000000000000000000000000000000000000000000000815260040161020d906146b3565b60405180910390fd5b005b34801561022457600080fd5b5061023f600480360381019061023a9190613aed565b610672565b604051610251969594939291906148c2565b60405180910390f35b34801561026657600080fd5b50610281600480360381019061027c91906139c1565b6106be565b005b34801561028f57600080fd5b506102aa60048036038101906102a591906139ea565b610769565b005b3480156102b857600080fd5b506102c1610a5b565b6040516102ce9190614793565b60405180910390f35b3480156102e357600080fd5b506102fe60048036038101906102f99190613955565b610a77565b005b34801561030c57600080fd5b5061032760048036038101906103229190613aed565b610eae565b60405161033895949392919061486f565b60405180910390f35b34801561034d57600080fd5b5061036860048036038101906103639190613aed565b610ef4565b005b34801561037657600080fd5b50610391600480360381019061038c9190613bd0565b611099565b6040516103a1949392919061482a565b60405180910390f35b3480156103b657600080fd5b506103bf6111aa565b6040516103d095949392919061486f565b60405180910390f35b3480156103e557600080fd5b5061040060048036038101906103fb91906138d4565b6113b1565b60405161040d919061449b565b60405180910390f35b34801561042257600080fd5b5061043d60048036038101906104389190613a9e565b611514565b005b61045960048036038101906104549190613b16565b611b53565b005b34801561046757600080fd5b50610482600480360381019061047d91906139c1565b6122e5565b005b34801561049057600080fd5b506104ab60048036038101906104a691906138d4565b6123d3565b6040516104b8919061449b565b60405180910390f35b3480156104cd57600080fd5b506104e860048036038101906104e391906138fd565b612534565b6040516104fa96959493929190614532565b60405180910390f35b34801561050f57600080fd5b5061052a60048036038101906105259190613a26565b612613565b005b34801561053857600080fd5b50610553600480360381019061054e9190613c33565b6128e0565b005b34801561056157600080fd5b5061056a612bfd565b6040516105799392919061444f565b60405180910390f35b34801561058e57600080fd5b506105976135a5565b6040516105a9969594939291906144b6565b60405180910390f35b3480156105be57600080fd5b506105d960048036038101906105d491906139c1565b613640565b005b3480156105e757600080fd5b506105f061372e565b6040516105fd919061449b565b60405180910390f35b34801561061257600080fd5b5061061b613744565b6040516106289190614434565b60405180910390f35b34801561063d57600080fd5b5061065860048036038101906106539190613a75565b61374c565b6040516106699594939291906147ae565b60405180910390f35b6004818154811061068257600080fd5b90600052602060002090600602016000915090508060000154908060010154908060020154908060030154908060040154908060050154905086565b60008054906101000a900473ffffffffffffffffffffffffffffffffffffffff1673ffffffffffffffffffffffffffffffffffffffff163373ffffffffffffffffffffffffffffffffffffffff161461074c576040517f08c379a0000000000000000000000000000000000000000000000000000000008152600401610743906146d3565b60405180910390fd5b80600060146101000a81548160ff02191690831515021790555050565b6001600660003373ffffffffffffffffffffffffffffffffffffffff1673ffffffffffffffffffffffffffffffffffffffff16815260200190815260200160002054146107eb576040517f08c379a00000000000000000000000000000000000000000000000000000000081526004016107e290614673565b60405180910390fd5b600060149054906101000a900460ff1661083a576040517f08c379a0000000000000000000000000000000000000000000000000000000008152600401610831906146b3565b60405180910390fd5b60001515600060169054906101000a900460ff16151514610890576040517f08c379a0000000000000000000000000000000000000000000000000000000008152600401610887906146f3565b60405180910390fd5b600015156007600083815260200190815260200160002060010160009054906101000a900460ff161515146108fa576040517f08c379a00000000000000000000000000000000000000000000000000000000081526004016108f1906145d3565b60405180910390fd5b600115158215151415610a03576000600760008381526020019081526020016000206004015490506040518060a00160405280600081526020016001151581526020016000815260200160001515815260200182815250600760008481526020019081526020016000206000820151816000015560208201518160010160006101000a81548160ff0219169083151502179055506040820151816002015560608201518160030160006101000a81548160ff021916908315150217905550608082015181600401559050507f03ce146b08f897b70a0e7607fdf8b379f7d40e6694ad85b5c1d25fedc2de100f60016040516109f5919061449b565b60405180910390a150610a57565b6001600060166101000a81548160ff0219169083151502179055507f03ce146b08f897b70a0e7607fdf8b379f7d40e6694ad85b5c1d25fedc2de100f6000604051610a4e919061449b565b60405180910390a15b5050565b6000610a72600354476137f490919063ffffffff16565b905090565b6001600660003373ffffffffffffffffffffffffffffffffffffffff1673ffffffffffffffffffffffffffffffffffffffff1681526020019081526020016000205414610af9576040517f08c379a0000000000000000000000000000000000000000000000000000000008152600401610af090614673565b60405180910390fd5b600060149054906101000a900460ff16610b48576040517f08c379a0000000000000000000000000000000000000000000000000000000008152600401610b3f906146b3565b60405180910390fd5b6000848484604051602001610b5f9392919061440a565b604051602081830303815290604052805190602001209050600115156007600083815260200190815260200160002060010160009054906101000a900460ff16151514610be1576040517f08c379a0000000000000000000000000000000000000000000000000000000008152600401610bd8906145f3565b60405180910390fd5b600115156007600083815260200190815260200160002060030160009054906101000a900460ff16151514610c4b576040517f08c379a0000000000000000000000000000000000000000000000000000000008152600401610c4290614733565b60405180910390fd5b6000600760008381526020019081526020016000206002015490506000610c7b848361380a90919063ffffffff16565b9050600060076000858152602001908152602001600020600401549050610cad816003546137f490919063ffffffff16565b6003819055506000610cc883836137f490919063ffffffff16565b9050828211610d7e576040518060a0016040528060008152602001600015158152602001600081526020016000151581526020016000815250600760008781526020019081526020016000206000820151816000015560208201518160010160006101000a81548160ff0219169083151502179055506040820151816002015560608201518160030160006101000a81548160ff0219169083151502179055506080820151816004015590505060009050610e6a565b6040518060a0016040528060008152602001600015158152602001600081526020016000151581526020016000815250600760008781526020019081526020016000206000820151816000015560208201518160010160006101000a81548160ff0219169083151502179055506040820151816002015560608201518160030160006101000a81548160ff021916908315150217905550608082015181600401559050508873ffffffffffffffffffffffffffffffffffffffff166108fc829081150290604051600060405180830381858888f19350505050158015610e68573d6000803e3d6000fd5b505b7f963a0bb4af5881750826d32a622d41dd33def21860378b8f90b1a390ff7aefb48382604051610e9b929190614801565b60405180910390a1505050505050505050565b60058181548110610ebe57600080fd5b90600052602060002090600502016000915090508060000154908060010154908060020154908060030154908060040154905085565b6001600660003373ffffffffffffffffffffffffffffffffffffffff1673ffffffffffffffffffffffffffffffffffffffff1681526020019081526020016000205414610f76576040517f08c379a0000000000000000000000000000000000000000000000000000000008152600401610f6d90614673565b60405180910390fd5b600060149054906101000a900460ff16610fc5576040517f08c379a0000000000000000000000000000000000000000000000000000000008152600401610fbc906146b3565b60405180910390fd5b60056040518060a00160405280478152602001600354815260200160015481526020016002548152602001838152509080600181540180825580915050600190039060005260206000209060050201600090919091909150600082015181600001556020820151816001015560408201518160020155606082015181600301556080820151816004015550507fd1f3293a6962fb149a777f022e69fcf910f4a94b34211a78271010ec05107438476003546001546002548560405161108e95949392919061486f565b60405180910390a150565b60008060008060008060179054906101000a900460ff1660038111156110e8577f4e487b7100000000000000000000000000000000000000000000000000000000600052602160045260246000fd5b90506000600460016004805490506111009190614a28565b81548110611137577f4e487b7100000000000000000000000000000000000000000000000000000000600052603260045260246000fd5b906000526020600020906006020160050154905060008083141561115d57899050611190565b600183141561116e5788905061118f565b600283141561117f5787905061118e565b600383141561118d57600090505b5b5b5b82818c849650965096509650505050945094509450949050565b600080600080600080600460016004805490506111c79190614a28565b815481106111fe577f4e487b7100000000000000000000000000000000000000000000000000000000600052603260045260246000fd5b90600052602060002090600602016003015490506000600460016004805490506112289190614a28565b8154811061125f577f4e487b7100000000000000000000000000000000000000000000000000000000600052603260045260246000fd5b90600052602060002090600602016004015490506000600460016004805490506112899190614a28565b815481106112c0577f4e487b7100000000000000000000000000000000000000000000000000000000600052603260045260246000fd5b90600052602060002090600602016002015490506000600460016004805490506112ea9190614a28565b81548110611321577f4e487b7100000000000000000000000000000000000000000000000000000000600052603260045260246000fd5b906000526020600020906006020160000154905060006004600160048054905061134b9190614a28565b81548110611382577f4e487b7100000000000000000000000000000000000000000000000000000000600052603260045260246000fd5b906000526020600020906006020160010154905084848484849950995099509950995050505050509091929394565b60008060149054906101000a900460ff16611401576040517f08c379a00000000000000000000000000000000000000000000000000000000081526004016113f8906146b3565b60405180910390fd5b60008054906101000a900473ffffffffffffffffffffffffffffffffffffffff1673ffffffffffffffffffffffffffffffffffffffff163373ffffffffffffffffffffffffffffffffffffffff161461148f576040517f08c379a0000000000000000000000000000000000000000000000000000000008152600401611486906146d3565b60405180910390fd5b6001600660008473ffffffffffffffffffffffffffffffffffffffff1673ffffffffffffffffffffffffffffffffffffffff168152602001908152602001600020819055507f2c74592fddad593c2c4403101ce9b30930711ab87571268ddd1e1989ee1d7917826040516115039190614434565b60405180910390a160019050919050565b6001600660003373ffffffffffffffffffffffffffffffffffffffff1673ffffffffffffffffffffffffffffffffffffffff1681526020019081526020016000205414611596576040517f08c379a000000000000000000000000000000000000000000000000000000000815260040161158d90614673565b60405180910390fd5b600060149054906101000a900460ff166115e5576040517f08c379a00000000000000000000000000000000000000000000000000000000081526004016115dc906146b3565b60405180910390fd5b60011515600060159054906101000a900460ff1615151461163b576040517f08c379a000000000000000000000000000000000000000000000000000000000815260040161163290614633565b60405180910390fd5b60011515600060169054906101000a900460ff16151514611691576040517f08c379a000000000000000000000000000000000000000000000000000000000815260040161168890614713565b60405180910390fd5b60006007600085815260200190815260200160002060000154905060008114611b125782811061178257600060038111156116f5577f4e487b7100000000000000000000000000000000000000000000000000000000600052602160045260246000fd5b600060179054906101000a900460ff16600381111561173d577f4e487b7100000000000000000000000000000000000000000000000000000000600052602160045260246000fd5b1461177d576040517f08c379a000000000000000000000000000000000000000000000000000000000815260040161177490614773565b60405180910390fd5b611abc565b8181106118da57600160038111156117c3577f4e487b7100000000000000000000000000000000000000000000000000000000600052602160045260246000fd5b600060179054906101000a900460ff16600381111561180b577f4e487b7100000000000000000000000000000000000000000000000000000000600052602160045260246000fd5b148061189657506000600381111561184c577f4e487b7100000000000000000000000000000000000000000000000000000000600052602160045260246000fd5b600060179054906101000a900460ff166003811115611894577f4e487b7100000000000000000000000000000000000000000000000000000000600052602160045260246000fd5b145b6118d5576040517f08c379a00000000000000000000000000000000000000000000000000000000081526004016118cc90614773565b60405180910390fd5b611abb565b6000811115611aba576002600381111561191d577f4e487b7100000000000000000000000000000000000000000000000000000000600052602160045260246000fd5b600060179054906101000a900460ff166003811115611965577f4e487b7100000000000000000000000000000000000000000000000000000000600052602160045260246000fd5b14806119f05750600160038111156119a6577f4e487b7100000000000000000000000000000000000000000000000000000000600052602160045260246000fd5b600060179054906101000a900460ff1660038111156119ee577f4e487b7100000000000000000000000000000000000000000000000000000000600052602160045260246000fd5b145b80611a7a575060006003811115611a30577f4e487b7100000000000000000000000000000000000000000000000000000000600052602160045260246000fd5b600060179054906101000a900460ff166003811115611a78577f4e487b7100000000000000000000000000000000000000000000000000000000600052602160045260246000fd5b145b611ab9576040517f08c379a0000000000000000000000000000000000000000000000000000000008152600401611ab090614773565b60405180910390fd5b5b5b5b60008060166101000a81548160ff0219169083151502179055507fa3bf8121ce5c21030aa234223d48c7c5c3f59de5f7b7d0de7545b3868b4c0a3581604051611b059190614793565b60405180910390a1611b4d565b6040517f08c379a0000000000000000000000000000000000000000000000000000000008152600401611b4490614653565b60405180910390fd5b50505050565b6001600660003373ffffffffffffffffffffffffffffffffffffffff1673ffffffffffffffffffffffffffffffffffffffff1681526020019081526020016000205414611bd5576040517f08c379a0000000000000000000000000000000000000000000000000000000008152600401611bcc90614673565b60405180910390fd5b600060149054906101000a900460ff16611c24576040517f08c379a0000000000000000000000000000000000000000000000000000000008152600401611c1b906146b3565b60405180910390fd5b60011515600060159054906101000a900460ff16151514611c7a576040517f08c379a0000000000000000000000000000000000000000000000000000000008152600401611c7190614633565b60405180910390fd5b60011515600060169054906101000a900460ff16151514611cd0576040517f08c379a0000000000000000000000000000000000000000000000000000000008152600401611cc790614713565b60405180910390fd5b82881115611d13576040517f08c379a0000000000000000000000000000000000000000000000000000000008152600401611d0a90614613565b60405180910390fd5b83341015611d56576040517f08c379a0000000000000000000000000000000000000000000000000000000008152600401611d4d90614593565b60405180910390fd5b818810611e245760006003811115611d97577f4e487b7100000000000000000000000000000000000000000000000000000000600052602160045260246000fd5b600060179054906101000a900460ff166003811115611ddf577f4e487b7100000000000000000000000000000000000000000000000000000000600052602160045260246000fd5b14611e1f576040517f08c379a0000000000000000000000000000000000000000000000000000000008152600401611e1690614773565b60405180910390fd5b61215e565b808810611f7c5760016003811115611e65577f4e487b7100000000000000000000000000000000000000000000000000000000600052602160045260246000fd5b600060179054906101000a900460ff166003811115611ead577f4e487b7100000000000000000000000000000000000000000000000000000000600052602160045260246000fd5b1480611f38575060006003811115611eee577f4e487b7100000000000000000000000000000000000000000000000000000000600052602160045260246000fd5b600060179054906101000a900460ff166003811115611f36577f4e487b7100000000000000000000000000000000000000000000000000000000600052602160045260246000fd5b145b611f77576040517f08c379a0000000000000000000000000000000000000000000000000000000008152600401611f6e90614773565b60405180910390fd5b61215d565b600088111561215c5760026003811115611fbf577f4e487b7100000000000000000000000000000000000000000000000000000000600052602160045260246000fd5b600060179054906101000a900460ff166003811115612007577f4e487b7100000000000000000000000000000000000000000000000000000000600052602160045260246000fd5b1480612092575060016003811115612048577f4e487b7100000000000000000000000000000000000000000000000000000000600052602160045260246000fd5b600060179054906101000a900460ff166003811115612090577f4e487b7100000000000000000000000000000000000000000000000000000000600052602160045260246000fd5b145b8061211c5750600060038111156120d2577f4e487b7100000000000000000000000000000000000000000000000000000000600052602160045260246000fd5b600060179054906101000a900460ff16600381111561211a577f4e487b7100000000000000000000000000000000000000000000000000000000600052602160045260246000fd5b145b61215b576040517f08c379a000000000000000000000000000000000000000000000000000000000815260040161215290614773565b60405180910390fd5b5b5b5b60008787876040516020016121759392919061440a565b60405160208183030381529060405280519060200120905060006007600083815260200190815260200160002060000154146121e6576040517f08c379a00000000000000000000000000000000000000000000000000000000081526004016121dd90614753565b60405180910390fd5b6040518060a001604052808a81526020016000151581526020016000815260200160001515815260200134815250600760008381526020019081526020016000206000820151816000015560208201518160010160006101000a81548160ff0219169083151502179055506040820151816002015560608201518160030160006101000a81548160ff0219169083151502179055506080820151816004015590505061229d3460035461382090919063ffffffff16565b6003819055507f2ac93a0a8f7c43b4d4e591a966c8d25c7a660a6fb10f7ccbb43b3718528049ac816040516122d29190614517565b60405180910390a1505050505050505050565b6001600660003373ffffffffffffffffffffffffffffffffffffffff1673ffffffffffffffffffffffffffffffffffffffff1681526020019081526020016000205414612367576040517f08c379a000000000000000000000000000000000000000000000000000000000815260040161235e90614673565b60405180910390fd5b600060149054906101000a900460ff166123b6576040517f08c379a00000000000000000000000000000000000000000000000000000000081526004016123ad906146b3565b60405180910390fd5b80600060166101000a81548160ff02191690831515021790555050565b60008060149054906101000a900460ff16612423576040517f08c379a000000000000000000000000000000000000000000000000000000000815260040161241a906146b3565b60405180910390fd5b60008054906101000a900473ffffffffffffffffffffffffffffffffffffffff1673ffffffffffffffffffffffffffffffffffffffff163373ffffffffffffffffffffffffffffffffffffffff16146124b1576040517f08c379a00000000000000000000000000000000000000000000000000000000081526004016124a8906146d3565b60405180910390fd5b600660008373ffffffffffffffffffffffffffffffffffffffff1673ffffffffffffffffffffffffffffffffffffffff168152602001908152602001600020600090557fd5cf915bcf19ee4a2edf05f0add6e4520e02eda58f4b4a99387be2a7ae79cefb826040516125239190614434565b60405180910390a160019050919050565b60008060008060008060008989896040516020016125549392919061440a565b6040516020818303038152906040528051906020012090508060076000838152602001908152602001600020600001546007600084815260200190815260200160002060010160009054906101000a900460ff1660076000858152602001908152602001600020600201546007600086815260200190815260200160002060030160009054906101000a900460ff1660076000878152602001908152602001600020600401549650965096509650965096505093975093979195509350565b6001600660003373ffffffffffffffffffffffffffffffffffffffff1673ffffffffffffffffffffffffffffffffffffffff1681526020019081526020016000205414612695576040517f08c379a000000000000000000000000000000000000000000000000000000000815260040161268c90614673565b60405180910390fd5b600060149054906101000a900460ff166126e4576040517f08c379a00000000000000000000000000000000000000000000000000000000081526004016126db906146b3565b60405180910390fd5b600115156007600083815260200190815260200160002060010160009054906101000a900460ff1615151461274e576040517f08c379a000000000000000000000000000000000000000000000000000000000815260040161274590614693565b60405180910390fd5b6001151583151514612795576040517f08c379a000000000000000000000000000000000000000000000000000000000815260040161278c906145b3565b60405180910390fd5b6001600060166101000a81548160ff0219169083151502179055506127c56001805461382090919063ffffffff16565b6001819055506127e08260025461382090919063ffffffff16565b6002819055506000600760008381526020019081526020016000206004015490506040518060a001604052806000815260200160011515815260200184815260200160011515815260200182815250600760008481526020019081526020016000206000820151816000015560208201518160010160006101000a81548160ff0219169083151502179055506040820151816002015560608201518160030160006101000a81548160ff021916908315150217905550608082015181600401559050507fed86f05f1959c92266eea2f2ebda4bb7b971cfddf54c699aad047a9615e94fbd836040516128d29190614793565b60405180910390a150505050565b6001600660003373ffffffffffffffffffffffffffffffffffffffff1673ffffffffffffffffffffffffffffffffffffffff1681526020019081526020016000205414612962576040517f08c379a000000000000000000000000000000000000000000000000000000000815260040161295990614673565b60405180910390fd5b600060149054906101000a900460ff166129b1576040517f08c379a00000000000000000000000000000000000000000000000000000000081526004016129a8906146b3565b60405180910390fd5b60046040518060c001604052808b81526020018a8152602001898152602001888152602001878152602001868152509080600181540180825580915050600190039060005260206000209060060201600090919091909150600082015181600001556020820151816001015560408201518160020155606082015181600301556080820151816004015560a082015181600501555050828710612aa35760008060176101000a81548160ff02191690836003811115612a99577f4e487b7100000000000000000000000000000000000000000000000000000000600052602160045260246000fd5b0217905550612bb1565b818710612b00576001600060176101000a81548160ff02191690836003811115612af6577f4e487b7100000000000000000000000000000000000000000000000000000000600052602160045260246000fd5b0217905550612bb0565b808710612b5d576002600060176101000a81548160ff02191690836003811115612b53577f4e487b7100000000000000000000000000000000000000000000000000000000600052602160045260246000fd5b0217905550612baf565b6003600060176101000a81548160ff02191690836003811115612ba9577f4e487b7100000000000000000000000000000000000000000000000000000000600052602160045260246000fd5b02179055505b5b5b7f45bf9ca0e22bcb75f5a432463020224e0572c051d06a286184913923b11041dd898989898989604051612bea969594939291906148c2565b60405180910390a1505050505050505050565b60608060606000600a905080600580549050106130c65760008167ffffffffffffffff811115612c56577f4e487b7100000000000000000000000000000000000000000000000000000000600052604160045260246000fd5b604051908082528060200260200182016040528015612c845781602001602082028036833780820191505090505b50905060008267ffffffffffffffff811115612cc9577f4e487b7100000000000000000000000000000000000000000000000000000000600052604160045260246000fd5b604051908082528060200260200182016040528015612cf75781602001602082028036833780820191505090505b50905060008367ffffffffffffffff811115612d3c577f4e487b7100000000000000000000000000000000000000000000000000000000600052604160045260246000fd5b604051908082528060200260200182016040528015612d6a5781602001602082028036833780820191505090505b50905060008467ffffffffffffffff811115612daf577f4e487b7100000000000000000000000000000000000000000000000000000000600052604160045260246000fd5b604051908082528060200260200182016040528015612ddd5781602001602082028036833780820191505090505b50905060005b858110156130b2576005816001600580549050612e009190614a28565b612e0a9190614a28565b81548110612e41577f4e487b7100000000000000000000000000000000000000000000000000000000600052603260045260246000fd5b906000526020600020906005020160020154858281518110612e8c577f4e487b7100000000000000000000000000000000000000000000000000000000600052603260045260246000fd5b6020026020010181815250506005816001600580549050612ead9190614a28565b612eb79190614a28565b81548110612eee577f4e487b7100000000000000000000000000000000000000000000000000000000600052603260045260246000fd5b906000526020600020906005020160000154848281518110612f39577f4e487b7100000000000000000000000000000000000000000000000000000000600052603260045260246000fd5b6020026020010181815250506005816001600580549050612f5a9190614a28565b612f649190614a28565b81548110612f9b577f4e487b7100000000000000000000000000000000000000000000000000000000600052603260045260246000fd5b906000526020600020906005020160010154838281518110612fe6577f4e487b7100000000000000000000000000000000000000000000000000000000600052603260045260246000fd5b60200260200101818152505060058160016005805490506130079190614a28565b6130119190614a28565b81548110613048577f4e487b7100000000000000000000000000000000000000000000000000000000600052603260045260246000fd5b906000526020600020906005020160030154828281518110613093577f4e487b7100000000000000000000000000000000000000000000000000000000600052603260045260246000fd5b60200260200101818152505080806130aa90614abd565b915050612de3565b5083838297509750975050505050506135a0565b80600580549050101561359e57600060058054905067ffffffffffffffff81111561311a577f4e487b7100000000000000000000000000000000000000000000000000000000600052604160045260246000fd5b6040519080825280602002602001820160405280156131485781602001602082028036833780820191505090505b509050600060058054905067ffffffffffffffff811115613192577f4e487b7100000000000000000000000000000000000000000000000000000000600052604160045260246000fd5b6040519080825280602002602001820160405280156131c05781602001602082028036833780820191505090505b509050600060058054905067ffffffffffffffff81111561320a577f4e487b7100000000000000000000000000000000000000000000000000000000600052604160045260246000fd5b6040519080825280602002602001820160405280156132385781602001602082028036833780820191505090505b509050600060058054905067ffffffffffffffff811115613282577f4e487b7100000000000000000000000000000000000000000000000000000000600052604160045260246000fd5b6040519080825280602002602001820160405280156132b05781602001602082028036833780820191505090505b50905060005b60058054905081101561358a5760058160016005805490506132d89190614a28565b6132e29190614a28565b81548110613319577f4e487b7100000000000000000000000000000000000000000000000000000000600052603260045260246000fd5b906000526020600020906005020160020154858281518110613364577f4e487b7100000000000000000000000000000000000000000000000000000000600052603260045260246000fd5b60200260200101818152505060058160016005805490506133859190614a28565b61338f9190614a28565b815481106133c6577f4e487b7100000000000000000000000000000000000000000000000000000000600052603260045260246000fd5b906000526020600020906005020160000154848281518110613411577f4e487b7100000000000000000000000000000000000000000000000000000000600052603260045260246000fd5b60200260200101818152505060058160016005805490506134329190614a28565b61343c9190614a28565b81548110613473577f4e487b7100000000000000000000000000000000000000000000000000000000600052603260045260246000fd5b9060005260206000209060050201600101548382815181106134be577f4e487b7100000000000000000000000000000000000000000000000000000000600052603260045260246000fd5b60200260200101818152505060058160016005805490506134df9190614a28565b6134e99190614a28565b81548110613520577f4e487b7100000000000000000000000000000000000000000000000000000000600052603260045260246000fd5b90600052602060002090600502016003015482828151811061356b577f4e487b7100000000000000000000000000000000000000000000000000000000600052603260045260246000fd5b602002602001018181525050808061358290614abd565b9150506132b6565b5083838297509750975050505050506135a0565b505b909192565b600080600080600080600060159054906101000a900460ff16955085600060169054906101000a900460ff16955085600060179054906101000a900460ff16600381111561361c577f4e487b7100000000000000000000000000000000000000000000000000000000600052602160045260246000fd5b95508560015495508560025495508547955095509550955095509550909192939495565b6001600660003373ffffffffffffffffffffffffffffffffffffffff1673ffffffffffffffffffffffffffffffffffffffff16815260200190815260200160002054146136c2576040517f08c379a00000000000000000000000000000000000000000000000000000000081526004016136b990614673565b60405180910390fd5b600060149054906101000a900460ff16613711576040517f08c379a0000000000000000000000000000000000000000000000000000000008152600401613708906146b3565b60405180910390fd5b80600060156101000a81548160ff02191690831515021790555050565b60008060149054906101000a900460ff16905090565b600030905090565b600080600080600060076000878152602001908152602001600020600001546007600088815260200190815260200160002060010160009054906101000a900460ff166007600089815260200190815260200160002060020154600760008a815260200190815260200160002060030160009054906101000a900460ff16600760008b8152602001908152602001600020600401549450945094509450945091939590929450565b600081836138029190614a28565b905092915050565b6000818361381891906149ce565b905092915050565b6000818361382e9190614978565b905092915050565b60008135905061384581614b66565b92915050565b60008135905061385a81614b7d565b92915050565b60008135905061386f81614b94565b92915050565b60008083601f84011261388757600080fd5b8235905067ffffffffffffffff8111156138a057600080fd5b6020830191508360018202830111156138b857600080fd5b9250929050565b6000813590506138ce81614bab565b92915050565b6000602082840312156138e657600080fd5b60006138f484828501613836565b91505092915050565b60008060006040848603121561391257600080fd5b600061392086828701613836565b935050602084013567ffffffffffffffff81111561393d57600080fd5b61394986828701613875565b92509250509250925092565b6000806000806060858703121561396b57600080fd5b600061397987828801613836565b945050602085013567ffffffffffffffff81111561399657600080fd5b6139a287828801613875565b935093505060406139b5878288016138bf565b91505092959194509250565b6000602082840312156139d357600080fd5b60006139e18482850161384b565b91505092915050565b600080604083850312156139fd57600080fd5b6000613a0b8582860161384b565b9250506020613a1c85828601613860565b9150509250929050565b600080600060608486031215613a3b57600080fd5b6000613a498682870161384b565b9350506020613a5a868287016138bf565b9250506040613a6b86828701613860565b9150509250925092565b600060208284031215613a8757600080fd5b6000613a9584828501613860565b91505092915050565b600080600060608486031215613ab357600080fd5b6000613ac186828701613860565b9350506020613ad2868287016138bf565b9250506040613ae3868287016138bf565b9150509250925092565b600060208284031215613aff57600080fd5b6000613b0d848285016138bf565b91505092915050565b60008060008060008060008060e0898b031215613b3257600080fd5b6000613b408b828c016138bf565b9850506020613b518b828c01613836565b975050604089013567ffffffffffffffff811115613b6e57600080fd5b613b7a8b828c01613875565b96509650506060613b8d8b828c016138bf565b9450506080613b9e8b828c016138bf565b93505060a0613baf8b828c016138bf565b92505060c0613bc08b828c016138bf565b9150509295985092959890939650565b60008060008060808587031215613be657600080fd5b6000613bf4878288016138bf565b9450506020613c05878288016138bf565b9350506040613c16878288016138bf565b9250506060613c27878288016138bf565b91505092959194509250565b60008060008060008060008060006101208a8c031215613c5257600080fd5b6000613c608c828d016138bf565b9950506020613c718c828d016138bf565b9850506040613c828c828d016138bf565b9750506060613c938c828d016138bf565b9650506080613ca48c828d016138bf565b95505060a0613cb58c828d016138bf565b94505060c0613cc68c828d016138bf565b93505060e0613cd78c828d016138bf565b925050610100613ce98c828d016138bf565b9150509295985092959850929598565b6000613d0583836143ec565b60208301905092915050565b613d1a81614a5c565b82525050565b613d31613d2c82614a5c565b614b06565b82525050565b6000613d4282614933565b613d4c818561494b565b9350613d5783614923565b8060005b83811015613d88578151613d6f8882613cf9565b9750613d7a8361493e565b925050600181019050613d5b565b5085935050505092915050565b613d9e81614a6e565b82525050565b613dad81614a7a565b82525050565b6000613dbf838561496d565b9350613dcc838584614aae565b82840190509392505050565b6000613de5601a8361495c565b91507f4e6f7420656e6f7567682045746865722070726f76696465642e0000000000006000830152602082019050919050565b6000613e2560248361495c565b91507f546865207573657220686173206e6f74206c656674207468652073706163652060008301527f79657421000000000000000000000000000000000000000000000000000000006020830152604082019050919050565b6000613e8b60278361495c565b91507f546865206163636573732068617320616c7265616479206265656e207265676960008301527f7374657265642e000000000000000000000000000000000000000000000000006020830152604082019050919050565b6000613ef160428361495c565b91507f596f752063616e6e6f742072656465656d20796f757220657363726f772c206260008301527f65636175736520796f752068617665206e6f74206d656469746174656420796560208301527f74210000000000000000000000000000000000000000000000000000000000006040830152606082019050919050565b6000613f7d60438361495c565b91507f596f752072657175657374206973206c6f6e676572207468616e20746865206d60008301527f6178696d756d20616c6c6f776564206d656469746174696f6e2064757261746960208301527f6f6e2e00000000000000000000000000000000000000000000000000000000006040830152606082019050919050565b6000614009601a8361495c565b91507f6e6f3173312069732063757272656e746c7920636c6f7365642e0000000000006000830152602082019050919050565b600061404960278361495c565b91507f4e6f206d656469746174696f6e2074696d6520626f7567687420666f7220746860008301527f6973206b65792e000000000000000000000000000000000000000000000000006020830152604082019050919050565b60006140af60188361495c565b91507f43616c6c6572206973206e6f7420617574686f72697a656400000000000000006000830152602082019050919050565b60006140ef601f8361495c565b91507f546865207573657220686173206e6f74206d65646974617465642079657421006000830152602082019050919050565b600061412f60258361495c565b91507f436f6e74726163742069732063757272656e746c79206e6f74206f706572617460008301527f696f6e616c0000000000000000000000000000000000000000000000000000006020830152604082019050919050565b6000614195601c8361495c565b91507f43616c6c6572206973206e6f7420636f6e7472616374206f776e6572000000006000830152602082019050919050565b60006141d560248361495c565b91507f416363657373206b657920686173206e6f74206265656e20636865636b65642060008301527f7965742e000000000000000000000000000000000000000000000000000000006020830152604082019050919050565b600061423b60248361495c565b91507f6e6f3173312069732063757272656e746c7920616c7265616479206f6363757060008301527f6965642e000000000000000000000000000000000000000000000000000000006020830152604082019050919050565b60006142a160478361495c565b91507f596f752063616e6e6f742072656465656d20796f757220657363726f772c206260008301527f65636175736520796f752068617665206e6f74206c656674207468652073706160208301527f63652079657421000000000000000000000000000000000000000000000000006040830152606082019050919050565b600061432d602d8361495c565b91507f596f7520616c726561647920626f75676874206d656469746174696f6e20746960008301527f6d6520666f72206e6f3173312e000000000000000000000000000000000000006020830152604082019050919050565b600061439360398361495c565b91507f6e6f3173312062617474657279206c6576656c206e6f7420737566666963696560008301527f6e7420666f722073656c6563746564206475726174696f6e2e000000000000006020830152604082019050919050565b6143f581614aa4565b82525050565b61440481614aa4565b82525050565b60006144168286613d20565b601482019150614427828486613db3565b9150819050949350505050565b60006020820190506144496000830184613d11565b92915050565b600060608201905081810360008301526144698186613d37565b9050818103602083015261447d8185613d37565b905081810360408301526144918184613d37565b9050949350505050565b60006020820190506144b06000830184613d95565b92915050565b600060c0820190506144cb6000830189613d95565b6144d86020830188613d95565b6144e560408301876143fb565b6144f260608301866143fb565b6144ff60808301856143fb565b61450c60a08301846143fb565b979650505050505050565b600060208201905061452c6000830184613da4565b92915050565b600060c0820190506145476000830189613da4565b61455460208301886143fb565b6145616040830187613d95565b61456e60608301866143fb565b61457b6080830185613d95565b61458860a08301846143fb565b979650505050505050565b600060208201905081810360008301526145ac81613dd8565b9050919050565b600060208201905081810360008301526145cc81613e18565b9050919050565b600060208201905081810360008301526145ec81613e7e565b9050919050565b6000602082019050818103600083015261460c81613ee4565b9050919050565b6000602082019050818103600083015261462c81613f70565b9050919050565b6000602082019050818103600083015261464c81613ffc565b9050919050565b6000602082019050818103600083015261466c8161403c565b9050919050565b6000602082019050818103600083015261468c816140a2565b9050919050565b600060208201905081810360008301526146ac816140e2565b9050919050565b600060208201905081810360008301526146cc81614122565b9050919050565b600060208201905081810360008301526146ec81614188565b9050919050565b6000602082019050818103600083015261470c816141c8565b9050919050565b6000602082019050818103600083015261472c8161422e565b9050919050565b6000602082019050818103600083015261474c81614294565b9050919050565b6000602082019050818103600083015261476c81614320565b9050919050565b6000602082019050818103600083015261478c81614386565b9050919050565b60006020820190506147a860008301846143fb565b92915050565b600060a0820190506147c360008301886143fb565b6147d06020830187613d95565b6147dd60408301866143fb565b6147ea6060830185613d95565b6147f760808301846143fb565b9695505050505050565b600060408201905061481660008301856143fb565b61482360208301846143fb565b9392505050565b600060808201905061483f60008301876143fb565b61484c60208301866143fb565b61485960408301856143fb565b61486660608301846143fb565b95945050505050565b600060a08201905061488460008301886143fb565b61489160208301876143fb565b61489e60408301866143fb565b6148ab60608301856143fb565b6148b860808301846143fb565b9695505050505050565b600060c0820190506148d760008301896143fb565b6148e460208301886143fb565b6148f160408301876143fb565b6148fe60608301866143fb565b61490b60808301856143fb565b61491860a08301846143fb565b979650505050505050565b6000819050602082019050919050565b600081519050919050565b6000602082019050919050565b600082825260208201905092915050565b600082825260208201905092915050565b600081905092915050565b600061498382614aa4565b915061498e83614aa4565b9250827fffffffffffffffffffffffffffffffffffffffffffffffffffffffffffffffff038211156149c3576149c2614b2a565b5b828201905092915050565b60006149d982614aa4565b91506149e483614aa4565b9250817fffffffffffffffffffffffffffffffffffffffffffffffffffffffffffffffff0483118215151615614a1d57614a1c614b2a565b5b828202905092915050565b6000614a3382614aa4565b9150614a3e83614aa4565b925082821015614a5157614a50614b2a565b5b828203905092915050565b6000614a6782614a84565b9050919050565b60008115159050919050565b6000819050919050565b600073ffffffffffffffffffffffffffffffffffffffff82169050919050565b6000819050919050565b82818337600083830152505050565b6000614ac882614aa4565b91507fffffffffffffffffffffffffffffffffffffffffffffffffffffffffffffffff821415614afb57614afa614b2a565b5b600182019050919050565b6000614b1182614b18565b9050919050565b6000614b2382614b59565b9050919050565b7f4e487b7100000000000000000000000000000000000000000000000000000000600052601160045260246000fd5b60008160601b9050919050565b614b6f81614a5c565b8114614b7a57600080fd5b50565b614b8681614a6e565b8114614b9157600080fd5b50565b614b9d81614a7a565b8114614ba857600080fd5b50565b614bb481614aa4565b8114614bbf57600080fd5b5056fea2646970667358221220771bc6533f3c528784777b9b8a9cf4bf6bb9d6addce5803cfa9c122b69c9f76564736f6c63430008000033",
  "immutableReferences": {},
  "source": "pragma solidity >=0.5.16;\n\n// SPDX-License-Identifier: MIT\n\nimport \"../node_modules/@openzeppelin/contracts/utils/math/SafeMath.sol\";\n// import \"../node_modules/@openzeppelin/contracts/token/ERC721/ERC721.sol\";\n\n/************************************************** */\n/* no1s1 Data Smart Contract                        */\n/************************************************** */\n\n// TODO: is ERC721\n\ncontract no1s1Data {\n    using SafeMath for uint256;\n\n    /********************************************************************************************/\n    /*                                       DATA VARIABLES                                     */\n    /********************************************************************************************/\n\n    address private contractOwner;                  // Account used to deploy contract becomes contract admin\n    bool private operational = true;           // Main operational state of smart contract. Blocks all state changes throughout the contract if false\n\n    // no1s1 main state variables\n    bool no1s1Accessability;                   // Whether no1s1 is accessible\n    bool no1s1Occupation;                      // Whether no1s1 is occupied\n    enum BatteryState\n    {\n        Full, // 0\n        Good,  // 1\n        Low, // 2\n        Empty  // 3\n    }                                           \n    BatteryState no1s1BatteryLevel;            // Battery level of no1s1\n\n    // User and Usage duration counters\n    uint256 counterUsers;\n    uint256 counterDuration;\n    // Escrow balance\n    uint256 escrowBalance;\n\n    // Data structure of no1s1 technical system log (hourly)\n    struct TechLog{\n        uint256 batteryCurrency;\n        uint256 batteryVoltage;\n        uint256 batteryChargeState;\n        uint256 pvVoltage;\n        uint256 systemPower;\n        uint256 time;\n    }\n\n    // Data structure of no1s1 usage log (daily)\n    struct UsageLog{\n        uint256 totalBalance;\n        uint256 totalEscrow;\n        uint256 totalUsers;\n        uint256 totalDuration;\n        uint256 time;\n    }\n\n    // Data structure of no1s1 users\n    struct No1s1User {\n        uint256 boughtDuration;\n        bool accessed;\n        uint256 actualDuration;\n        bool left;\n        uint256 paidEscrow;\n    }\n\n    // Arrays\n    TechLog[] public no1s1TechLogs;                         // Array to store history of system data logs with struct TechLog\n    UsageLog[] public no1s1UsageLogs;                       // Array to store history of system data logs with struct UsageLog\n\n    // Mappings (key value pairs)\n    mapping(address => uint256) authorizedContracts;        // Mapping to store authorized contracts that can call into the data contract\n    mapping(bytes32 => No1s1User) no1s1Users;               // Mapping to store authorized no1s1 users\n\n    /********************************************************************************************/\n    /*                                       EVENT DEFINITIONS                                  */\n    /********************************************************************************************/\n\n    // Emitted when new contract is de-/authorized\n    event AuthorizedContract(address appContract);\n    event DeAuthorizedContract(address appContract);\n    // Emitted when new tech log added\n    event TechLogUpdate(uint256 batteryCurrency,uint256 batteryVoltage, uint256 batteryStateOfCharge,uint256 pvVoltage, uint256 systemEnergy, uint256 logTime);\n    // Emitted when new usage log added\n    event UsageLogUpdate(uint256 no1s1Balance, uint256 escrowBalance, uint256 userCounter, uint256 durationCounter, uint256 logTime);\n    // Emitted when new purchase was made\n    event newQRcode(bytes32 qrCode);\n    // Emitted when access suceeded\n    event accessSuceeded(uint256 allowedTime);\n    // Emitted when user active/inactive\n    event userActive(bool userActive);\n    // Emitted when user left\n    event exitSuccessful(uint256 totalMeditationTime);\n    // Emitted when escrow got refunded\n    event refundSuccessful(uint256 price, uint256 amountReturned);\n\n    /********************************************************************************************/\n    /*                                       CONSTRUCTOR                                        */\n    /********************************************************************************************/\n    \n    /**\n    * @dev Constructor\n    *      Deploying the no1s1Data contract and the NFT contract for the no1s1 access token\n    *      The deploying account becomes contractOwner\n    */\n    // TODO: add ERC721(\"no1s1 token\", \"NO1S1\") for ERC721 support\n    constructor()\n    {\n        contractOwner = msg.sender;\n        // Initiate state variables\n        no1s1Accessability = true;\n        no1s1Occupation = true;\n        no1s1BatteryLevel = BatteryState.Full;\n        counterUsers = 0;\n        counterDuration = 0;\n    }\n\n    /********************************************************************************************/\n    /*                                       FUNCTION MODIFIERS                                 */\n    /********************************************************************************************/\n\n    /**\n    * @dev Modifier that requires the \"operational\" boolean variable to be \"true\"\n    *      This is used on all state changing functions to pause the contract in\n    *      the event there is an issue that needs to be fixed\n    */\n    modifier requireIsOperational()\n    {\n        require(operational, \"Contract is currently not operational\");\n        _;\n    }\n\n    /**\n    * @dev Modifier that requires the \"contractOwner\" account to be the function caller\n    */\n    modifier requireContractOwner()\n    {\n      require(msg.sender == contractOwner, \"Caller is not contract owner\");\n      _;\n    }\n\n    /**\n    * @dev Modifier that requires that the contract calling into the data contract is authorized\n    */\n    modifier isCallerAuthorized()\n    {\n        require(authorizedContracts[msg.sender] == 1, \"Caller is not authorized\");\n        _;\n    }\n\n    /**\n    * @dev Modifier that checks whether no1s1 is accessible\n    */\n    modifier checkAccessability() {\n        require(no1s1Accessability == true, \"no1s1 is currently closed.\");\n        _;\n    }\n\n    /**\n    * @dev Modifier that checks whether no1s1 is occupied\n    */\n    modifier checkOccupancy() {\n        require(no1s1Occupation == true, \"no1s1 is currently already occupied.\");\n        _;\n    }\n\n    /********************************************************************************************/\n    /*                                       UTILITY FUNCTIONS                                  */\n    /********************************************************************************************/\n\n   /**\n    * @dev Get operating status of contract\n    * @return A bool that is the current operating status\n    */\n    function isOperational() external view returns (bool)\n    {\n        return operational;\n    }\n\n    /**\n    * @dev Sets contract operations on/off\n    *\n    * When operational mode is disabled, all write transactions except for this one will fail\n    */\n    function setOperatingStatus(bool mode) public requireContractOwner\n    {\n        operational = mode;\n    }\n\n    /**\n    * @dev authorize app contract to call into data contract\n    * @return A bool that is the current authorization status\n    */\n    function authorizeContract(address appContract) public requireIsOperational requireContractOwner returns(bool)\n    {\n        authorizedContracts[appContract] = 1;\n        emit AuthorizedContract(appContract);\n        return true;\n    }\n\n    /**\n    * @dev deauthorize app contract to call into data contract\n    * @return A bool that is the current authorization status\n    */\n    function deAuthorizeContract(address appContract) public requireIsOperational requireContractOwner returns(bool)\n    {\n        delete authorizedContracts[appContract];\n        emit DeAuthorizedContract(appContract);\n        return true;\n    }\n\n    /********************************************************************************************/\n    /*               SMART CONTRACT FUNCTIONS (ONLY CALLABLE FROM APP CONTRACT)                 */\n    /********************************************************************************************/\n\n    /**\n    * @dev function to modify the main state variable no1s1Accessability. This function is only for admins (not callable from app contract) to reset this state.\n    */\n    function setAccessabilityStatus(bool mode) external isCallerAuthorized requireIsOperational\n    {\n        no1s1Accessability = mode;\n    }\n\n    /**\n    * @dev function to modify the main state variable no1s1Occupation. This function is only for admins (not callable from app contract) to reset this state in case exiting the space is not detected\n    */\n    function setOccupationStatus(bool mode) external isCallerAuthorized requireIsOperational\n    {\n        no1s1Occupation = mode;\n    }\n\n    /**\n    * @dev function for backend to broadcast technical state, store it in no1s1TechLogs, and modify the main state variable no1s1BatteryLevel (hourly?)\n    */\n    function broadcastData(uint256 _Bcurrent,uint256 _Bvoltage, uint256 _BSOC,uint256 _Pvoltage, uint256 _Senergy, uint256 _Time, uint256 FULL_VALUE, uint256 GOOD_VALUE, uint256 LOW_VALUE) external isCallerAuthorized requireIsOperational\n    {\n        // Add new tech data log\n        no1s1TechLogs.push(TechLog(\n          {\n            batteryCurrency: _Bcurrent,\n            batteryVoltage: _Bvoltage,\n            batteryChargeState: _BSOC,\n            pvVoltage: _Pvoltage,\n            systemPower: _Senergy,\n            time:_Time\n          }\n        ));\n        // Update battery state\n        // TODO: adjust logic that it is based on battery voltage and currency\n        if(_BSOC >= FULL_VALUE){\n            no1s1BatteryLevel = BatteryState.Full;\n        }\n        else if (_BSOC >= GOOD_VALUE){\n            no1s1BatteryLevel = BatteryState.Good;\n        }\n        else if (_BSOC >= LOW_VALUE){\n            no1s1BatteryLevel = BatteryState.Low;\n        }\n        else {\n            no1s1BatteryLevel = BatteryState.Empty;\n        }\n        // Emit event\n        emit TechLogUpdate(_Bcurrent, _Bvoltage, _BSOC, _Pvoltage, _Senergy, _Time);\n    }\n\n    /**\n    * @dev function for backend to trigger storing the current state of no1s1 (daily)\n    */\n    function no1s1InfoLog(uint256 _Time) external isCallerAuthorized requireIsOperational\n    {\n        // Add new usage data log\n        no1s1UsageLogs.push(UsageLog(\n          {\n            totalBalance: address(this).balance,\n            totalEscrow: escrowBalance,\n            totalUsers: counterUsers,\n            totalDuration: counterDuration,\n            time: _Time\n          }\n        ));\n        // Emit event\n        emit UsageLogUpdate(address(this).balance, escrowBalance, counterUsers, counterDuration, _Time);\n    }\n\n    /**\n    * @dev buy function to access no1s1, returns QR code\n    */\n    function buy(uint256 _selectedDuration, address txSender, string calldata _username, uint256 ESCROW_AMOUNT, uint256 MAX_DURATION, uint256 GOOD_DURATION, uint256 LOW_DURATION) external payable isCallerAuthorized requireIsOperational checkAccessability checkOccupancy\n    {\n        // check whether no1s1 is accessible and not occupied (modifiers in function headers)\n        // check whether the entered duration is below the maximum duration\n        require(_selectedDuration <= MAX_DURATION, \"You request is longer than the maximum allowed meditation duration.\");\n        // check if the sent amount is sufficient to cover the escrow\n        require(msg.value >= ESCROW_AMOUNT, \"Not enough Ether provided.\");\n        // check whether no1s1 battery level is sufficient for chosen meditation time\n        if(_selectedDuration >= GOOD_DURATION){\n            require(no1s1BatteryLevel == BatteryState.Full, \"no1s1 battery level not sufficient for selected duration.\");\n        }\n        else if (_selectedDuration >= LOW_DURATION){\n            require(no1s1BatteryLevel == BatteryState.Good || no1s1BatteryLevel == BatteryState.Full, \"no1s1 battery level not sufficient for selected duration.\");\n        }\n        else if (_selectedDuration > 0){\n            require(no1s1BatteryLevel == BatteryState.Low || no1s1BatteryLevel == BatteryState.Good || no1s1BatteryLevel == BatteryState.Full, \"no1s1 battery level not sufficient for selected duration.\");\n        }\n        // create key to store this order\n        bytes32 key = keccak256(abi.encodePacked(txSender, _username)); // username to generate key so QR code is != address\n        // check whether user has already bought meditation time\n        require(no1s1Users[key].boughtDuration == 0, \"You already bought meditation time for no1s1.\");\n        // add new no1s1 user\n        no1s1Users[key] = No1s1User({\n            boughtDuration: _selectedDuration,\n            accessed: false,\n            actualDuration: 0,\n            left: false,\n            paidEscrow: msg.value\n        });\n        // Update total escrow balance\n        escrowBalance = escrowBalance.add(msg.value);\n        // mit event with QR code (key)\n        emit newQRcode(key);\n    }\n\n    /**\n    * @dev function triggered by backend to check whether QR code is valid and authorizes to unlock door\n    * @param _key QR code detected by camera\n    * returns allowed duration to enter (if 0, door could stay locked)\n    */\n    //TODO: trigger timer in back-end?\n    function checkAccess(bytes32 _key, uint256 GOOD_DURATION, uint256 LOW_DURATION) external isCallerAuthorized requireIsOperational checkAccessability checkOccupancy\n    {\n        uint256 allowedDuration = no1s1Users[_key].boughtDuration;\n        if (allowedDuration != 0) {\n            // check again whether no1s1 is accessible and not occupied (modifiers in function headers)\n            // check again battery status\n            if(allowedDuration >= GOOD_DURATION){\n            require(no1s1BatteryLevel == BatteryState.Full, \"no1s1 battery level not sufficient for selected duration.\");\n            }\n            else if (allowedDuration >= LOW_DURATION){\n                require(no1s1BatteryLevel == BatteryState.Good || no1s1BatteryLevel == BatteryState.Full, \"no1s1 battery level not sufficient for selected duration.\");\n            }\n            else if (allowedDuration > 0){\n                require(no1s1BatteryLevel == BatteryState.Low || no1s1BatteryLevel == BatteryState.Good || no1s1BatteryLevel == BatteryState.Full, \"no1s1 battery level not sufficient for selected duration.\");\n            }\n            // update occupancy status so noone else can buy access\n            no1s1Occupation = false;\n            // emit event to unlock door for allowed duration\n            emit accessSuceeded(allowedDuration);\n        }\n        else {\n            // revert transaction\n            revert(\"No meditation time bought for this key.\");\n        }\n    }\n\n    /**\n    * @dev function triggered by back-end shortly after access() function with sensor feedback (door openend, motion detected)\n    * if user has not entered, set occupancy back to not occupied and lock door\n    */\n    function checkActivity(bool _pressureDetected, bytes32 _key) external isCallerAuthorized requireIsOperational\n    {\n        // check wether access has been checked\n        require(no1s1Occupation == false, \"Access key has not been checked yet.\");\n        // check whether access has already been registered\n        require(no1s1Users[_key].accessed == false, \"The access has already been registered.\");\n        // check wether user entered the space.\n        // TODO: more sensors? motion?\n        if (_pressureDetected == true) {\n            // User is active! Update user infromation to accessed\n            uint256 escrow = no1s1Users[_key].paidEscrow;\n            no1s1Users[_key] = No1s1User({\n                boughtDuration: 0,\n                accessed: true,\n                actualDuration: 0,\n                left: false,\n                paidEscrow: escrow\n            });\n            // Emit event\n            emit userActive(true);\n        }\n        else {\n            // If not active, revert occupancy state to not occupied\n            no1s1Occupation = true;\n            // Emit event\n            emit userActive(false);\n        }\n    }\n\n    /**\n    * @dev function triggered by backend after leaving no1s1. resets the occupancy state.\n    */\n    // TODO: careful with input format of _actualDuration [minutes]\n    function exit(bool _doorOpened, uint256 _actualDuration, bytes32 _key) external isCallerAuthorized requireIsOperational\n    {\n        // check whether user has accessed\n        require(no1s1Users[_key].accessed == true, \"The user has not meditated yet!\");\n        // check whether user left. TODO: more sensors?\n        require(_doorOpened == true, \"The user has not left the space yet!\");\n        // update occupancy state\n        no1s1Occupation = true;\n        // update counters\n        counterUsers = counterUsers.add(1);\n        counterDuration = counterDuration.add(_actualDuration);\n        // update user state\n        uint256 escrow = no1s1Users[_key].paidEscrow;\n        no1s1Users[_key] = No1s1User({\n            boughtDuration: 0,\n            accessed: true,\n            actualDuration: _actualDuration,\n            left: true,\n            paidEscrow: escrow\n        });\n        // emit event\n        emit exitSuccessful(_actualDuration);\n    }\n\n    /**\n    * @dev function triggered by user after leaving no1s1. Pays back escrow and sends out confirmation NFT.\n    */\n    function refundEscrow(address _sender, string calldata _username, uint256 MEDITATION_PRICE) external isCallerAuthorized requireIsOperational\n    {\n        // recalculate key\n        bytes32 key = keccak256(abi.encodePacked(_sender, _username));\n        // check whether user has actually redeemed access (entered the space)\n        require(no1s1Users[key].accessed == true, \"You cannot redeem your escrow, because you have not meditated yet!\");\n        // check whether user left.\n        require(no1s1Users[key].left == true, \"You cannot redeem your escrow, because you have not left the space yet!\");\n        // calculate price for the entered duration\n        uint256 actualDuration = no1s1Users[key].actualDuration;\n        uint256 price = actualDuration.mul(uint256(MEDITATION_PRICE));\n        // Update total escrow balance\n        uint256 escrow = no1s1Users[key].paidEscrow;\n        escrowBalance = escrowBalance.sub(escrow);\n        // Calculate amount to return\n        uint256 amountToReturn = uint256(escrow).sub(uint256(price));\n        // check if payable duration is smaller then escrow\n        if (escrow <= price) {\n            // reset user state\n            no1s1Users[key] = No1s1User({\n                boughtDuration: 0,\n                accessed: false,\n                actualDuration: 0,\n                left: false,\n                paidEscrow: 0\n            });\n            amountToReturn = 0;\n        }\n        else {\n            // reset user state\n            no1s1Users[key] = No1s1User({\n                boughtDuration: 0,\n                accessed: false,\n                actualDuration: 0,\n                left: false,\n                paidEscrow: 0\n            });\n            // send remaining escrow balance back to buyer\n            payable(_sender).transfer(amountToReturn);\n            //TODO: mint NFT and send to user, use user counter as ID (unique)\n            //_safeMint(_sender, counterUsers);\n        }\n        // emit event\n        emit refundSuccessful(price, amountToReturn);\n    }\n\n    /********************************************************************************************/\n    /*                                SMART CONTRACT VIEW FUNCTIONS                             */\n    /********************************************************************************************/\n    \n    /**\n    * @dev Get operating status of no1s1 (main state variables)\n    */\n    function howAmI() external view returns (bool accessability, bool occupation, uint256 batteryState, uint256 totalUsers, uint256 totalDuration, uint256 myBalance)\n    {\n        return (accessability = no1s1Accessability, occupation = no1s1Occupation, batteryState = uint256(no1s1BatteryLevel), totalUsers = counterUsers, totalDuration = counterDuration, myBalance = address(this).balance);\n    }\n\n    /**\n    * @dev Get address of no1s1\n    */\n    function whoAmI() external view returns(address no1s1Address)\n    {\n        return (address(this));\n    }\n\n    /**\n    * @dev Get balance of no1s1 (without escrow paid)\n    */\n    function howRichAmI() external view returns(uint256 no1s1Balance)\n    {\n        return (address(this).balance.sub(escrowBalance));\n    }    \n\n    /**\n    * @dev get latest entries of UsageLog (max 10)\n    */\n    function getUsageLog() external view returns(uint256[] memory users, uint256[] memory balances, uint256[] memory durations)\n    {\n        uint numberOfRecords = 10;\n        if (no1s1UsageLogs.length >= numberOfRecords){\n            uint256[] memory tenUsers = new uint256[](numberOfRecords);\n            uint256[] memory tenBalances = new uint256[](numberOfRecords);\n            uint256[] memory tenEscrows = new uint256[](numberOfRecords);\n            uint256[] memory tenDuration = new uint256[](numberOfRecords);\n            for (uint i = 0; i < numberOfRecords; i++){\n                tenUsers[i] = no1s1UsageLogs[no1s1UsageLogs.length-1-i].totalUsers;\n                tenBalances[i] = no1s1UsageLogs[no1s1UsageLogs.length-1-i].totalBalance;\n                tenEscrows[i] = no1s1UsageLogs[no1s1UsageLogs.length-1-i].totalEscrow;\n                tenDuration[i] = no1s1UsageLogs[no1s1UsageLogs.length-1-i].totalDuration;\n            }\n            return (tenUsers, tenBalances, tenDuration);\n        }\n        else if (no1s1UsageLogs.length < numberOfRecords){\n            uint256[] memory xUsers = new uint256[](no1s1UsageLogs.length);\n            uint256[] memory xBalances = new uint256[](no1s1UsageLogs.length);\n            uint256[] memory xEscrows = new uint256[](no1s1UsageLogs.length);\n            uint256[] memory xDuration = new uint256[](no1s1UsageLogs.length);\n            for (uint i = 0; i < no1s1UsageLogs.length; i++){\n                xUsers[i] = no1s1UsageLogs[no1s1UsageLogs.length-1-i].totalUsers;\n                xBalances[i] = no1s1UsageLogs[no1s1UsageLogs.length-1-i].totalBalance;\n                xEscrows[i] = no1s1UsageLogs[no1s1UsageLogs.length-1-i].totalEscrow;\n                xDuration[i] = no1s1UsageLogs[no1s1UsageLogs.length-1-i].totalDuration;\n            }\n            return (xUsers, xBalances, xDuration);\n        }\n    }\n\n    /**\n    * @dev retrieve values needed to buy meditation time\n    */\n    function checkBuyStatus(uint256 MEDITATION_PRICE, uint256 FULL_DURATION, uint256 GOOD_DURATION, uint256 LOW_DURATION) external view returns(uint256 batteryState, uint256 availableMinutes, uint256 costPerMinute , uint256 lastUpdate)\n    {\n        // uint256 stateOfCharge = no1s1TechLogs[no1s1TechLogs.length-1].batterystateofcharge;\n        uint256 batteryLevel = uint256(no1s1BatteryLevel);\n        uint256 time = no1s1TechLogs[no1s1TechLogs.length-1].time;\n        uint256 duration;\n        if (batteryLevel == 0){\n            duration = FULL_DURATION;}\n        else if (batteryLevel == 1){\n            duration = GOOD_DURATION;}\n        else if(batteryLevel == 2){\n            duration = LOW_DURATION;}\n        else if(batteryLevel == 3){\n            duration = 0;}\n        return (batteryLevel, duration, MEDITATION_PRICE, time);\n    }\n\n    /**\n    * @dev retrieve the latest technical logs\n    */ \n    function checkLastTechLogs() external view returns(uint256 pvVoltage, uint256 systemPower, uint256 batteryChargeState, uint256 batteryCurrency, uint256 batteryVoltage)\n    {\n        uint256 lastPVIV = no1s1TechLogs[no1s1TechLogs.length-1].pvVoltage;\n        uint256 lastSOE = no1s1TechLogs[no1s1TechLogs.length-1].systemPower;\n        uint256 lastBSoC = no1s1TechLogs[no1s1TechLogs.length-1].batteryChargeState;\n        uint256 lastBCurrency = no1s1TechLogs[no1s1TechLogs.length-1].batteryCurrency;\n        uint256 lastBVoltage = no1s1TechLogs[no1s1TechLogs.length-1].batteryVoltage;\n        return (lastPVIV, lastSOE, lastBSoC, lastBCurrency, lastBVoltage);\n    }\n\n    /**\n    * @dev retrieve user information with key (QR code)\n    */ \n    function checkUserKey(bytes32 _key) external view returns(uint256 meditationDuration, bool accessed, uint256 actualDuration, bool left, uint256 escrow)\n    {\n        return (no1s1Users[_key].boughtDuration, no1s1Users[_key].accessed, no1s1Users[_key].actualDuration, no1s1Users[_key].left, no1s1Users[_key].paidEscrow);\n    }\n\n    /**\n    * @dev retrieve user information with username\n    */ \n    function checkUserName(address _sender, string calldata _username) external view returns(bytes32 qrCode, uint256 meditationDuration, bool accessed, uint256 actualDuration, bool left, uint256 escrow)\n    {\n        bytes32 key = keccak256(abi.encodePacked(_sender, _username));\n        return (key, no1s1Users[key].boughtDuration, no1s1Users[key].accessed, no1s1Users[key].actualDuration, no1s1Users[key].left, no1s1Users[key].paidEscrow);\n    }\n\n\n    /********************************************************************************************/\n    /*                                SMART CONTRACT FALLBACK FUNCTION                         */\n    /********************************************************************************************/\n\n    /**\n    * @dev Payable fallback function to enable the contract to receive direct payments.\n    */\n    fallback () external payable isCallerAuthorized requireIsOperational {}\n\n}",
  "sourcePath": "/Users/jenshunhevicz/Documents/GitHub/no1s1_TI/contracts/no1s1data.sol",
  "compiler": {
    "name": "solc",
    "version": "0.8.0+commit.c7dfd78e.Emscripten.clang"
  },
  "schemaVersion": "3.4.3",
  "updatedAt": "2021-10-26T12:30:57.029Z",
  "devdoc": {
    "kind": "dev",
    "methods": {
      "authorizeContract(address)": {
        "details": "authorize app contract to call into data contract",
        "returns": {
          "_0": "A bool that is the current authorization status"
        }
      },
      "broadcastData(uint256,uint256,uint256,uint256,uint256,uint256,uint256,uint256,uint256)": {
        "details": "function for backend to broadcast technical state, store it in no1s1TechLogs, and modify the main state variable no1s1BatteryLevel (hourly?)"
      },
      "buy(uint256,address,string,uint256,uint256,uint256,uint256)": {
        "details": "buy function to access no1s1, returns QR code"
      },
      "checkAccess(bytes32,uint256,uint256)": {
        "details": "function triggered by backend to check whether QR code is valid and authorizes to unlock door",
        "params": {
          "_key": "QR code detected by camera returns allowed duration to enter (if 0, door could stay locked)"
        }
      },
      "checkActivity(bool,bytes32)": {
        "details": "function triggered by back-end shortly after access() function with sensor feedback (door openend, motion detected) if user has not entered, set occupancy back to not occupied and lock door"
      },
      "checkBuyStatus(uint256,uint256,uint256,uint256)": {
        "details": "retrieve values needed to buy meditation time"
      },
      "checkLastTechLogs()": {
        "details": "retrieve the latest technical logs"
      },
      "checkUserKey(bytes32)": {
        "details": "retrieve user information with key (QR code)"
      },
      "checkUserName(address,string)": {
        "details": "retrieve user information with username"
      },
      "constructor": {
        "details": "Constructor      Deploying the no1s1Data contract and the NFT contract for the no1s1 access token      The deploying account becomes contractOwner"
      },
      "deAuthorizeContract(address)": {
        "details": "deauthorize app contract to call into data contract",
        "returns": {
          "_0": "A bool that is the current authorization status"
        }
      },
      "exit(bool,uint256,bytes32)": {
        "details": "function triggered by backend after leaving no1s1. resets the occupancy state."
      },
      "getUsageLog()": {
        "details": "get latest entries of UsageLog (max 10)"
      },
      "howAmI()": {
        "details": "Get operating status of no1s1 (main state variables)"
      },
      "howRichAmI()": {
        "details": "Get balance of no1s1 (without escrow paid)"
      },
      "isOperational()": {
        "details": "Get operating status of contract",
        "returns": {
          "_0": "A bool that is the current operating status"
        }
      },
      "no1s1InfoLog(uint256)": {
        "details": "function for backend to trigger storing the current state of no1s1 (daily)"
      },
      "refundEscrow(address,string,uint256)": {
        "details": "function triggered by user after leaving no1s1. Pays back escrow and sends out confirmation NFT."
      },
      "setAccessabilityStatus(bool)": {
        "details": "function to modify the main state variable no1s1Accessability. This function is only for admins (not callable from app contract) to reset this state."
      },
      "setOccupationStatus(bool)": {
        "details": "function to modify the main state variable no1s1Occupation. This function is only for admins (not callable from app contract) to reset this state in case exiting the space is not detected"
      },
      "setOperatingStatus(bool)": {
        "details": "Sets contract operations on/off When operational mode is disabled, all write transactions except for this one will fail"
      },
      "whoAmI()": {
        "details": "Get address of no1s1"
      }
    },
    "version": 1
  },
  "userdoc": {
    "kind": "user",
    "methods": {},
    "version": 1
  }
}