{
  "contractName": "no1s1data",
  "abi": [
    {
      "inputs": [],
      "payable": false,
      "stateMutability": "nonpayable",
      "type": "constructor"
    },
    {
      "anonymous": false,
      "inputs": [
        {
          "indexed": false,
          "internalType": "string",
          "name": "userName",
          "type": "string"
        },
        {
          "indexed": false,
          "internalType": "uint256",
          "name": "confirmationCode",
          "type": "uint256"
        }
      ],
      "name": "newUserRegistered",
      "type": "event"
    },
    {
      "anonymous": false,
      "inputs": [
        {
          "indexed": false,
          "internalType": "uint256",
          "name": "batterystateofcharge",
          "type": "uint256"
        }
      ],
      "name": "no1s1update",
      "type": "event"
    },
    {
      "anonymous": false,
      "inputs": [
        {
          "indexed": false,
          "internalType": "bool",
          "name": "userActionConfirmed",
          "type": "bool"
        }
      ],
      "name": "userAction",
      "type": "event"
    },
    {
      "anonymous": false,
      "inputs": [
        {
          "indexed": false,
          "internalType": "uint256",
          "name": "theuuid",
          "type": "uint256"
        }
      ],
      "name": "whatuuid",
      "type": "event"
    },
    {
      "constant": true,
      "inputs": [
        {
          "internalType": "uint256",
          "name": "",
          "type": "uint256"
        }
      ],
      "name": "logs",
      "outputs": [
        {
          "internalType": "uint256",
          "name": "batteryoperatingtemp",
          "type": "uint256"
        },
        {
          "internalType": "uint256",
          "name": "batterycurrent",
          "type": "uint256"
        },
        {
          "internalType": "uint256",
          "name": "batteryvoltage",
          "type": "uint256"
        },
        {
          "internalType": "uint256",
          "name": "batterystateofcharge",
          "type": "uint256"
        },
        {
          "internalType": "uint256",
          "name": "batterychargecycle",
          "type": "uint256"
        },
        {
          "internalType": "uint256",
          "name": "batterycapacity",
          "type": "uint256"
        },
        {
          "internalType": "uint256",
          "name": "pvvoltage",
          "type": "uint256"
        },
        {
          "internalType": "uint256",
          "name": "pvcurrent",
          "type": "uint256"
        },
        {
          "internalType": "uint256",
          "name": "pvchargestate",
          "type": "uint256"
        },
        {
          "internalType": "uint256",
          "name": "time",
          "type": "uint256"
        }
      ],
      "payable": false,
      "stateMutability": "view",
      "type": "function"
    },
    {
      "constant": true,
      "inputs": [
        {
          "internalType": "string",
          "name": "",
          "type": "string"
        }
      ],
      "name": "partners",
      "outputs": [
        {
          "internalType": "string",
          "name": "companyname",
          "type": "string"
        },
        {
          "internalType": "address payable",
          "name": "companyaccount",
          "type": "address"
        },
        {
          "internalType": "string",
          "name": "partnertype",
          "type": "string"
        },
        {
          "internalType": "uint256",
          "name": "workload",
          "type": "uint256"
        },
        {
          "internalType": "uint256",
          "name": "workprice",
          "type": "uint256"
        }
      ],
      "payable": false,
      "stateMutability": "view",
      "type": "function"
    },
    {
      "constant": true,
      "inputs": [
        {
          "internalType": "string",
          "name": "",
          "type": "string"
        }
      ],
      "name": "usersid",
      "outputs": [
        {
          "internalType": "uint256",
          "name": "uuid",
          "type": "uint256"
        },
        {
          "internalType": "uint256",
          "name": "timereg",
          "type": "uint256"
        },
        {
          "internalType": "uint256",
          "name": "ccode",
          "type": "uint256"
        },
        {
          "internalType": "address payable",
          "name": "account",
          "type": "address"
        },
        {
          "internalType": "int256",
          "name": "expectedduration",
          "type": "int256"
        },
        {
          "internalType": "uint256",
          "name": "payamount",
          "type": "uint256"
        },
        {
          "internalType": "bool",
          "name": "haveaccount",
          "type": "bool"
        },
        {
          "internalType": "bool",
          "name": "isidentified",
          "type": "bool"
        },
        {
          "internalType": "bool",
          "name": "ispaid",
          "type": "bool"
        }
      ],
      "payable": false,
      "stateMutability": "view",
      "type": "function"
    },
    {
      "constant": true,
      "inputs": [
        {
          "internalType": "string",
          "name": "",
          "type": "string"
        }
      ],
      "name": "usersusage",
      "outputs": [
        {
          "internalType": "address",
          "name": "account",
          "type": "address"
        },
        {
          "internalType": "uint256",
          "name": "actualduration",
          "type": "uint256"
        },
        {
          "internalType": "int256",
          "name": "paychangeamount",
          "type": "int256"
        },
        {
          "internalType": "uint256",
          "name": "timeex",
          "type": "uint256"
        },
        {
          "internalType": "bool",
          "name": "grantedentrance",
          "type": "bool"
        },
        {
          "internalType": "bool",
          "name": "startedmeditation",
          "type": "bool"
        },
        {
          "internalType": "bool",
          "name": "serviceclosed",
          "type": "bool"
        },
        {
          "internalType": "bool",
          "name": "paychanged",
          "type": "bool"
        },
        {
          "internalType": "uint256",
          "name": "actualpayment",
          "type": "uint256"
        }
      ],
      "payable": false,
      "stateMutability": "view",
      "type": "function"
    },
    {
      "constant": false,
      "inputs": [
        {
          "internalType": "uint256",
          "name": "_Btemp",
          "type": "uint256"
        },
        {
          "internalType": "uint256",
          "name": "_Bcurrent",
          "type": "uint256"
        },
        {
          "internalType": "uint256",
          "name": "_Bvoltage",
          "type": "uint256"
        },
        {
          "internalType": "uint256",
          "name": "_BSOC",
          "type": "uint256"
        },
        {
          "internalType": "uint256",
          "name": "_BCS",
          "type": "uint256"
        },
        {
          "internalType": "uint256",
          "name": "_Bcapacity",
          "type": "uint256"
        },
        {
          "internalType": "uint256",
          "name": "_Pvoltage",
          "type": "uint256"
        },
        {
          "internalType": "uint256",
          "name": "_Pcurrent",
          "type": "uint256"
        },
        {
          "internalType": "uint256",
          "name": "_Pchargestate",
          "type": "uint256"
        },
        {
          "internalType": "uint256",
          "name": "_time",
          "type": "uint256"
        }
      ],
      "name": "broadcastData",
      "outputs": [],
      "payable": false,
      "stateMutability": "nonpayable",
      "type": "function"
    },
    {
      "constant": false,
      "inputs": [
        {
          "internalType": "string",
          "name": "_username",
          "type": "string"
        },
        {
          "internalType": "uint256",
          "name": "_cCode",
          "type": "uint256"
        },
        {
          "internalType": "uint256",
          "name": "_time",
          "type": "uint256"
        },
        {
          "internalType": "uint256",
          "name": "_uuid",
          "type": "uint256"
        }
      ],
      "name": "initNewUser",
      "outputs": [],
      "payable": false,
      "stateMutability": "nonpayable",
      "type": "function"
    },
    {
      "constant": true,
      "inputs": [],
      "name": "checkStatus",
      "outputs": [
        {
          "internalType": "int256",
          "name": "c_allowtime",
          "type": "int256"
        },
        {
          "internalType": "uint256",
          "name": "estimated_cost",
          "type": "uint256"
        },
        {
          "internalType": "uint256",
          "name": "update_time",
          "type": "uint256"
        }
      ],
      "payable": false,
      "stateMutability": "view",
      "type": "function"
    },
    {
      "constant": false,
      "inputs": [
        {
          "internalType": "address payable",
          "name": "_fundingAddress",
          "type": "address"
        },
        {
          "internalType": "address payable",
          "name": "_defaultAddress",
          "type": "address"
        }
      ],
      "name": "setUserAccounts",
      "outputs": [],
      "payable": false,
      "stateMutability": "nonpayable",
      "type": "function"
    },
    {
      "constant": false,
      "inputs": [
        {
          "internalType": "string",
          "name": "_partnername",
          "type": "string"
        },
        {
          "internalType": "address payable",
          "name": "_partnerAddress",
          "type": "address"
        },
        {
          "internalType": "string",
          "name": "_companyname",
          "type": "string"
        },
        {
          "internalType": "string",
          "name": "_partnertype",
          "type": "string"
        },
        {
          "internalType": "uint256",
          "name": "_workload",
          "type": "uint256"
        },
        {
          "internalType": "uint256",
          "name": "_workprice",
          "type": "uint256"
        }
      ],
      "name": "setPartner",
      "outputs": [],
      "payable": false,
      "stateMutability": "nonpayable",
      "type": "function"
    },
    {
      "constant": true,
      "inputs": [],
      "name": "whatismyacc",
      "outputs": [
        {
          "internalType": "address payable",
          "name": "",
          "type": "address"
        },
        {
          "internalType": "address payable",
          "name": "",
          "type": "address"
        },
        {
          "internalType": "address",
          "name": "",
          "type": "address"
        }
      ],
      "payable": false,
      "stateMutability": "view",
      "type": "function"
    },
    {
      "constant": true,
      "inputs": [],
      "name": "whatismybalance",
      "outputs": [
        {
          "internalType": "uint256",
          "name": "",
          "type": "uint256"
        },
        {
          "internalType": "uint256",
          "name": "",
          "type": "uint256"
        }
      ],
      "payable": false,
      "stateMutability": "view",
      "type": "function"
    },
    {
      "constant": false,
      "inputs": [],
      "name": "whatisuseruuid",
      "outputs": [
        {
          "internalType": "uint256",
          "name": "",
          "type": "uint256"
        }
      ],
      "payable": false,
      "stateMutability": "nonpayable",
      "type": "function"
    },
    {
      "constant": true,
      "inputs": [],
      "name": "whatisuseruuid2",
      "outputs": [
        {
          "internalType": "uint256",
          "name": "",
          "type": "uint256"
        }
      ],
      "payable": false,
      "stateMutability": "view",
      "type": "function"
    },
    {
      "constant": false,
      "inputs": [
        {
          "internalType": "int256",
          "name": "_selectedDuration",
          "type": "int256"
        },
        {
          "internalType": "string",
          "name": "_username",
          "type": "string"
        },
        {
          "internalType": "uint256",
          "name": "_selectedCost",
          "type": "uint256"
        }
      ],
      "name": "userPay",
      "outputs": [
        {
          "internalType": "uint256",
          "name": "",
          "type": "uint256"
        }
      ],
      "payable": true,
      "stateMutability": "payable",
      "type": "function"
    },
    {
      "constant": false,
      "inputs": [],
      "name": "toContract",
      "outputs": [],
      "payable": true,
      "stateMutability": "payable",
      "type": "function"
    },
    {
      "constant": false,
      "inputs": [
        {
          "internalType": "bool",
          "name": "_pressuredetected",
          "type": "bool"
        },
        {
          "internalType": "bool",
          "name": "_dooropened",
          "type": "bool"
        },
        {
          "internalType": "bool",
          "name": "_motiondetected",
          "type": "bool"
        },
        {
          "internalType": "string",
          "name": "_username",
          "type": "string"
        }
      ],
      "name": "userActive",
      "outputs": [],
      "payable": false,
      "stateMutability": "nonpayable",
      "type": "function"
    },
    {
      "constant": false,
      "inputs": [
        {
          "internalType": "bool",
          "name": "_motiondetected",
          "type": "bool"
        },
        {
          "internalType": "bool",
          "name": "_dooropened",
          "type": "bool"
        },
        {
          "internalType": "bool",
          "name": "_handletriggered",
          "type": "bool"
        },
        {
          "internalType": "string",
          "name": "_username",
          "type": "string"
        },
        {
          "internalType": "uint256",
          "name": "_actualduration",
          "type": "uint256"
        },
        {
          "internalType": "uint256",
          "name": "_timeex",
          "type": "uint256"
        }
      ],
      "name": "serviceClose",
      "outputs": [
        {
          "internalType": "uint256",
          "name": "",
          "type": "uint256"
        }
      ],
      "payable": false,
      "stateMutability": "nonpayable",
      "type": "function"
    }
  ],
  "bytecode": "0x608060405234801561001057600080fd5b5033600160006101000a81548173ffffffffffffffffffffffffffffffffffffffff021916908373ffffffffffffffffffffffffffffffffffffffff16021790555061294d806100616000396000f3fe6080604052600436106100fd5760003560e01c806361b21f4d11610095578063c28b86a711610064578063c28b86a714610ac5578063c81c5bde14610b5b578063d9be18e914610c47578063e79899bd14610cb8578063ea22c24714610d46576100fd565b806361b21f4d146108575780637f4c42c31461086157806388debc3114610893578063b8e51fb7146109df576100fd565b80632acd01f8116100d15780632acd01f8146102b65780633b7104f2146104a45780633bf3d530146104dd578063524189311461062d576100fd565b80621fe73f14610102578063179a9f181461012d5780631c340090146101ce57806326afd9941461028b575b600080fd5b34801561010e57600080fd5b50610117610e5a565b6040518082815260200191505060405180910390f35b6101b86004803603606081101561014357600080fd5b81019080803590602001909291908035906020019064010000000081111561016a57600080fd5b82018360208201111561017c57600080fd5b8035906020019184600183028401116401000000008311171561019e57600080fd5b909192939192939080359060200190929190505050610ec4565b6040518082815260200191505060405180910390f35b3480156101da57600080fd5b506101e3611075565b604051808473ffffffffffffffffffffffffffffffffffffffff1673ffffffffffffffffffffffffffffffffffffffff1681526020018373ffffffffffffffffffffffffffffffffffffffff1673ffffffffffffffffffffffffffffffffffffffff1681526020018273ffffffffffffffffffffffffffffffffffffffff1673ffffffffffffffffffffffffffffffffffffffff168152602001935050505060405180910390f35b34801561029757600080fd5b506102a06110cc565b6040518082815260200191505060405180910390f35b3480156102c257600080fd5b5061037c600480360360208110156102d957600080fd5b81019080803590602001906401000000008111156102f657600080fd5b82018360208201111561030857600080fd5b8035906020019184600183028401116401000000008311171561032a57600080fd5b91908080601f016020809104026020016040519081016040528093929190818152602001838380828437600081840152601f19601f8201169050808301925050505050505091929192905050506110ff565b60405180806020018673ffffffffffffffffffffffffffffffffffffffff1673ffffffffffffffffffffffffffffffffffffffff16815260200180602001858152602001848152602001838103835288818151815260200191508051906020019080838360005b838110156103fe5780820151818401526020810190506103e3565b50505050905090810190601f16801561042b5780820380516001836020036101000a031916815260200191505b50838103825286818151815260200191508051906020019080838360005b83811015610464578082015181840152602081019050610449565b50505050905090810190601f1680156104915780820380516001836020036101000a031916815260200191505b5097505050505050505060405180910390f35b3480156104b057600080fd5b506104b961129b565b60405180848152602001838152602001828152602001935050505060405180910390f35b3480156104e957600080fd5b506105a36004803603602081101561050057600080fd5b810190808035906020019064010000000081111561051d57600080fd5b82018360208201111561052f57600080fd5b8035906020019184600183028401116401000000008311171561055157600080fd5b91908080601f016020809104026020016040519081016040528093929190818152602001838380828437600081840152601f19601f820116905080830192505050505050509192919290505050611352565b604051808a73ffffffffffffffffffffffffffffffffffffffff1673ffffffffffffffffffffffffffffffffffffffff16815260200189815260200188815260200187815260200186151515158152602001851515151581526020018415151515815260200183151515158152602001828152602001995050505050505050505060405180910390f35b34801561063957600080fd5b50610855600480360360c081101561065057600080fd5b810190808035906020019064010000000081111561066d57600080fd5b82018360208201111561067f57600080fd5b803590602001918460018302840111640100000000831117156106a157600080fd5b91908080601f016020809104026020016040519081016040528093929190818152602001838380828437600081840152601f19601f820116905080830192505050505050509192919290803573ffffffffffffffffffffffffffffffffffffffff1690602001909291908035906020019064010000000081111561072457600080fd5b82018360208201111561073657600080fd5b8035906020019184600183028401116401000000008311171561075857600080fd5b91908080601f016020809104026020016040519081016040528093929190818152602001838380828437600081840152601f19601f820116905080830192505050505050509192919290803590602001906401000000008111156107bb57600080fd5b8201836020820111156107cd57600080fd5b803590602001918460018302840111640100000000831117156107ef57600080fd5b91908080601f016020809104026020016040519081016040528093929190818152602001838380828437600081840152601f19601f820116905080830192505050505050509192919290803590602001909291908035906020019092919050505061140a565b005b61085f6116fb565b005b34801561086d57600080fd5b506108766116fd565b604051808381526020018281526020019250505060405180910390f35b34801561089f57600080fd5b50610959600480360360208110156108b657600080fd5b81019080803590602001906401000000008111156108d357600080fd5b8201836020820111156108e557600080fd5b8035906020019184600183028401116401000000008311171561090757600080fd5b91908080601f016020809104026020016040519081016040528093929190818152602001838380828437600081840152601f19601f82011690508083019250505050505050919291929050505061170c565b604051808a81526020018981526020018881526020018773ffffffffffffffffffffffffffffffffffffffff1673ffffffffffffffffffffffffffffffffffffffff168152602001868152602001858152602001841515151581526020018315151515815260200182151515158152602001995050505050505050505060405180910390f35b3480156109eb57600080fd5b50610ac360048036036080811015610a0257600080fd5b8101908080359060200190640100000000811115610a1f57600080fd5b820183602082011115610a3157600080fd5b80359060200191846001830284011164010000000083111715610a5357600080fd5b91908080601f016020809104026020016040519081016040528093929190818152602001838380828437600081840152601f19601f8201169050808301925050505050505091929192908035906020019092919080359060200190929190803590602001909291905050506117b7565b005b348015610ad157600080fd5b50610b596004803603610140811015610ae957600080fd5b8101908080359060200190929190803590602001909291908035906020019092919080359060200190929190803590602001909291908035906020019092919080359060200190929190803590602001909291908035906020019092919080359060200190929190505050611c9c565b005b348015610b6757600080fd5b50610c4560048036036080811015610b7e57600080fd5b8101908080351515906020019092919080351515906020019092919080351515906020019092919080359060200190640100000000811115610bbf57600080fd5b820183602082011115610bd157600080fd5b80359060200191846001830284011164010000000083111715610bf357600080fd5b91908080601f016020809104026020016040519081016040528093929190818152602001838380828437600081840152601f19601f820116905080830192505050505050509192919290505050611e15565b005b348015610c5357600080fd5b50610cb660048036036040811015610c6a57600080fd5b81019080803573ffffffffffffffffffffffffffffffffffffffff169060200190929190803573ffffffffffffffffffffffffffffffffffffffff169060200190929190505050611f59565b005b348015610cc457600080fd5b50610cf160048036036020811015610cdb57600080fd5b8101908080359060200190929190505050612073565b604051808b81526020018a81526020018981526020018881526020018781526020018681526020018581526020018481526020018381526020018281526020019a505050505050505050505060405180910390f35b348015610d5257600080fd5b50610e44600480360360c0811015610d6957600080fd5b8101908080351515906020019092919080351515906020019092919080351515906020019092919080359060200190640100000000811115610daa57600080fd5b820183602082011115610dbc57600080fd5b80359060200191846001830284011164010000000083111715610dde57600080fd5b91908080601f016020809104026020016040519081016040528093929190818152602001838380828437600081840152601f19601f82011690508083019250505050505050919291929080359060200190929190803590602001909291905050506120d4565b6040518082815260200191505060405180910390f35b600080600760016007805490500381548110610e7257fe5b90600052602060002090600202016000015490507f807fa0cefbabafb0fb4319dc66094a067d3b5db97ead843cb14671a4f6d2c5db816040518082815260200191505060405180910390a18091505090565b6000600360009054906101000a900473ffffffffffffffffffffffffffffffffffffffff1673ffffffffffffffffffffffffffffffffffffffff163373ffffffffffffffffffffffffffffffffffffffff1614610f2057600080fd5b81600885856040518083838082843780830192505050925050509081526020016040518091039020600501819055508460088585604051808383808284378083019250505092505050908152602001604051809103902060040181905550600160088585604051808383808284378083019250505092505050908152602001604051809103902060060160026101000a81548160ff021916908315150217905550610fd68260045461274990919063ffffffff16565b600481905550610fe46116fb565b600160088585604051808383808284378083019250505092505050908152602001604051809103902060060160016101000a81548160ff021916908315150217905550600160098585604051808383808284378083019250505092505050908152602001604051809103902060040160006101000a81548160ff021916908315150217905550819050949350505050565b6000806000600260009054906101000a900473ffffffffffffffffffffffffffffffffffffffff16600360009054906101000a900473ffffffffffffffffffffffffffffffffffffffff1630925092509250909192565b6000806007600160078054905003815481106110e457fe5b90600052602060002090600202016000015490508091505090565b600a81805160208101820180518482526020830160208501208183528095505050505050600091509050806000018054600181600116156101000203166002900480601f0160208091040260200160405190810160405280929190818152602001828054600181600116156101000203166002900480156111c15780601f10611196576101008083540402835291602001916111c1565b820191906000526020600020905b8154815290600101906020018083116111a457829003601f168201915b5050505050908060010160009054906101000a900473ffffffffffffffffffffffffffffffffffffffff1690806002018054600181600116156101000203166002900480601f0160208091040260200160405190810160405280929190818152602001828054600181600116156101000203166002900480156112855780601f1061125a57610100808354040283529160200191611285565b820191906000526020600020905b81548152906001019060200180831161126857829003601f168201915b5050505050908060030154908060040154905085565b6000806000806606651728988000905060006006600160068054905003815481106112c257fe5b90600052602060002090600a020160050154905060006006600160068054905003815481106112ed57fe5b90600052602060002090600a02016009015490506000604b831061131057602890505b602d831061131d57601490505b6019831061132a57600a90505b601983101561133857600590505b600084820290508181849750975097505050505050909192565b6009818051602081018201805184825260208301602085012081835280955050505050506000915090508060000160009054906101000a900473ffffffffffffffffffffffffffffffffffffffff16908060010154908060020154908060030154908060040160009054906101000a900460ff16908060040160019054906101000a900460ff16908060040160029054906101000a900460ff16908060040160039054906101000a900460ff16908060050154905089565b600160009054906101000a900473ffffffffffffffffffffffffffffffffffffffff1673ffffffffffffffffffffffffffffffffffffffff163373ffffffffffffffffffffffffffffffffffffffff161461146457600080fd5b83600a876040518082805190602001908083835b6020831061149b5780518252602082019150602081019050602083039250611478565b6001836020036101000a038019825116818451168082178552505050505050905001915050908152602001604051809103902060000190805190602001906114e49291906127d1565b5084600a876040518082805190602001908083835b6020831061151c57805182526020820191506020810190506020830392506114f9565b6001836020036101000a038019825116818451168082178552505050505050905001915050908152602001604051809103902060010160006101000a81548173ffffffffffffffffffffffffffffffffffffffff021916908373ffffffffffffffffffffffffffffffffffffffff16021790555082600a876040518082805190602001908083835b602083106115c757805182526020820191506020810190506020830392506115a4565b6001836020036101000a038019825116818451168082178552505050505050905001915050908152602001604051809103902060020190805190602001906116109291906127d1565b5081600a876040518082805190602001908083835b602083106116485780518252602082019150602081019050602083039250611625565b6001836020036101000a03801982511681845116808217855250505050505090500191505090815260200160405180910390206003018190555080600a876040518082805190602001908083835b602083106116b95780518252602082019150602081019050602083039250611696565b6001836020036101000a038019825116818451168082178552505050505050905001915050908152602001604051809103902060040181905550505050505050565b565b60008060045447915091509091565b6008818051602081018201805184825260208301602085012081835280955050505050506000915090508060000154908060010154908060020154908060030160009054906101000a900473ffffffffffffffffffffffffffffffffffffffff16908060040154908060050154908060060160009054906101000a900460ff16908060060160019054906101000a900460ff16908060060160029054906101000a900460ff16905089565b60006008856040518082805190602001908083835b602083106117ef57805182526020820191506020810190506020830392506117cc565b6001836020036101000a03801982511681845116808217855250505050505090500191505090815260200160405180910390206000015414611899576040517f08c379a00000000000000000000000000000000000000000000000000000000081526004018080602001828103825260128152602001807f75736572206e616d652069732074616b656e000000000000000000000000000081525060200191505060405180910390fd5b806008856040518082805190602001908083835b602083106118d057805182526020820191506020810190506020830392506118ad565b6001836020036101000a038019825116818451168082178552505050505050905001915050908152602001604051809103902060000181905550816008856040518082805190602001908083835b60208310611941578051825260208201915060208101905060208303925061191e565b6001836020036101000a038019825116818451168082178552505050505050905001915050908152602001604051809103902060010181905550826008856040518082805190602001908083835b602083106119b2578051825260208201915060208101905060208303925061198f565b6001836020036101000a038019825116818451168082178552505050505050905001915050908152602001604051809103902060020181905550600360009054906101000a900473ffffffffffffffffffffffffffffffffffffffff166008856040518082805190602001908083835b60208310611a455780518252602082019150602081019050602083039250611a22565b6001836020036101000a038019825116818451168082178552505050505050905001915050908152602001604051809103902060030160006101000a81548173ffffffffffffffffffffffffffffffffffffffff021916908373ffffffffffffffffffffffffffffffffffffffff160217905550600360009054906101000a900473ffffffffffffffffffffffffffffffffffffffff166009856040518082805190602001908083835b60208310611b125780518252602082019150602081019050602083039250611aef565b6001836020036101000a038019825116818451168082178552505050505050905001915050908152602001604051809103902060000160006101000a81548173ffffffffffffffffffffffffffffffffffffffff021916908373ffffffffffffffffffffffffffffffffffffffff160217905550600760405180604001604052808381526020018681525090806001815401808255809150509060018203906000526020600020906002020160009091929091909150600082015181600001556020820151816001019080519060200190611bee929190612851565b505050507f856405dc5c423d191949d8712dade6de9a0d115db1bb3b65f334b9e018215a6984846040518080602001838152602001828103825284818151815260200191508051906020019080838360005b83811015611c5b578082015181840152602081019050611c40565b50505050905090810190601f168015611c885780820380516001836020036101000a031916815260200191505b50935050505060405180910390a150505050565b600160009054906101000a900473ffffffffffffffffffffffffffffffffffffffff1673ffffffffffffffffffffffffffffffffffffffff163373ffffffffffffffffffffffffffffffffffffffff1614611cf657600080fd5b60066040518061014001604052808c81526020018b81526020018a8152602001898152602001888152602001878152602001868152602001858152602001848152602001838152509080600181540180825580915050906001820390600052602060002090600a020160009091929091909150600082015181600001556020820151816001015560408201518160020155606082015181600301556080820151816004015560a0820151816005015560c0820151816006015560e08201518160070155610100820151816008015561012082015181600901555050507f2cb3f4d733f3d79088b00f79c0793d8e590b6b319cfc183bedcc434ce67f9057876040518082815260200191505060405180910390a150505050505050505050565b60011515841515148015611e2d575060011515831515145b8015611e3d575060011515821515145b611e92576040517f08c379a00000000000000000000000000000000000000000000000000000000081526004018080602001828103825260228152602001806128f76022913960400191505060405180910390fd5b60016009826040518082805190602001908083835b60208310611eca5780518252602082019150602081019050602083039250611ea7565b6001836020036101000a038019825116818451168082178552505050505050905001915050908152602001604051809103902060040160016101000a81548160ff0219169083151502179055507fce474fcd5a3ddce1c6c968be82029cd603cc3d3ecc0a8b2e1258a96af63d27956001604051808215151515815260200191505060405180910390a150505050565b600160009054906101000a900473ffffffffffffffffffffffffffffffffffffffff1673ffffffffffffffffffffffffffffffffffffffff163373ffffffffffffffffffffffffffffffffffffffff1614611fb357600080fd5b600073ffffffffffffffffffffffffffffffffffffffff168273ffffffffffffffffffffffffffffffffffffffff161415611fed57600080fd5b81600260006101000a81548173ffffffffffffffffffffffffffffffffffffffff021916908373ffffffffffffffffffffffffffffffffffffffff16021790555080600360006101000a81548173ffffffffffffffffffffffffffffffffffffffff021916908373ffffffffffffffffffffffffffffffffffffffff1602179055505050565b6006818154811061208057fe5b90600052602060002090600a0201600091509050806000015490806001015490806002015490806003015490806004015490806005015490806006015490806007015490806008015490806009015490508a565b6000600115158515151480156120ee575060011515861515145b80156120fe575060011515871515145b612170576040517f08c379a000000000000000000000000000000000000000000000000000000000815260040180806020018281038252601f8152602001807f75736572206c6561766520616374696f6e206e6f74206465746563746564210081525060200191505060405180910390fd5b826009856040518082805190602001908083835b602083106121a75780518252602082019150602081019050602083039250612184565b6001836020036101000a038019825116818451168082178552505050505050905001915050908152602001604051809103902060010181905550816009856040518082805190602001908083835b6020831061221857805182526020820191506020810190506020830392506121f5565b6001836020036101000a0380198251168184511680821785525050505050509050019150509081526020016040518091039020600301819055506000836008866040518082805190602001908083835b6020831061228b5780518252602082019150602081019050602083039250612268565b6001836020036101000a038019825116818451168082178552505050505050905001915050908152602001604051809103902060040154039050600066066517289880009050600081830290506005869080600181540180825580915050906001820390600052602060002001600090919290919091505550600a83138061233257507ffffffffffffffffffffffffffffffffffffffffffffffffffffffffffffffff683125b1561259d5760016009886040518082805190602001908083835b6020831061236f578051825260208201915060208101905060208303925061234c565b6001836020036101000a038019825116818451168082178552505050505050905001915050908152602001604051809103902060040160036101000a81548160ff021916908315150217905550806009886040518082805190602001908083835b602083106123f357805182526020820191506020810190506020830392506123d0565b6001836020036101000a038019825116818451168082178552505050505050905001915050908152602001604051809103902060020181905550806008886040518082805190602001908083835b602083106124645780518252602082019150602081019050602083039250612441565b6001836020036101000a038019825116818451168082178552505050505050905001915050908152602001604051809103902060050154016009886040518082805190602001908083835b602083106124d257805182526020820191506020810190506020830392506124af565b6001836020036101000a038019825116818451168082178552505050505050905001915050908152602001604051809103902060050181905550806004540160048190555060016009886040518082805190602001908083835b6020831061254f578051825260208201915060208101905060208303925061252c565b6001836020036101000a038019825116818451168082178552505050505050905001915050908152602001604051809103902060040160026101000a81548160ff0219169083151502179055505b600a831280156125cc57507ffffffffffffffffffffffffffffffffffffffffffffffffffffffffffffffff683135b15612734576008876040518082805190602001908083835b6020831061260757805182526020820191506020810190506020830392506125e4565b6001836020036101000a0380198251168184511680821785525050505050509050019150509081526020016040518091039020600501546009886040518082805190602001908083835b602083106126745780518252602082019150602081019050602083039250612651565b6001836020036101000a03801982511681845116808217855250505050505090500191505090815260200160405180910390206005018190555060016009886040518082805190602001908083835b602083106126e657805182526020820191506020810190506020830392506126c3565b6001836020036101000a038019825116818451168082178552505050505050905001915050908152602001604051809103902060040160026101000a81548160ff0219169083151502179055505b60058054905093505050509695505050505050565b6000808284019050838110156127c7576040517f08c379a000000000000000000000000000000000000000000000000000000000815260040180806020018281038252601b8152602001807f536166654d6174683a206164646974696f6e206f766572666c6f77000000000081525060200191505060405180910390fd5b8091505092915050565b828054600181600116156101000203166002900490600052602060002090601f016020900481019282601f1061281257805160ff1916838001178555612840565b82800160010185558215612840579182015b8281111561283f578251825591602001919060010190612824565b5b50905061284d91906128d1565b5090565b828054600181600116156101000203166002900490600052602060002090601f016020900481019282601f1061289257805160ff19168380011785556128c0565b828001600101855582156128c0579182015b828111156128bf5782518255916020019190600101906128a4565b5b5090506128cd91906128d1565b5090565b6128f391905b808211156128ef5760008160009055506001016128d7565b5090565b9056fe7573657220616374697669747920616374696f6e206e6f7420646574656374656421a265627a7a723158200649bf2f12c7fa55074bbeebef295255067608cde759e823fd107cd29f85dcf664736f6c63430005100032",
  "source": "pragma solidity >=0.5.16;\nimport \"../node_modules/@openzeppelin/contracts/math/SafeMath.sol\";\n\ncontract no1s1data{\n    using SafeMath for uint256;\n\n    address payable no1s1;\n    address payable adminacc;\n    address payable fundingacc;\n    address payable defaultuseracc;\n    uint256 no1s1balance;\n    uint256[] no1s1durations;\n\n    \n    struct partner{\n        string companyname;\n        address payable companyaccount;\n        string partnertype;\n        uint256 workload;\n        uint256 workprice;\n    }\n    \n    struct component{\n        string materiallocation;\n        uint256 materialprice;\n        uint256 materialage;\n    }\n    \n    struct condition{\n        bool isrenovated;\n        uint256 countrenovation;\n        string[] renovationlocation;\n        string[] renovationprice;\n    }\n    \n    struct Material{\n        uint256 materialcount;\n        uint256 totalprice;\n        mapping (string => component) components;\n        mapping (string => condition) conditions;\n    }\n    \n\n    struct Log{\n      uint256 batteryoperatingtemp;\n      uint256 batterycurrent;\n      uint256 batteryvoltage;\n      uint256 batterystateofcharge;\n      uint256 batterychargecycle;\n      uint256 batterycapacity;\n      uint256 pvvoltage;\n      uint256 pvcurrent;\n      uint256 pvchargestate;\n      uint256 time;\n    }\n\n    struct UserID{\n      uint256 uuid;\n      uint256 timereg;\n      uint256 ccode;\n      address payable account;\n      int256 expectedduration;\n      uint256 payamount;\n      bool haveaccount;\n      bool isidentified;\n      bool ispaid;\n    }\n\n    struct User{\n      uint256 uuid;\n      string username;\n    }\n\n    struct UserUSAGE{\n        address account;\n        uint256 actualduration;\n        int256 paychangeamount;\n        uint256 timeex;\n        bool grantedentrance;\n        bool startedmeditation;\n        bool serviceclosed;\n        bool paychanged;\n        uint256 actualpayment;\n    }\n\n    \n\n    /************the material identity**************/\n\n\n    Log[] public logs;\n    User[] private users;\n    //User[] public users;\n    //UsageHistory[] private histories;\n    //mapping (uint256 => Log[]) logs;\n    //mapping (uint256 => No1s1[]) no1s1histories;\n    mapping (string => UserID) public usersid;\n    mapping (string => UserUSAGE) public usersusage;\n    mapping (string => partner) public partners;\n\n    constructor()public{\n      adminacc=msg.sender;\n    }\n\n    modifier onlyAdmin{\n      require(msg.sender == adminacc);\n      _;\n    }\n\n    modifier onlyMe{\n      require(msg.sender == no1s1);\n      _;\n    }\n\n    modifier onlyFundacc{\n      require(msg.sender == fundingacc);\n      _;\n    }\n    \n    modifier onlyDefault{\n      require(msg.sender == defaultuseracc);\n      _;\n    } \n\n\n    event no1s1update(uint batterystateofcharge);\n    function broadcastData(uint256 _Btemp,uint256 _Bcurrent,uint256 _Bvoltage,uint256 _BSOC,uint256 _BCS,uint256 _Bcapacity,uint256 _Pvoltage,uint256 _Pcurrent,uint256 _Pchargestate, uint256 _time)public onlyAdmin{\n        logs.push(Log(\n          {batteryoperatingtemp: _Btemp,\n          batterycurrent: _Bcurrent, \n          batteryvoltage: _Bvoltage,\n          batterystateofcharge: _BSOC, \n          batterychargecycle: _BCS, \n          batterycapacity: _Bcapacity,\n          pvvoltage: _Pvoltage,\n          pvcurrent: _Pcurrent,\n          pvchargestate: _Pchargestate,\n          time:_time}\n          ));\n        \n        emit no1s1update(_BSOC);\n    }\n    \n\n\n    event newUserRegistered(string userName,uint256 confirmationCode); \n    function initNewUser(string memory _username, uint256 _cCode, uint256 _time, uint256 _uuid) public {\n      require( usersid[_username].uuid ==  0 , \"user name is taken\");\n      usersid[_username].uuid = _uuid;\n      usersid[_username].timereg = _time;\n      usersid[_username].ccode = _cCode;\n      usersid[_username].account = defaultuseracc;\n      usersusage[_username].account = defaultuseracc;\n      users.push(User({uuid:_uuid,username:_username}));\n      //return _username;\n      emit newUserRegistered(_username, _cCode);\n      //do i calculate a uuid and ccode here?\n      //does it need emit? \n      //does it need return\n    }\n\n    function checkStatus()public view returns(int256 c_allowtime,uint256 estimated_cost ,uint256 update_time) {\n      /*require (logs.length == 0, \"no registered data yet\");*/\n      int weiperchf = 18e14;\n      //uint256 costpm = weiperchf; \n      uint256 current_energy=logs[logs.length-1].batterycapacity;\n      uint256 last_time=logs[logs.length-1].time;\n      int256 _duration;\n      if(current_energy >= 75 ){\n            _duration = 40;}\n        if(current_energy >= 45 ){\n            _duration = 20;}\n        if(current_energy >= 25 ){\n            _duration = 10;}\n        if(current_energy <25 ){\n            _duration = 5;}\n        uint256 servicecost = uint256(_duration * weiperchf);\n        return (_duration,servicecost,last_time);\n    }\n    \n    function setUserAccounts(address payable _fundingAddress, address payable _defaultAddress)public onlyAdmin{\n      require(_fundingAddress != address(0));\n      fundingacc=_fundingAddress;\n      defaultuseracc =_defaultAddress;\n    }\n    \n    function setPartner(string memory _partnername, address payable _partnerAddress,string memory _companyname,string memory _partnertype, uint256 _workload,uint256 _workprice) public onlyAdmin{\n        partners[_partnername].companyname=_companyname;\n        partners[_partnername].companyaccount= _partnerAddress;\n        partners[_partnername].partnertype= _partnertype;\n        partners[_partnername].workload= _workload;\n        partners[_partnername].workprice= _workprice;\n    }\n    \n    \n    function whatismyacc() public view returns(address payable,address payable,address){\n        return (fundingacc,defaultuseracc,address(this));\n    }\n    \n    function whatismybalance() public view returns(uint256,uint256){\n        return (no1s1balance, address(this).balance);\n    }\n\n    event whatuuid(uint theuuid);\n    function whatisuseruuid() public returns(uint256){\n      uint256 lastuuid=users[users.length-1].uuid;\n      emit whatuuid(lastuuid);\n      return (lastuuid);\n    }\n\n    \n    function whatisuseruuid2() public view returns(uint256){\n      uint256 lastuuid=users[users.length-1].uuid;\n      return (lastuuid);\n    }\n\n    /*exucable once every season*/\n    // function fundDefault()external onlyFundacc payable{\n    //     address payable _to = defaultuseracc;\n    //     (bool sent, bytes memory data) = _to.call;/*{value: msg.value}(\"\");*/\n    //     require (sent, \"payment failed!\");\n    // }\n\n    function userPay(int _selectedDuration, string calldata _username, uint256 _selectedCost) external onlyDefault payable returns(uint256){\n    /*msg.value* is survice cost*/\n    usersid[_username].payamount = _selectedCost;\n    usersid[_username].expectedduration = _selectedDuration;\n    usersid[_username].ispaid = true;\n    no1s1balance = no1s1balance.add(_selectedCost);\n    toContract();\n    usersid[_username].isidentified = true;\n    usersusage[_username].grantedentrance =  true;\n    return _selectedCost; \n    /*address payable payacc=usersid[_username].account;*/\n    /*(bool sent, bytes memory data) = usersid[_username].account.call{value: msg.value}(\"\");*/\n    /*ToContract{value:servicecost}(log1, log2, log3);*/\n    /*ToContract(servicecost);*/\n    /*require (sent, \"payment failed!\");*/\n    }\n    \n    function toContract() public payable {\n        \n    }\n    \n    event userAction(bool userActionConfirmed);\n    function userActive(bool _pressuredetected, bool _dooropened, bool _motiondetected, string memory _username) public {\n      require(_pressuredetected == true && _dooropened == true && _motiondetected == true, \"user activity action not detected!\");\n      usersusage[_username].startedmeditation = true;\n      emit userAction(true);\n    }\n    \n    function serviceClose(bool _motiondetected, bool _dooropened, bool _handletriggered, string memory _username, uint256 _actualduration, uint256 _timeex) public returns (uint) {\n      require(_handletriggered == true && _dooropened == true && _motiondetected == true, \"user leave action not detected!\");\n      usersusage[_username].actualduration = _actualduration;\n      usersusage[_username].timeex = _timeex;\n      int256 durationdif_min = usersid[_username].expectedduration - int256(_actualduration);\n      int256 weiperchf = 18e14;\n      //uint256 costpm = weiperchf;\n      int256 costdif = durationdif_min * weiperchf;\n      no1s1durations.push(_actualduration);\n      if (durationdif_min > 10 || durationdif_min < -10){\n        usersusage[_username].paychanged = true; \n        usersusage[_username].paychangeamount = costdif;\n        usersusage[_username].actualpayment = uint256(int256(usersid[_username].payamount) + costdif);\n        no1s1balance= uint256(int256(no1s1balance)+costdif);\n        usersusage[_username].serviceclosed = true;\n      }\n      if ( durationdif_min < 10 && durationdif_min > -10){\n          usersusage[_username].actualpayment=usersid[_username].payamount;\n          usersusage[_username].serviceclosed = true;\n      }\n      return no1s1durations.length;\n    }\n\n\n//uint256 historyID = no1s1histories.push(No1s1(_totalpayment,_totalduration));\n//      UsageHistory=histories[historyID];\n //     return historyID;\n\n\n\n\n}\n\n",
  "sourcePath": "/Users/una/Documents/GitHub/no1s1-web/contracts/no1s1data.sol",
  "compiler": {
    "name": "solc",
    "version": "0.5.16+commit.9c3226ce.Emscripten.clang"
  },
  "schemaVersion": "3.2.5",
  "updatedAt": "2021-03-17T09:13:45.778Z",
  "networkType": "ethereum",
  "devdoc": {
    "methods": {}
  },
  "userdoc": {
    "methods": {}
  }
}