{
  "contractName": "no1s1data",
  "abi": [
    {
      "inputs": [],
      "stateMutability": "nonpayable",
      "type": "constructor"
    },
    {
      "anonymous": false,
      "inputs": [
        {
          "indexed": false,
          "internalType": "uint256",
          "name": "pviv",
          "type": "uint256"
        },
        {
          "indexed": false,
          "internalType": "uint256",
          "name": "soe",
          "type": "uint256"
        },
        {
          "indexed": false,
          "internalType": "uint256",
          "name": "bsoc",
          "type": "uint256"
        },
        {
          "indexed": false,
          "internalType": "int256",
          "name": "adur",
          "type": "int256"
        },
        {
          "indexed": false,
          "internalType": "uint256",
          "name": "cost",
          "type": "uint256"
        }
      ],
      "name": "LastLog",
      "type": "event"
    },
    {
      "anonymous": false,
      "inputs": [
        {
          "indexed": false,
          "internalType": "string",
          "name": "userName",
          "type": "string"
        },
        {
          "indexed": false,
          "internalType": "uint256",
          "name": "confirmationCode",
          "type": "uint256"
        }
      ],
      "name": "newUserRegistered",
      "type": "event"
    },
    {
      "anonymous": false,
      "inputs": [
        {
          "indexed": false,
          "internalType": "uint256",
          "name": "batterystateofcharge",
          "type": "uint256"
        }
      ],
      "name": "no1s1update",
      "type": "event"
    },
    {
      "anonymous": false,
      "inputs": [
        {
          "indexed": false,
          "internalType": "bool",
          "name": "userActionConfirmed",
          "type": "bool"
        }
      ],
      "name": "userAction",
      "type": "event"
    },
    {
      "anonymous": false,
      "inputs": [
        {
          "indexed": false,
          "internalType": "uint256",
          "name": "theuuid",
          "type": "uint256"
        }
      ],
      "name": "whatuuid",
      "type": "event"
    },
    {
      "inputs": [
        {
          "internalType": "uint256",
          "name": "",
          "type": "uint256"
        }
      ],
      "name": "logs",
      "outputs": [
        {
          "internalType": "uint256",
          "name": "batterycurrent",
          "type": "uint256"
        },
        {
          "internalType": "uint256",
          "name": "batteryvoltage",
          "type": "uint256"
        },
        {
          "internalType": "uint256",
          "name": "batterystateofcharge",
          "type": "uint256"
        },
        {
          "internalType": "uint256",
          "name": "pvvoltage",
          "type": "uint256"
        },
        {
          "internalType": "uint256",
          "name": "pvcurrent",
          "type": "uint256"
        },
        {
          "internalType": "uint256",
          "name": "systempower",
          "type": "uint256"
        },
        {
          "internalType": "uint256",
          "name": "time",
          "type": "uint256"
        },
        {
          "internalType": "int256",
          "name": "allowedduration",
          "type": "int256"
        },
        {
          "internalType": "uint256",
          "name": "cost",
          "type": "uint256"
        }
      ],
      "stateMutability": "view",
      "type": "function",
      "constant": true
    },
    {
      "inputs": [
        {
          "internalType": "string",
          "name": "",
          "type": "string"
        }
      ],
      "name": "partners",
      "outputs": [
        {
          "internalType": "string",
          "name": "companyname",
          "type": "string"
        },
        {
          "internalType": "address payable",
          "name": "companyaccount",
          "type": "address"
        },
        {
          "internalType": "string",
          "name": "partnertype",
          "type": "string"
        },
        {
          "internalType": "uint256",
          "name": "workload",
          "type": "uint256"
        },
        {
          "internalType": "uint256",
          "name": "workprice",
          "type": "uint256"
        }
      ],
      "stateMutability": "view",
      "type": "function",
      "constant": true
    },
    {
      "inputs": [
        {
          "internalType": "string",
          "name": "",
          "type": "string"
        }
      ],
      "name": "usersid",
      "outputs": [
        {
          "internalType": "uint256",
          "name": "uuid",
          "type": "uint256"
        },
        {
          "internalType": "uint256",
          "name": "timereg",
          "type": "uint256"
        },
        {
          "internalType": "uint256",
          "name": "ccode",
          "type": "uint256"
        },
        {
          "internalType": "address payable",
          "name": "account",
          "type": "address"
        },
        {
          "internalType": "int256",
          "name": "expectedduration",
          "type": "int256"
        },
        {
          "internalType": "uint256",
          "name": "payamount",
          "type": "uint256"
        },
        {
          "internalType": "bool",
          "name": "haveaccount",
          "type": "bool"
        },
        {
          "internalType": "bool",
          "name": "isidentified",
          "type": "bool"
        },
        {
          "internalType": "bool",
          "name": "ispaid",
          "type": "bool"
        }
      ],
      "stateMutability": "view",
      "type": "function",
      "constant": true
    },
    {
      "inputs": [
        {
          "internalType": "string",
          "name": "",
          "type": "string"
        }
      ],
      "name": "usersusage",
      "outputs": [
        {
          "internalType": "address",
          "name": "account",
          "type": "address"
        },
        {
          "internalType": "uint256",
          "name": "actualduration",
          "type": "uint256"
        },
        {
          "internalType": "int256",
          "name": "paychangeamount",
          "type": "int256"
        },
        {
          "internalType": "uint256",
          "name": "timeex",
          "type": "uint256"
        },
        {
          "internalType": "bool",
          "name": "grantedentrance",
          "type": "bool"
        },
        {
          "internalType": "bool",
          "name": "startedmeditation",
          "type": "bool"
        },
        {
          "internalType": "bool",
          "name": "serviceclosed",
          "type": "bool"
        },
        {
          "internalType": "bool",
          "name": "paychanged",
          "type": "bool"
        },
        {
          "internalType": "uint256",
          "name": "actualpayment",
          "type": "uint256"
        }
      ],
      "stateMutability": "view",
      "type": "function",
      "constant": true
    },
    {
      "inputs": [
        {
          "internalType": "uint256",
          "name": "_Bcurrent",
          "type": "uint256"
        },
        {
          "internalType": "uint256",
          "name": "_Bvoltage",
          "type": "uint256"
        },
        {
          "internalType": "uint256",
          "name": "_BSOC",
          "type": "uint256"
        },
        {
          "internalType": "uint256",
          "name": "_Pvoltage",
          "type": "uint256"
        },
        {
          "internalType": "uint256",
          "name": "_Pcurrent",
          "type": "uint256"
        },
        {
          "internalType": "uint256",
          "name": "_Senergy",
          "type": "uint256"
        },
        {
          "internalType": "uint256",
          "name": "_time",
          "type": "uint256"
        }
      ],
      "name": "broadcastData",
      "outputs": [],
      "stateMutability": "nonpayable",
      "type": "function"
    },
    {
      "inputs": [
        {
          "internalType": "string",
          "name": "_username",
          "type": "string"
        },
        {
          "internalType": "uint256",
          "name": "_cCode",
          "type": "uint256"
        },
        {
          "internalType": "uint256",
          "name": "_time",
          "type": "uint256"
        },
        {
          "internalType": "uint256",
          "name": "_uuid",
          "type": "uint256"
        }
      ],
      "name": "initNewUser",
      "outputs": [],
      "stateMutability": "nonpayable",
      "type": "function"
    },
    {
      "inputs": [],
      "name": "checkStatus",
      "outputs": [
        {
          "internalType": "int256",
          "name": "c_allowtime",
          "type": "int256"
        },
        {
          "internalType": "uint256",
          "name": "estimated_cost",
          "type": "uint256"
        },
        {
          "internalType": "uint256",
          "name": "update_time",
          "type": "uint256"
        }
      ],
      "stateMutability": "view",
      "type": "function",
      "constant": true
    },
    {
      "inputs": [
        {
          "internalType": "address payable",
          "name": "_fundingAddress",
          "type": "address"
        },
        {
          "internalType": "address payable",
          "name": "_defaultAddress",
          "type": "address"
        }
      ],
      "name": "setUserAccounts",
      "outputs": [],
      "stateMutability": "nonpayable",
      "type": "function"
    },
    {
      "inputs": [
        {
          "internalType": "string",
          "name": "_partnername",
          "type": "string"
        },
        {
          "internalType": "address payable",
          "name": "_partnerAddress",
          "type": "address"
        },
        {
          "internalType": "string",
          "name": "_companyname",
          "type": "string"
        },
        {
          "internalType": "string",
          "name": "_partnertype",
          "type": "string"
        },
        {
          "internalType": "uint256",
          "name": "_workload",
          "type": "uint256"
        },
        {
          "internalType": "uint256",
          "name": "_workprice",
          "type": "uint256"
        }
      ],
      "name": "setPartner",
      "outputs": [],
      "stateMutability": "nonpayable",
      "type": "function"
    },
    {
      "inputs": [],
      "name": "whatismyacc",
      "outputs": [
        {
          "internalType": "address payable",
          "name": "",
          "type": "address"
        },
        {
          "internalType": "address payable",
          "name": "",
          "type": "address"
        },
        {
          "internalType": "address",
          "name": "",
          "type": "address"
        }
      ],
      "stateMutability": "view",
      "type": "function",
      "constant": true
    },
    {
      "inputs": [],
      "name": "whatismybalance",
      "outputs": [
        {
          "internalType": "uint256",
          "name": "",
          "type": "uint256"
        },
        {
          "internalType": "uint256",
          "name": "",
          "type": "uint256"
        }
      ],
      "stateMutability": "view",
      "type": "function",
      "constant": true
    },
    {
      "inputs": [],
      "name": "whatisuseruuid",
      "outputs": [
        {
          "internalType": "uint256",
          "name": "",
          "type": "uint256"
        }
      ],
      "stateMutability": "nonpayable",
      "type": "function"
    },
    {
      "inputs": [],
      "name": "mylastlogs",
      "outputs": [
        {
          "internalType": "uint256",
          "name": "",
          "type": "uint256"
        },
        {
          "internalType": "uint256",
          "name": "",
          "type": "uint256"
        },
        {
          "internalType": "uint256",
          "name": "",
          "type": "uint256"
        },
        {
          "internalType": "int256",
          "name": "",
          "type": "int256"
        },
        {
          "internalType": "uint256",
          "name": "",
          "type": "uint256"
        }
      ],
      "stateMutability": "nonpayable",
      "type": "function"
    },
    {
      "inputs": [
        {
          "internalType": "int256",
          "name": "_selectedDuration",
          "type": "int256"
        },
        {
          "internalType": "string",
          "name": "_username",
          "type": "string"
        },
        {
          "internalType": "uint256",
          "name": "_selectedCost",
          "type": "uint256"
        }
      ],
      "name": "userPay",
      "outputs": [
        {
          "internalType": "uint256",
          "name": "",
          "type": "uint256"
        }
      ],
      "stateMutability": "payable",
      "type": "function",
      "payable": true
    },
    {
      "inputs": [],
      "name": "toContract",
      "outputs": [],
      "stateMutability": "payable",
      "type": "function",
      "payable": true
    },
    {
      "inputs": [
        {
          "internalType": "bool",
          "name": "_pressuredetected",
          "type": "bool"
        },
        {
          "internalType": "bool",
          "name": "_dooropened",
          "type": "bool"
        },
        {
          "internalType": "bool",
          "name": "_motiondetected",
          "type": "bool"
        },
        {
          "internalType": "string",
          "name": "_username",
          "type": "string"
        }
      ],
      "name": "userActive",
      "outputs": [],
      "stateMutability": "nonpayable",
      "type": "function"
    },
    {
      "inputs": [
        {
          "internalType": "bool",
          "name": "_motiondetected",
          "type": "bool"
        },
        {
          "internalType": "bool",
          "name": "_dooropened",
          "type": "bool"
        },
        {
          "internalType": "bool",
          "name": "_handletriggered",
          "type": "bool"
        },
        {
          "internalType": "string",
          "name": "_username",
          "type": "string"
        },
        {
          "internalType": "uint256",
          "name": "_actualduration",
          "type": "uint256"
        },
        {
          "internalType": "uint256",
          "name": "_timeex",
          "type": "uint256"
        }
      ],
      "name": "serviceClose",
      "outputs": [
        {
          "internalType": "uint256",
          "name": "",
          "type": "uint256"
        }
      ],
      "stateMutability": "nonpayable",
      "type": "function"
    }
  ],
  "bytecode": "0x608060405234801561001057600080fd5b5033600160006101000a81548173ffffffffffffffffffffffffffffffffffffffff021916908373ffffffffffffffffffffffffffffffffffffffff160217905550612930806100616000396000f3fe6080604052600436106100fd5760003560e01c806361b21f4d11610095578063c81c5bde11610064578063c81c5bde14610333578063cebfe4ff1461035c578063d9be18e91461038b578063e79899bd146103b4578063ea22c247146103f9576100fd565b806361b21f4d1461028f5780637f4c42c31461029957806388debc31146102c5578063b8e51fb71461030a576100fd565b80633b7104f2116100d15780633b7104f2146101cb5780633bf3d530146101f8578063457967aa1461023d5780635241893114610266576100fd565b80621fe73f14610102578063179a9f181461012d5780631c3400901461015d5780632acd01f81461018a575b600080fd5b34801561010e57600080fd5b50610117610436565b6040516101249190612226565b60405180910390f35b61014760048036038101906101429190611b6f565b6104d6565b6040516101549190612226565b60405180910390f35b34801561016957600080fd5b50610172610664565b6040516101819392919061201f565b60405180910390f35b34801561019657600080fd5b506101b160048036038101906101ac9190611bdb565b6106bb565b6040516101c2959493929190612135565b60405180910390f35b3480156101d757600080fd5b506101e0610837565b6040516101ef939291906120fe565b60405180910390f35b34801561020457600080fd5b5061021f600480360381019061021a9190611bdb565b610963565b60405161023499989796959493929190612056565b60405180910390f35b34801561024957600080fd5b50610264600480360381019061025f9190611d91565b610a1b565b005b34801561027257600080fd5b5061028d60048036038101906102889190611c1c565b610bd9565b005b610297610d53565b005b3480156102a557600080fd5b506102ae610d55565b6040516102bc929190612241565b60405180910390f35b3480156102d157600080fd5b506102ec60048036038101906102e79190611bdb565b610d64565b6040516103019998979695949392919061226a565b60405180910390f35b34801561031657600080fd5b50610331600480360381019061032c9190611ced565b610e0f565b005b34801561033f57600080fd5b5061035a60048036038101906103559190611a53565b611091565b005b34801561036857600080fd5b50610371611170565b6040516103829594939291906122f7565b60405180910390f35b34801561039757600080fd5b506103b260048036038101906103ad9190611a17565b6113b6565b005b3480156103c057600080fd5b506103db60048036038101906103d69190611d68565b6114d0565b6040516103f09998979695949392919061234a565b60405180910390f35b34801561040557600080fd5b50610420600480360381019061041b9190611ace565b61152e565b60405161042d9190612226565b60405180910390f35b6000806007600160078054905061044d91906126f4565b81548110610484577f4e487b7100000000000000000000000000000000000000000000000000000000600052603260045260246000fd5b90600052602060002090600202016000015490507f807fa0cefbabafb0fb4319dc66094a067d3b5db97ead843cb14671a4f6d2c5db816040516104c79190612226565b60405180910390a18091505090565b6000600360009054906101000a900473ffffffffffffffffffffffffffffffffffffffff1673ffffffffffffffffffffffffffffffffffffffff163373ffffffffffffffffffffffffffffffffffffffff161461053257600080fd5b8160088585604051610545929190611fef565b908152602001604051809103902060050181905550846008858560405161056d929190611fef565b908152602001604051809103902060040181905550600160088585604051610596929190611fef565b908152602001604051809103902060060160026101000a81548160ff0219169083151502179055506105d38260045461185890919063ffffffff16565b6004819055506105e1610d53565b6001600885856040516105f5929190611fef565b908152602001604051809103902060060160016101000a81548160ff021916908315150217905550600160098585604051610631929190611fef565b908152602001604051809103902060040160006101000a81548160ff021916908315150217905550819050949350505050565b6000806000600260009054906101000a900473ffffffffffffffffffffffffffffffffffffffff16600360009054906101000a900473ffffffffffffffffffffffffffffffffffffffff1630925092509250909192565b600a818051602081018201805184825260208301602085012081835280955050505050506000915090508060000180546106f4906127ce565b80601f0160208091040260200160405190810160405280929190818152602001828054610720906127ce565b801561076d5780601f106107425761010080835404028352916020019161076d565b820191906000526020600020905b81548152906001019060200180831161075057829003601f168201915b5050505050908060010160009054906101000a900473ffffffffffffffffffffffffffffffffffffffff16908060020180546107a8906127ce565b80601f01602080910402602001604051908101604052809291908181526020018280546107d4906127ce565b80156108215780601f106107f657610100808354040283529160200191610821565b820191906000526020600020905b81548152906001019060200180831161080457829003601f168201915b5050505050908060030154908060040154905085565b6000806000806606651728988000905060006006600160068054905061085d91906126f4565b81548110610894577f4e487b7100000000000000000000000000000000000000000000000000000000600052603260045260246000fd5b90600052602060002090600902016002015490506000600660016006805490506108be91906126f4565b815481106108f5577f4e487b7100000000000000000000000000000000000000000000000000000000600052603260045260246000fd5b90600052602060002090600902016006015490506000604b831061091857602890505b602d831061092557601490505b6019831061093257600a90505b601983101561094057600590505b6000848261094e9190612549565b90508181849750975097505050505050909192565b6009818051602081018201805184825260208301602085012081835280955050505050506000915090508060000160009054906101000a900473ffffffffffffffffffffffffffffffffffffffff16908060010154908060020154908060030154908060040160009054906101000a900460ff16908060040160019054906101000a900460ff16908060040160029054906101000a900460ff16908060040160039054906101000a900460ff16908060050154905089565b600160009054906101000a900473ffffffffffffffffffffffffffffffffffffffff1673ffffffffffffffffffffffffffffffffffffffff163373ffffffffffffffffffffffffffffffffffffffff1614610a7557600080fd5b60006606651728988000905060008690506000604b8210610a9557602d90505b602d8210610aa257601990505b60198210610aaf57600f90505b6019821015610abd57600590505b60008382610acb9190612549565b905060066040518061012001604052808d81526020018c81526020018b81526020018a8152602001898152602001888152602001878152602001848152602001838152509080600181540180825580915050600190039060005260206000209060090201600090919091909150600082015181600001556020820151816001015560408201518160020155606082015181600301556080820151816004015560a0820151816005015560c0820151816006015560e08201518160070155610100820151816008015550507f2cb3f4d733f3d79088b00f79c0793d8e590b6b319cfc183bedcc434ce67f905789604051610bc49190612226565b60405180910390a15050505050505050505050565b600160009054906101000a900473ffffffffffffffffffffffffffffffffffffffff1673ffffffffffffffffffffffffffffffffffffffff163373ffffffffffffffffffffffffffffffffffffffff1614610c3357600080fd5b83600a87604051610c449190612008565b90815260200160405180910390206000019080519060200190610c6892919061186e565b5084600a87604051610c7a9190612008565b908152602001604051809103902060010160006101000a81548173ffffffffffffffffffffffffffffffffffffffff021916908373ffffffffffffffffffffffffffffffffffffffff16021790555082600a87604051610cda9190612008565b90815260200160405180910390206002019080519060200190610cfe92919061186e565b5081600a87604051610d109190612008565b90815260200160405180910390206003018190555080600a87604051610d369190612008565b908152602001604051809103902060040181905550505050505050565b565b60008060045447915091509091565b6008818051602081018201805184825260208301602085012081835280955050505050506000915090508060000154908060010154908060020154908060030160009054906101000a900473ffffffffffffffffffffffffffffffffffffffff16908060040154908060050154908060060160009054906101000a900460ff16908060060160019054906101000a900460ff16908060060160029054906101000a900460ff16905089565b6000600885604051610e219190612008565b90815260200160405180910390206000015414610e73576040517f08c379a0000000000000000000000000000000000000000000000000000000008152600401610e6a906121e6565b60405180910390fd5b80600885604051610e849190612008565b90815260200160405180910390206000018190555081600885604051610eaa9190612008565b90815260200160405180910390206001018190555082600885604051610ed09190612008565b908152602001604051809103902060020181905550600360009054906101000a900473ffffffffffffffffffffffffffffffffffffffff16600885604051610f189190612008565b908152602001604051809103902060030160006101000a81548173ffffffffffffffffffffffffffffffffffffffff021916908373ffffffffffffffffffffffffffffffffffffffff160217905550600360009054906101000a900473ffffffffffffffffffffffffffffffffffffffff16600985604051610f9a9190612008565b908152602001604051809103902060000160006101000a81548173ffffffffffffffffffffffffffffffffffffffff021916908373ffffffffffffffffffffffffffffffffffffffff1602179055506007604051806040016040528083815260200186815250908060018154018082558091505060019003906000526020600020906002020160009091909190915060008201518160000155602082015181600101908051906020019061104f92919061186e565b5050507f856405dc5c423d191949d8712dade6de9a0d115db1bb3b65f334b9e018215a698484604051611083929190612196565b60405180910390a150505050565b600115158415151480156110a9575060011515831515145b80156110b9575060011515821515145b6110f8576040517f08c379a00000000000000000000000000000000000000000000000000000000081526004016110ef90612206565b60405180910390fd5b600160098260405161110a9190612008565b908152602001604051809103902060040160016101000a81548160ff0219169083151502179055507fce474fcd5a3ddce1c6c968be82029cd603cc3d3ecc0a8b2e1258a96af63d2795600160405161116291906120e3565b60405180910390a150505050565b6000806000806000806006600160068054905061118d91906126f4565b815481106111c4577f4e487b7100000000000000000000000000000000000000000000000000000000600052603260045260246000fd5b90600052602060002090600902016003015490506000600660016006805490506111ee91906126f4565b81548110611225577f4e487b7100000000000000000000000000000000000000000000000000000000600052603260045260246000fd5b906000526020600020906009020160050154905060006006600160068054905061124f91906126f4565b81548110611286577f4e487b7100000000000000000000000000000000000000000000000000000000600052603260045260246000fd5b90600052602060002090600902016002015490506000600660016006805490506112b091906126f4565b815481106112e7577f4e487b7100000000000000000000000000000000000000000000000000000000600052603260045260246000fd5b906000526020600020906009020160070154905060006006600160068054905061131191906126f4565b81548110611348577f4e487b7100000000000000000000000000000000000000000000000000000000600052603260045260246000fd5b90600052602060002090600902016008015490507f5ba5debafe3adc7085c8bc7576bff320ffb2190848b3b169b82d537d9193b7fa85858585856040516113939594939291906122f7565b60405180910390a184848484849950995099509950995050505050509091929394565b600160009054906101000a900473ffffffffffffffffffffffffffffffffffffffff1673ffffffffffffffffffffffffffffffffffffffff163373ffffffffffffffffffffffffffffffffffffffff161461141057600080fd5b600073ffffffffffffffffffffffffffffffffffffffff168273ffffffffffffffffffffffffffffffffffffffff16141561144a57600080fd5b81600260006101000a81548173ffffffffffffffffffffffffffffffffffffffff021916908373ffffffffffffffffffffffffffffffffffffffff16021790555080600360006101000a81548173ffffffffffffffffffffffffffffffffffffffff021916908373ffffffffffffffffffffffffffffffffffffffff1602179055505050565b600681815481106114e057600080fd5b90600052602060002090600902016000915090508060000154908060010154908060020154908060030154908060040154908060050154908060060154908060070154908060080154905089565b600060011515851515148015611548575060011515861515145b8015611558575060011515871515145b611597576040517f08c379a000000000000000000000000000000000000000000000000000000000815260040161158e906121c6565b60405180910390fd5b826009856040516115a89190612008565b908152602001604051809103902060010181905550816009856040516115ce9190612008565b9081526020016040518091039020600301819055506000836008866040516115f69190612008565b9081526020016040518091039020600401546116129190612660565b90506000660665172898800090506000818361162e9190612549565b90506005869080600181540180825580915050600190039060005260206000200160009091909190915055600a83138061168757507ffffffffffffffffffffffffffffffffffffffffffffffffffffffffffffffff683125b1561178d57600160098860405161169e9190612008565b908152602001604051809103902060040160036101000a81548160ff021916908315150217905550806009886040516116d79190612008565b908152602001604051809103902060020181905550806008886040516116fd9190612008565b908152602001604051809103902060050154611719919061245f565b6009886040516117299190612008565b9081526020016040518091039020600501819055508060045461174c919061245f565b60048190555060016009886040516117649190612008565b908152602001604051809103902060040160026101000a81548160ff0219169083151502179055505b600a831280156117bc57507ffffffffffffffffffffffffffffffffffffffffffffffffffffffffffffffff683135b15611843576008876040516117d19190612008565b9081526020016040518091039020600501546009886040516117f39190612008565b908152602001604051809103902060050181905550600160098860405161181a9190612008565b908152602001604051809103902060040160026101000a81548160ff0219169083151502179055505b60058054905093505050509695505050505050565b6000818361186691906124f3565b905092915050565b82805461187a906127ce565b90600052602060002090601f01602090048101928261189c57600085556118e3565b82601f106118b557805160ff19168380011785556118e3565b828001600101855582156118e3579182015b828111156118e25782518255916020019190600101906118c7565b5b5090506118f091906118f4565b5090565b5b8082111561190d5760008160009055506001016118f5565b5090565b600061192461191f84612408565b6123d7565b90508281526020810184848401111561193c57600080fd5b61194784828561278c565b509392505050565b60008135905061195e8161289e565b92915050565b600081359050611973816128b5565b92915050565b600081359050611988816128cc565b92915050565b60008083601f8401126119a057600080fd5b8235905067ffffffffffffffff8111156119b957600080fd5b6020830191508360018202830111156119d157600080fd5b9250929050565b600082601f8301126119e957600080fd5b81356119f9848260208601611911565b91505092915050565b600081359050611a11816128e3565b92915050565b60008060408385031215611a2a57600080fd5b6000611a388582860161194f565b9250506020611a498582860161194f565b9150509250929050565b60008060008060808587031215611a6957600080fd5b6000611a7787828801611964565b9450506020611a8887828801611964565b9350506040611a9987828801611964565b925050606085013567ffffffffffffffff811115611ab657600080fd5b611ac2878288016119d8565b91505092959194509250565b60008060008060008060c08789031215611ae757600080fd5b6000611af589828a01611964565b9650506020611b0689828a01611964565b9550506040611b1789828a01611964565b945050606087013567ffffffffffffffff811115611b3457600080fd5b611b4089828a016119d8565b9350506080611b5189828a01611a02565b92505060a0611b6289828a01611a02565b9150509295509295509295565b60008060008060608587031215611b8557600080fd5b6000611b9387828801611979565b945050602085013567ffffffffffffffff811115611bb057600080fd5b611bbc8782880161198e565b93509350506040611bcf87828801611a02565b91505092959194509250565b600060208284031215611bed57600080fd5b600082013567ffffffffffffffff811115611c0757600080fd5b611c13848285016119d8565b91505092915050565b60008060008060008060c08789031215611c3557600080fd5b600087013567ffffffffffffffff811115611c4f57600080fd5b611c5b89828a016119d8565b9650506020611c6c89828a0161194f565b955050604087013567ffffffffffffffff811115611c8957600080fd5b611c9589828a016119d8565b945050606087013567ffffffffffffffff811115611cb257600080fd5b611cbe89828a016119d8565b9350506080611ccf89828a01611a02565b92505060a0611ce089828a01611a02565b9150509295509295509295565b60008060008060808587031215611d0357600080fd5b600085013567ffffffffffffffff811115611d1d57600080fd5b611d29878288016119d8565b9450506020611d3a87828801611a02565b9350506040611d4b87828801611a02565b9250506060611d5c87828801611a02565b91505092959194509250565b600060208284031215611d7a57600080fd5b6000611d8884828501611a02565b91505092915050565b600080600080600080600060e0888a031215611dac57600080fd5b6000611dba8a828b01611a02565b9750506020611dcb8a828b01611a02565b9650506040611ddc8a828b01611a02565b9550506060611ded8a828b01611a02565b9450506080611dfe8a828b01611a02565b93505060a0611e0f8a828b01611a02565b92505060c0611e208a828b01611a02565b91505092959891949750929550565b611e388161273a565b82525050565b611e4781612728565b82525050565b611e568161274c565b82525050565b611e6581612758565b82525050565b6000611e778385612454565b9350611e8483858461278c565b82840190509392505050565b6000611e9b82612438565b611ea58185612443565b9350611eb581856020860161279b565b611ebe8161288d565b840191505092915050565b6000611ed482612438565b611ede8185612454565b9350611eee81856020860161279b565b80840191505092915050565b6000611f07601f83612443565b91507f75736572206c6561766520616374696f6e206e6f7420646574656374656421006000830152602082019050919050565b6000611f47601283612443565b91507f75736572206e616d652069732074616b656e00000000000000000000000000006000830152602082019050919050565b6000611f87602283612443565b91507f7573657220616374697669747920616374696f6e206e6f74206465746563746560008301527f64210000000000000000000000000000000000000000000000000000000000006020830152604082019050919050565b611fe981612782565b82525050565b6000611ffc828486611e6b565b91508190509392505050565b60006120148284611ec9565b915081905092915050565b60006060820190506120346000830186611e2f565b6120416020830185611e2f565b61204e6040830184611e3e565b949350505050565b60006101208201905061206c600083018c611e3e565b612079602083018b611fe0565b612086604083018a611e5c565b6120936060830189611fe0565b6120a06080830188611e4d565b6120ad60a0830187611e4d565b6120ba60c0830186611e4d565b6120c760e0830185611e4d565b6120d5610100830184611fe0565b9a9950505050505050505050565b60006020820190506120f86000830184611e4d565b92915050565b60006060820190506121136000830186611e5c565b6121206020830185611fe0565b61212d6040830184611fe0565b949350505050565b600060a082019050818103600083015261214f8188611e90565b905061215e6020830187611e2f565b81810360408301526121708186611e90565b905061217f6060830185611fe0565b61218c6080830184611fe0565b9695505050505050565b600060408201905081810360008301526121b08185611e90565b90506121bf6020830184611fe0565b9392505050565b600060208201905081810360008301526121df81611efa565b9050919050565b600060208201905081810360008301526121ff81611f3a565b9050919050565b6000602082019050818103600083015261221f81611f7a565b9050919050565b600060208201905061223b6000830184611fe0565b92915050565b60006040820190506122566000830185611fe0565b6122636020830184611fe0565b9392505050565b600061012082019050612280600083018c611fe0565b61228d602083018b611fe0565b61229a604083018a611fe0565b6122a76060830189611e2f565b6122b46080830188611e5c565b6122c160a0830187611fe0565b6122ce60c0830186611e4d565b6122db60e0830185611e4d565b6122e9610100830184611e4d565b9a9950505050505050505050565b600060a08201905061230c6000830188611fe0565b6123196020830187611fe0565b6123266040830186611fe0565b6123336060830185611e5c565b6123406080830184611fe0565b9695505050505050565b600061012082019050612360600083018c611fe0565b61236d602083018b611fe0565b61237a604083018a611fe0565b6123876060830189611fe0565b6123946080830188611fe0565b6123a160a0830187611fe0565b6123ae60c0830186611fe0565b6123bb60e0830185611e5c565b6123c9610100830184611fe0565b9a9950505050505050505050565b6000604051905081810181811067ffffffffffffffff821117156123fe576123fd61285e565b5b8060405250919050565b600067ffffffffffffffff8211156124235761242261285e565b5b601f19601f8301169050602081019050919050565b600081519050919050565b600082825260208201905092915050565b600081905092915050565b600061246a82612758565b915061247583612758565b9250817f7fffffffffffffffffffffffffffffffffffffffffffffffffffffffffffffff038313600083121516156124b0576124af612800565b5b817f80000000000000000000000000000000000000000000000000000000000000000383126000831216156124e8576124e7612800565b5b828201905092915050565b60006124fe82612782565b915061250983612782565b9250827fffffffffffffffffffffffffffffffffffffffffffffffffffffffffffffffff0382111561253e5761253d612800565b5b828201905092915050565b600061255482612758565b915061255f83612758565b9250827f7fffffffffffffffffffffffffffffffffffffffffffffffffffffffffffffff048211600084136000841316161561259e5761259d612800565b5b817f800000000000000000000000000000000000000000000000000000000000000005831260008412600084131616156125db576125da612800565b5b827f8000000000000000000000000000000000000000000000000000000000000000058212600084136000841216161561261857612617612800565b5b827f7fffffffffffffffffffffffffffffffffffffffffffffffffffffffffffffff058212600084126000841216161561265557612654612800565b5b828202905092915050565b600061266b82612758565b915061267683612758565b9250827f8000000000000000000000000000000000000000000000000000000000000000018212600084121516156126b1576126b0612800565b5b827f7fffffffffffffffffffffffffffffffffffffffffffffffffffffffffffffff0182136000841216156126e9576126e8612800565b5b828203905092915050565b60006126ff82612782565b915061270a83612782565b92508282101561271d5761271c612800565b5b828203905092915050565b600061273382612762565b9050919050565b600061274582612762565b9050919050565b60008115159050919050565b6000819050919050565b600073ffffffffffffffffffffffffffffffffffffffff82169050919050565b6000819050919050565b82818337600083830152505050565b60005b838110156127b957808201518184015260208101905061279e565b838111156127c8576000848401525b50505050565b600060028204905060018216806127e657607f821691505b602082108114156127fa576127f961282f565b5b50919050565b7f4e487b7100000000000000000000000000000000000000000000000000000000600052601160045260246000fd5b7f4e487b7100000000000000000000000000000000000000000000000000000000600052602260045260246000fd5b7f4e487b7100000000000000000000000000000000000000000000000000000000600052604160045260246000fd5b6000601f19601f8301169050919050565b6128a78161273a565b81146128b257600080fd5b50565b6128be8161274c565b81146128c957600080fd5b50565b6128d581612758565b81146128e057600080fd5b50565b6128ec81612782565b81146128f757600080fd5b5056fea264697066735822122070a2592cdba44dfa89e833375c8960570c3cffa2666f2f137c9bc434bf612d1b64736f6c63430008000033",
  "immutableReferences": {},
  "source": "pragma solidity >=0.5.16;\r\nimport \"../node_modules/@openzeppelin/contracts/utils/math/SafeMath.sol\";\r\n\r\ncontract no1s1data{\r\n    using SafeMath for uint256;\r\n\r\n    address payable no1s1;\r\n    address adminacc;\r\n    address payable fundingacc;\r\n    address payable defaultuseracc;\r\n    uint256 no1s1balance;\r\n    uint256[] no1s1durations;\r\n\r\n    \r\n    struct partner{\r\n        string companyname;\r\n        address payable companyaccount;\r\n        string partnertype;\r\n        uint256 workload;\r\n        uint256 workprice;\r\n    }\r\n    \r\n    struct component{\r\n        string materiallocation;\r\n        uint256 materialprice;\r\n        uint256 materialage;\r\n    }\r\n    \r\n    struct condition{\r\n        bool isrenovated;\r\n        uint256 countrenovation;\r\n        string[] renovationlocation;\r\n        string[] renovationprice;\r\n    }\r\n    \r\n    struct Material{\r\n        uint256 materialcount;\r\n        uint256 totalprice;\r\n        mapping (string => component) components;\r\n        mapping (string => condition) conditions;\r\n    }\r\n    \r\n\r\n    struct Log{\r\n      uint256 batterycurrent;\r\n      uint256 batteryvoltage;\r\n      uint256 batterystateofcharge;\r\n      uint256 pvvoltage;\r\n      uint256 pvcurrent;\r\n      uint256 systempower;\r\n      uint256 time;\r\n      int256 allowedduration;\r\n      uint256 cost;\r\n    }\r\n\r\n    struct UserID{\r\n      uint256 uuid;\r\n      uint256 timereg;\r\n      uint256 ccode;\r\n      address payable account;\r\n      int256 expectedduration;\r\n      uint256 payamount;\r\n      bool haveaccount;\r\n      bool isidentified;\r\n      bool ispaid;\r\n    }\r\n\r\n    struct User{\r\n      uint256 uuid;\r\n      string username;\r\n    }\r\n\r\n    struct UserUSAGE{\r\n        address account;\r\n        uint256 actualduration;\r\n        int256 paychangeamount;\r\n        uint256 timeex;\r\n        bool grantedentrance;\r\n        bool startedmeditation;\r\n        bool serviceclosed;\r\n        bool paychanged;\r\n        uint256 actualpayment;\r\n    }\r\n\r\n    \r\n\r\n    /************the material identity**************/\r\n\r\n\r\n    Log[] public logs;\r\n    User[] private users;\r\n    //User[] public users;\r\n    //UsageHistory[] private histories;\r\n    //mapping (uint256 => Log[]) logs;\r\n    //mapping (uint256 => No1s1[]) no1s1histories;\r\n    mapping (string => UserID) public usersid;\r\n    mapping (string => UserUSAGE) public usersusage;\r\n    mapping (string => partner) public partners;\r\n\r\n    constructor(){\r\n      adminacc=msg.sender;\r\n    }\r\n\r\n    modifier onlyAdmin{\r\n      require(msg.sender == adminacc);\r\n      _;\r\n    }\r\n\r\n    modifier onlyMe{\r\n      require(msg.sender == no1s1);\r\n      _;\r\n    }\r\n\r\n    modifier onlyFundacc{\r\n      require(msg.sender == fundingacc);\r\n      _;\r\n    }\r\n    \r\n    modifier onlyDefault{\r\n      require(msg.sender == defaultuseracc);\r\n      _;\r\n    } \r\n\r\n\r\n    event no1s1update(uint batterystateofcharge);\r\n    function broadcastData(uint256 _Bcurrent,uint256 _Bvoltage,uint256 _BSOC,uint256 _Pvoltage,uint256 _Pcurrent,uint256 _Senergy, uint256 _time)public onlyAdmin{\r\n\r\n        int weiperchf = 18e14;\r\n        //uint256 costpm = weiperchf; \r\n        uint256 current_energy=_BSOC;\r\n        int256 _duration;\r\n        if(current_energy >= 75 ){\r\n              _duration = 45;}\r\n        if(current_energy >= 45 ){\r\n            _duration = 25;}\r\n        if(current_energy >= 25 ){\r\n            _duration = 15;}\r\n        if(current_energy <25 ){\r\n            _duration = 5;}\r\n        uint256 _servicecost = uint256(_duration * weiperchf);\r\n\r\n        logs.push(Log(\r\n          {batterycurrent: _Bcurrent, \r\n          batteryvoltage: _Bvoltage,\r\n          batterystateofcharge: _BSOC, \r\n          pvvoltage: _Pvoltage,\r\n          pvcurrent: _Pcurrent,\r\n          systempower: _Senergy,\r\n          time:_time,\r\n          allowedduration:_duration,\r\n          cost:_servicecost\r\n          }\r\n          ));\r\n        \r\n        emit no1s1update(_BSOC);\r\n    }\r\n    \r\n\r\n\r\n    event newUserRegistered(string userName,uint256 confirmationCode); \r\n    function initNewUser(string memory _username, uint256 _cCode, uint256 _time, uint256 _uuid) public {\r\n      require( usersid[_username].uuid ==  0 , \"user name is taken\");\r\n      usersid[_username].uuid = _uuid;\r\n      usersid[_username].timereg = _time;\r\n      usersid[_username].ccode = _cCode;\r\n      usersid[_username].account = defaultuseracc;\r\n      usersusage[_username].account = defaultuseracc;\r\n      users.push(User({uuid:_uuid,username:_username}));\r\n      //return _username;\r\n      emit newUserRegistered(_username, _cCode);\r\n      //do i calculate a uuid and ccode here?\r\n      //does it need emit? \r\n      //does it need return\r\n    }\r\n\r\n    function checkStatus()public view returns(int256 c_allowtime,uint256 estimated_cost ,uint256 update_time) {\r\n      /*require (logs.length == 0, \"no registered data yet\");*/\r\n      int weiperchf = 18e14;\r\n      //uint256 costpm = weiperchf; \r\n      uint256 current_energy=logs[logs.length-1].batterystateofcharge;\r\n      uint256 last_time=logs[logs.length-1].time;\r\n      int256 _duration;\r\n      if(current_energy >= 75 ){\r\n            _duration = 40;}\r\n        if(current_energy >= 45 ){\r\n            _duration = 20;}\r\n        if(current_energy >= 25 ){\r\n            _duration = 10;}\r\n        if(current_energy <25 ){\r\n            _duration = 5;}\r\n        uint256 servicecost = uint256(_duration * weiperchf);\r\n        return (_duration,servicecost,last_time);\r\n    }\r\n    \r\n    function setUserAccounts(address payable _fundingAddress, address payable _defaultAddress)public onlyAdmin{\r\n      require(_fundingAddress != address(0));\r\n      fundingacc=_fundingAddress;\r\n      defaultuseracc =_defaultAddress;\r\n    }\r\n    \r\n    function setPartner(string memory _partnername, address payable _partnerAddress,string memory _companyname,string memory _partnertype, uint256 _workload,uint256 _workprice) public onlyAdmin{\r\n        partners[_partnername].companyname=_companyname;\r\n        partners[_partnername].companyaccount= _partnerAddress;\r\n        partners[_partnername].partnertype= _partnertype;\r\n        partners[_partnername].workload= _workload;\r\n        partners[_partnername].workprice= _workprice;\r\n    }\r\n    \r\n    \r\n    function whatismyacc() public view returns(address payable,address payable,address){\r\n        return (fundingacc,defaultuseracc,address(this));\r\n    }\r\n    \r\n    function whatismybalance() public view returns(uint256,uint256){\r\n        return (no1s1balance, address(this).balance);\r\n    }\r\n\r\n    event whatuuid(uint theuuid);\r\n    function whatisuseruuid() public returns(uint256){\r\n      uint256 lastuuid=users[users.length-1].uuid;\r\n      emit whatuuid(lastuuid);\r\n      return (lastuuid);\r\n    }\r\n\r\n    \r\n    // function whatisuseruuid2() public view returns(uint256){\r\n    //   uint256 lastuuid=users[users.length-1].uuid;\r\n    //   return (lastuuid);\r\n    // }\r\n\r\n\r\n    event LastLog(uint pviv, uint soe, uint bsoc, int adur, uint cost);\r\n    function mylastlogs() public returns(uint256,uint256,uint256,int256,uint256){\r\n      uint256 lastPVIV=logs[logs.length-1].pvvoltage;\r\n      uint256 lastSOE=logs[logs.length-1].systempower;\r\n      uint256 lastBSoC=logs[logs.length-1].batterystateofcharge;\r\n      int256 lastAD=logs[logs.length-1].allowedduration;\r\n      uint256 lastC=logs[logs.length-1].cost;\r\n      emit LastLog(lastPVIV,lastSOE,lastBSoC,lastAD,lastC);\r\n      return (lastPVIV,lastSOE,lastBSoC,lastAD,lastC);\r\n    }\r\n    \r\n    // function mylastlogsV() public view returns(uint256,uint256,uint256){\r\n    //   uint256 lastPVIV=logs[logs.length-1].pvvoltage;\r\n    //   uint256 lastSOE=logs[logs.length-1].systempower;\r\n    //   uint256 lastBSoC=logs[logs.length-1].batterystateofcharge;\r\n    //   return (lastPVIV,lastSOE,lastBSoC);\r\n    // }\r\n\r\n\r\n    /*exucable once every season*/\r\n    // function fundDefault()external onlyFundacc payable{\r\n    //     address payable _to = defaultuseracc;\r\n    //     (bool sent, bytes memory data) = _to.call;/*{value: msg.value}(\"\");*/\r\n    //     require (sent, \"payment failed!\");\r\n    // }\r\n\r\n    function userPay(int _selectedDuration, string calldata _username, uint256 _selectedCost) external onlyDefault payable returns(uint256){\r\n    /*msg.value* is survice cost*/\r\n    usersid[_username].payamount = _selectedCost;\r\n    usersid[_username].expectedduration = _selectedDuration;\r\n    usersid[_username].ispaid = true;\r\n    no1s1balance = no1s1balance.add(_selectedCost);\r\n    toContract();\r\n    usersid[_username].isidentified = true;\r\n    usersusage[_username].grantedentrance =  true;\r\n    return _selectedCost; \r\n    /*address payable payacc=usersid[_username].account;*/\r\n    /*(bool sent, bytes memory data) = usersid[_username].account.call{value: msg.value}(\"\");*/\r\n    /*ToContract{value:servicecost}(log1, log2, log3);*/\r\n    /*ToContract(servicecost);*/\r\n    /*require (sent, \"payment failed!\");*/\r\n    }\r\n    \r\n    function toContract() public payable {\r\n        \r\n    }\r\n    \r\n    event userAction(bool userActionConfirmed);\r\n    function userActive(bool _pressuredetected, bool _dooropened, bool _motiondetected, string memory _username) public {\r\n      require(_pressuredetected == true && _dooropened == true && _motiondetected == true, \"user activity action not detected!\");\r\n      usersusage[_username].startedmeditation = true;\r\n      emit userAction(true);\r\n    }\r\n    \r\n    function serviceClose(bool _motiondetected, bool _dooropened, bool _handletriggered, string memory _username, uint256 _actualduration, uint256 _timeex) public returns (uint) {\r\n      require(_handletriggered == true && _dooropened == true && _motiondetected == true, \"user leave action not detected!\");\r\n      usersusage[_username].actualduration = _actualduration;\r\n      usersusage[_username].timeex = _timeex;\r\n      int256 durationdif_min = usersid[_username].expectedduration - int256(_actualduration);\r\n      int256 weiperchf = 18e14;\r\n      //uint256 costpm = weiperchf;\r\n      int256 costdif = durationdif_min * weiperchf;\r\n      no1s1durations.push(_actualduration);\r\n      if (durationdif_min > 10 || durationdif_min < -10){\r\n        usersusage[_username].paychanged = true; \r\n        usersusage[_username].paychangeamount = costdif;\r\n        usersusage[_username].actualpayment = uint256(int256(usersid[_username].payamount) + costdif);\r\n        no1s1balance= uint256(int256(no1s1balance)+costdif);\r\n        usersusage[_username].serviceclosed = true;\r\n      }\r\n      if ( durationdif_min < 10 && durationdif_min > -10){\r\n          usersusage[_username].actualpayment=usersid[_username].payamount;\r\n          usersusage[_username].serviceclosed = true;\r\n      }\r\n      return no1s1durations.length;\r\n    }\r\n\r\n\r\n//uint256 historyID = no1s1histories.push(No1s1(_totalpayment,_totalduration));\r\n//      UsageHistory=histories[historyID];\r\n //     return historyID;\r\n\r\n\r\n\r\n\r\n}",
  "sourcePath": "C:/Users/wangho/Documents/RA/web_front/template integration/no1s1_TI/contracts/no1s1data.sol",
  "compiler": {
    "name": "solc",
    "version": "0.8.0+commit.c7dfd78e.Emscripten.clang"
  },
  "schemaVersion": "3.4.1",
  "updatedAt": "2021-06-03T15:16:25.239Z",
  "networkType": "ethereum",
  "devdoc": {
    "kind": "dev",
    "methods": {},
    "version": 1
  },
  "userdoc": {
    "kind": "user",
    "methods": {},
    "version": 1
  }
}