{
  "contractName": "no1s1App",
  "abi": [
    {
      "inputs": [
        {
          "internalType": "address",
          "name": "dataContract",
          "type": "address"
        }
      ],
      "stateMutability": "nonpayable",
      "type": "constructor"
    },
    {
      "anonymous": false,
      "inputs": [
        {
          "indexed": false,
          "internalType": "address",
          "name": "backendAddress",
          "type": "address"
        }
      ],
      "name": "AuthorizedBackend",
      "type": "event"
    },
    {
      "anonymous": false,
      "inputs": [
        {
          "indexed": false,
          "internalType": "address",
          "name": "backendAddress",
          "type": "address"
        }
      ],
      "name": "DeAuthorizedBackend",
      "type": "event"
    },
    {
      "inputs": [
        {
          "internalType": "address",
          "name": "backendAddress",
          "type": "address"
        }
      ],
      "name": "authorizeBackend",
      "outputs": [
        {
          "internalType": "bool",
          "name": "",
          "type": "bool"
        }
      ],
      "stateMutability": "nonpayable",
      "type": "function"
    },
    {
      "inputs": [
        {
          "internalType": "address",
          "name": "backendAddress",
          "type": "address"
        }
      ],
      "name": "deAuthorizeBackend",
      "outputs": [
        {
          "internalType": "bool",
          "name": "",
          "type": "bool"
        }
      ],
      "stateMutability": "nonpayable",
      "type": "function"
    },
    {
      "inputs": [
        {
          "internalType": "bool",
          "name": "mode",
          "type": "bool"
        }
      ],
      "name": "setAccessabilityStatus",
      "outputs": [],
      "stateMutability": "nonpayable",
      "type": "function"
    },
    {
      "inputs": [
        {
          "internalType": "bool",
          "name": "mode",
          "type": "bool"
        }
      ],
      "name": "setOccupationStatus",
      "outputs": [],
      "stateMutability": "nonpayable",
      "type": "function"
    },
    {
      "inputs": [
        {
          "internalType": "uint256",
          "name": "_Bcurrent",
          "type": "uint256"
        },
        {
          "internalType": "uint256",
          "name": "_Bvoltage",
          "type": "uint256"
        },
        {
          "internalType": "uint256",
          "name": "_BSOC",
          "type": "uint256"
        },
        {
          "internalType": "uint256",
          "name": "_Pvoltage",
          "type": "uint256"
        },
        {
          "internalType": "uint256",
          "name": "_Senergy",
          "type": "uint256"
        },
        {
          "internalType": "uint256",
          "name": "_Time",
          "type": "uint256"
        }
      ],
      "name": "broadcastData",
      "outputs": [],
      "stateMutability": "nonpayable",
      "type": "function"
    },
    {
      "inputs": [
        {
          "internalType": "uint256",
          "name": "_Time",
          "type": "uint256"
        }
      ],
      "name": "no1s1InfoLog",
      "outputs": [],
      "stateMutability": "nonpayable",
      "type": "function"
    },
    {
      "inputs": [
        {
          "internalType": "uint256",
          "name": "_selectedDuration",
          "type": "uint256"
        },
        {
          "internalType": "string",
          "name": "_username",
          "type": "string"
        }
      ],
      "name": "buy",
      "outputs": [],
      "stateMutability": "payable",
      "type": "function"
    },
    {
      "inputs": [
        {
          "internalType": "bytes32",
          "name": "_key",
          "type": "bytes32"
        }
      ],
      "name": "checkAccess",
      "outputs": [],
      "stateMutability": "nonpayable",
      "type": "function"
    },
    {
      "inputs": [
        {
          "internalType": "bool",
          "name": "_pressureDetected",
          "type": "bool"
        },
        {
          "internalType": "bytes32",
          "name": "_key",
          "type": "bytes32"
        }
      ],
      "name": "checkActivity",
      "outputs": [],
      "stateMutability": "nonpayable",
      "type": "function"
    },
    {
      "inputs": [
        {
          "internalType": "bool",
          "name": "_doorOpened",
          "type": "bool"
        },
        {
          "internalType": "uint256",
          "name": "_actualDuration",
          "type": "uint256"
        },
        {
          "internalType": "bytes32",
          "name": "_key",
          "type": "bytes32"
        }
      ],
      "name": "exit",
      "outputs": [],
      "stateMutability": "nonpayable",
      "type": "function"
    },
    {
      "inputs": [
        {
          "internalType": "string",
          "name": "_username",
          "type": "string"
        }
      ],
      "name": "refundEscrow",
      "outputs": [],
      "stateMutability": "nonpayable",
      "type": "function"
    },
    {
      "inputs": [],
      "name": "isDataContractOperational",
      "outputs": [
        {
          "internalType": "bool",
          "name": "",
          "type": "bool"
        }
      ],
      "stateMutability": "view",
      "type": "function"
    },
    {
      "inputs": [],
      "name": "howAmI",
      "outputs": [
        {
          "internalType": "bool",
          "name": "accessability",
          "type": "bool"
        },
        {
          "internalType": "bool",
          "name": "occupation",
          "type": "bool"
        },
        {
          "internalType": "uint256",
          "name": "batteryState",
          "type": "uint256"
        },
        {
          "internalType": "uint256",
          "name": "totalUsers",
          "type": "uint256"
        },
        {
          "internalType": "uint256",
          "name": "totalDuration",
          "type": "uint256"
        },
        {
          "internalType": "uint256",
          "name": "myBalance",
          "type": "uint256"
        }
      ],
      "stateMutability": "view",
      "type": "function"
    },
    {
      "inputs": [],
      "name": "whoAmI",
      "outputs": [
        {
          "internalType": "address",
          "name": "no1s1Address",
          "type": "address"
        }
      ],
      "stateMutability": "view",
      "type": "function"
    },
    {
      "inputs": [],
      "name": "howRichAmI",
      "outputs": [
        {
          "internalType": "uint256",
          "name": "no1s1Balance",
          "type": "uint256"
        }
      ],
      "stateMutability": "view",
      "type": "function"
    },
    {
      "inputs": [],
      "name": "getUsageLog",
      "outputs": [
        {
          "internalType": "uint256[]",
          "name": "users",
          "type": "uint256[]"
        },
        {
          "internalType": "uint256[]",
          "name": "balances",
          "type": "uint256[]"
        },
        {
          "internalType": "uint256[]",
          "name": "durations",
          "type": "uint256[]"
        }
      ],
      "stateMutability": "view",
      "type": "function"
    },
    {
      "inputs": [],
      "name": "checkBuyStatus",
      "outputs": [
        {
          "internalType": "uint256",
          "name": "batteryState",
          "type": "uint256"
        },
        {
          "internalType": "uint256",
          "name": "availableMinutes",
          "type": "uint256"
        },
        {
          "internalType": "uint256",
          "name": "costPerMinute",
          "type": "uint256"
        },
        {
          "internalType": "uint256",
          "name": "lastUpdate",
          "type": "uint256"
        }
      ],
      "stateMutability": "view",
      "type": "function"
    },
    {
      "inputs": [],
      "name": "checkLastTechLogs",
      "outputs": [
        {
          "internalType": "uint256",
          "name": "pvVoltage",
          "type": "uint256"
        },
        {
          "internalType": "uint256",
          "name": "systemPower",
          "type": "uint256"
        },
        {
          "internalType": "uint256",
          "name": "batteryChargeState",
          "type": "uint256"
        },
        {
          "internalType": "uint256",
          "name": "batteryCurrency",
          "type": "uint256"
        },
        {
          "internalType": "uint256",
          "name": "batteryVoltage",
          "type": "uint256"
        }
      ],
      "stateMutability": "view",
      "type": "function"
    },
    {
      "inputs": [
        {
          "internalType": "bytes32",
          "name": "_key",
          "type": "bytes32"
        }
      ],
      "name": "checkUserKey",
      "outputs": [
        {
          "internalType": "uint256",
          "name": "meditationDuration",
          "type": "uint256"
        },
        {
          "internalType": "bool",
          "name": "accessed",
          "type": "bool"
        },
        {
          "internalType": "uint256",
          "name": "actualDuration",
          "type": "uint256"
        },
        {
          "internalType": "bool",
          "name": "left",
          "type": "bool"
        },
        {
          "internalType": "uint256",
          "name": "escrow",
          "type": "uint256"
        }
      ],
      "stateMutability": "view",
      "type": "function"
    },
    {
      "inputs": [
        {
          "internalType": "string",
          "name": "_username",
          "type": "string"
        }
      ],
      "name": "checkUserName",
      "outputs": [
        {
          "internalType": "bytes32",
          "name": "qrCode",
          "type": "bytes32"
        },
        {
          "internalType": "uint256",
          "name": "meditationDuration",
          "type": "uint256"
        },
        {
          "internalType": "bool",
          "name": "accessed",
          "type": "bool"
        },
        {
          "internalType": "uint256",
          "name": "actualDuration",
          "type": "uint256"
        },
        {
          "internalType": "bool",
          "name": "left",
          "type": "bool"
        },
        {
          "internalType": "uint256",
          "name": "escrow",
          "type": "uint256"
        }
      ],
      "stateMutability": "view",
      "type": "function"
    }
  ],
  "bytecode": "0x60806040523480156200001157600080fd5b50604051620028f1380380620028f1833981810160405281019062000037919062000203565b336000806101000a81548173ffffffffffffffffffffffffffffffffffffffff021916908373ffffffffffffffffffffffffffffffffffffffff16021790555080600160006101000a81548173ffffffffffffffffffffffffffffffffffffffff021916908373ffffffffffffffffffffffffffffffffffffffff160217905550620000c933620000d160201b60201c565b505062000320565b60008060009054906101000a900473ffffffffffffffffffffffffffffffffffffffff1673ffffffffffffffffffffffffffffffffffffffff163373ffffffffffffffffffffffffffffffffffffffff161462000165576040517f08c379a00000000000000000000000000000000000000000000000000000000081526004016200015c906200029f565b60405180910390fd5b6001600260008473ffffffffffffffffffffffffffffffffffffffff1673ffffffffffffffffffffffffffffffffffffffff168152602001908152602001600020819055507f9ede12cfaf33573240ee08ba6fde7e48c8b9e789d82e50c948692d7de1a6b12e82604051620001db919062000282565b60405180910390a160019050919050565b600081519050620001fd8162000306565b92915050565b6000602082840312156200021657600080fd5b60006200022684828501620001ec565b91505092915050565b6200023a81620002d2565b82525050565b60006200024f601c83620002c1565b91507f43616c6c6572206973206e6f7420636f6e7472616374206f776e6572000000006000830152602082019050919050565b60006020820190506200029960008301846200022f565b92915050565b60006020820190508181036000830152620002ba8162000240565b9050919050565b600082825260208201905092915050565b6000620002df82620002e6565b9050919050565b600073ffffffffffffffffffffffffffffffffffffffff82169050919050565b6200031181620002d2565b81146200031d57600080fd5b50565b6125c180620003306000396000f3fe60806040526004361061011f5760003560e01c806390362bf6116100a0578063c485ab1e11610064578063c485ab1e146103c3578063c78efcf314610400578063da91254c14610429578063ee9c1a5414610454578063f57ba4af1461047f5761011f565b806390362bf6146102f8578063a49b183d14610321578063ac6d61291461034a578063b7dc3b1814610377578063ba67b945146103935761011f565b80634aaddc84116100e75780634aaddc841461020c5780635ceef388146102355780635fd2f4001461026457806361bea4ff1461028d5780636a3c42c9146102cf5761011f565b806307a307f51461012457806324e55582146101615780632726a1b51461018a578063272f1467146101b557806336c98677146101e3575b600080fd5b34801561013057600080fd5b5061014b600480360381019061014691906117fc565b6104c0565b604051610158919061200d565b60405180910390f35b34801561016d57600080fd5b50610188600480360381019061018391906119c0565b6105d4565b005b34801561019657600080fd5b5061019f6106e9565b6040516101ac91906121dc565b60405180910390f35b3480156101c157600080fd5b506101ca610790565b6040516101da94939291906122c2565b60405180910390f35b3480156101ef57600080fd5b5061020a60048036038101906102059190611a4b565b61085f565b005b34801561021857600080fd5b50610233600480360381019061022e9190611b42565b610977565b005b34801561024157600080fd5b5061024a610a89565b60405161025b959493929190612307565b60405180910390f35b34801561027057600080fd5b5061028b60048036038101906102869190611afd565b610b42565b005b34801561029957600080fd5b506102b460048036038101906102af9190611afd565b610be0565b6040516102c696959493929190612104565b60405180910390f35b3480156102db57600080fd5b506102f660048036038101906102f19190611d3d565b610cae565b005b34801561030457600080fd5b5061031f600480360381019061031a91906118e5565b610dd8565b005b34801561032d57600080fd5b50610348600480360381019061034391906119fc565b610ef6565b005b34801561035657600080fd5b5061035f61100e565b60405161036e93929190611fc1565b60405180910390f35b610391600480360381019061038c9190611c0b565b6110c3565b005b34801561039f57600080fd5b506103a861116f565b6040516103ba96959493929190612028565b60405180910390f35b3480156103cf57600080fd5b506103ea60048036038101906103e591906117fc565b61122c565b6040516103f7919061200d565b60405180910390f35b34801561040c57600080fd5b50610427600480360381019061042291906118e5565b611342565b005b34801561043557600080fd5b5061043e611460565b60405161044b9190611f34565b60405180910390f35b34801561046057600080fd5b50610469611507565b604051610476919061200d565b60405180910390f35b34801561048b57600080fd5b506104a660048036038101906104a19190611a4b565b6115ae565b6040516104b795949392919061226f565b60405180910390f35b60008060009054906101000a900473ffffffffffffffffffffffffffffffffffffffff1673ffffffffffffffffffffffffffffffffffffffff163373ffffffffffffffffffffffffffffffffffffffff1614610551576040517f08c379a00000000000000000000000000000000000000000000000000000000081526004016105489061219c565b60405180910390fd5b600260008373ffffffffffffffffffffffffffffffffffffffff1673ffffffffffffffffffffffffffffffffffffffff168152602001908152602001600020600090557ff20b842085d4a9829701fb14405e841da17adf6500851a84d5ef34f6c7d66767826040516105c39190611f34565b60405180910390a160019050919050565b6001600260003373ffffffffffffffffffffffffffffffffffffffff1673ffffffffffffffffffffffffffffffffffffffff1681526020019081526020016000205414610656576040517f08c379a000000000000000000000000000000000000000000000000000000000815260040161064d906121bc565b60405180910390fd5b600160009054906101000a900473ffffffffffffffffffffffffffffffffffffffff1673ffffffffffffffffffffffffffffffffffffffff166324e5558283836040518363ffffffff1660e01b81526004016106b3929190612089565b600060405180830381600087803b1580156106cd57600080fd5b505af11580156106e1573d6000803e3d6000fd5b505050505050565b6000600160009054906101000a900473ffffffffffffffffffffffffffffffffffffffff1673ffffffffffffffffffffffffffffffffffffffff16632726a1b56040518163ffffffff1660e01b815260040160206040518083038186803b15801561075357600080fd5b505afa158015610767573d6000803e3d6000fd5b505050506040513d601f19601f8201168201806040525081019061078b9190611b6b565b905090565b600080600080600160009054906101000a900473ffffffffffffffffffffffffffffffffffffffff1673ffffffffffffffffffffffffffffffffffffffff16634c6374cd662386f26fc10000603c601e600a6040518563ffffffff1660e01b815260040161080194939291906122c2565b60806040518083038186803b15801561081957600080fd5b505afa15801561082d573d6000803e3d6000fd5b505050506040513d601f19601f820116820180604052508101906108519190611c63565b935093509350935090919293565b6001600260003373ffffffffffffffffffffffffffffffffffffffff1673ffffffffffffffffffffffffffffffffffffffff16815260200190815260200160002054146108e1576040517f08c379a00000000000000000000000000000000000000000000000000000000081526004016108d8906121bc565b60405180910390fd5b600160009054906101000a900473ffffffffffffffffffffffffffffffffffffffff1673ffffffffffffffffffffffffffffffffffffffff16637cdfacdb82601e600a6040518463ffffffff1660e01b815260040161094293929190612165565b600060405180830381600087803b15801561095c57600080fd5b505af1158015610970573d6000803e3d6000fd5b5050505050565b6001600260003373ffffffffffffffffffffffffffffffffffffffff1673ffffffffffffffffffffffffffffffffffffffff16815260200190815260200160002054146109f9576040517f08c379a00000000000000000000000000000000000000000000000000000000081526004016109f0906121bc565b60405180910390fd5b600160009054906101000a900473ffffffffffffffffffffffffffffffffffffffff1673ffffffffffffffffffffffffffffffffffffffff16634aaddc84826040518263ffffffff1660e01b8152600401610a5491906121dc565b600060405180830381600087803b158015610a6e57600080fd5b505af1158015610a82573d6000803e3d6000fd5b5050505050565b6000806000806000600160009054906101000a900473ffffffffffffffffffffffffffffffffffffffff1673ffffffffffffffffffffffffffffffffffffffff16635ceef3886040518163ffffffff1660e01b815260040160a06040518083038186803b158015610af957600080fd5b505afa158015610b0d573d6000803e3d6000fd5b505050506040513d601f19601f82011682018060405250810190610b319190611cc6565b945094509450945094509091929394565b600160009054906101000a900473ffffffffffffffffffffffffffffffffffffffff1673ffffffffffffffffffffffffffffffffffffffff1663312fbf56338484662386f26fc100006040518563ffffffff1660e01b8152600401610baa9493929190611f81565b600060405180830381600087803b158015610bc457600080fd5b505af1158015610bd8573d6000803e3d6000fd5b505050505050565b600080600080600080600160009054906101000a900473ffffffffffffffffffffffffffffffffffffffff1673ffffffffffffffffffffffffffffffffffffffff1663a26e140c338a8a6040518463ffffffff1660e01b8152600401610c4893929190611f4f565b60c06040518083038186803b158015610c6057600080fd5b505afa158015610c74573d6000803e3d6000fd5b505050506040513d601f19601f82011682018060405250810190610c989190611a74565b9550955095509550955095509295509295509295565b6001600260003373ffffffffffffffffffffffffffffffffffffffff1673ffffffffffffffffffffffffffffffffffffffff1681526020019081526020016000205414610d30576040517f08c379a0000000000000000000000000000000000000000000000000000000008152600401610d27906121bc565b60405180910390fd5b600160009054906101000a900473ffffffffffffffffffffffffffffffffffffffff1673ffffffffffffffffffffffffffffffffffffffff1663a5e5b6a1878787878787604b602d60196040518a63ffffffff1660e01b8152600401610d9e9998979695949392919061235a565b600060405180830381600087803b158015610db857600080fd5b505af1158015610dcc573d6000803e3d6000fd5b50505050505050505050565b60008054906101000a900473ffffffffffffffffffffffffffffffffffffffff1673ffffffffffffffffffffffffffffffffffffffff163373ffffffffffffffffffffffffffffffffffffffff1614610e66576040517f08c379a0000000000000000000000000000000000000000000000000000000008152600401610e5d9061219c565b60405180910390fd5b600160009054906101000a900473ffffffffffffffffffffffffffffffffffffffff1673ffffffffffffffffffffffffffffffffffffffff166390362bf6826040518263ffffffff1660e01b8152600401610ec1919061200d565b600060405180830381600087803b158015610edb57600080fd5b505af1158015610eef573d6000803e3d6000fd5b5050505050565b6001600260003373ffffffffffffffffffffffffffffffffffffffff1673ffffffffffffffffffffffffffffffffffffffff1681526020019081526020016000205414610f78576040517f08c379a0000000000000000000000000000000000000000000000000000000008152600401610f6f906121bc565b60405180910390fd5b600160009054906101000a900473ffffffffffffffffffffffffffffffffffffffff1673ffffffffffffffffffffffffffffffffffffffff1663a49b183d8484846040518463ffffffff1660e01b8152600401610fd7939291906120b2565b600060405180830381600087803b158015610ff157600080fd5b505af1158015611005573d6000803e3d6000fd5b50505050505050565b6060806060600160009054906101000a900473ffffffffffffffffffffffffffffffffffffffff1673ffffffffffffffffffffffffffffffffffffffff1663ac6d61296040518163ffffffff1660e01b815260040160006040518083038186803b15801561107b57600080fd5b505afa15801561108f573d6000803e3d6000fd5b505050506040513d6000823e3d601f19601f820116820180604052508101906110b8919061184e565b925092509250909192565b600160009054906101000a900473ffffffffffffffffffffffffffffffffffffffff1673ffffffffffffffffffffffffffffffffffffffff16638c9b283034853386866706f05b59d3b20000603c601e600a6040518a63ffffffff1660e01b81526004016111389897969594939291906121f7565b6000604051808303818588803b15801561115157600080fd5b505af1158015611165573d6000803e3d6000fd5b5050505050505050565b600080600080600080600160009054906101000a900473ffffffffffffffffffffffffffffffffffffffff1673ffffffffffffffffffffffffffffffffffffffff1663ba67b9456040518163ffffffff1660e01b815260040160c06040518083038186803b1580156111e057600080fd5b505afa1580156111f4573d6000803e3d6000fd5b505050506040513d601f19601f820116820180604052508101906112189190611937565b955095509550955095509550909192939495565b60008060009054906101000a900473ffffffffffffffffffffffffffffffffffffffff1673ffffffffffffffffffffffffffffffffffffffff163373ffffffffffffffffffffffffffffffffffffffff16146112bd576040517f08c379a00000000000000000000000000000000000000000000000000000000081526004016112b49061219c565b60405180910390fd5b6001600260008473ffffffffffffffffffffffffffffffffffffffff1673ffffffffffffffffffffffffffffffffffffffff168152602001908152602001600020819055507f9ede12cfaf33573240ee08ba6fde7e48c8b9e789d82e50c948692d7de1a6b12e826040516113319190611f34565b60405180910390a160019050919050565b60008054906101000a900473ffffffffffffffffffffffffffffffffffffffff1673ffffffffffffffffffffffffffffffffffffffff163373ffffffffffffffffffffffffffffffffffffffff16146113d0576040517f08c379a00000000000000000000000000000000000000000000000000000000081526004016113c79061219c565b60405180910390fd5b600160009054906101000a900473ffffffffffffffffffffffffffffffffffffffff1673ffffffffffffffffffffffffffffffffffffffff1663c78efcf3826040518263ffffffff1660e01b815260040161142b919061200d565b600060405180830381600087803b15801561144557600080fd5b505af1158015611459573d6000803e3d6000fd5b5050505050565b6000600160009054906101000a900473ffffffffffffffffffffffffffffffffffffffff1673ffffffffffffffffffffffffffffffffffffffff1663da91254c6040518163ffffffff1660e01b815260040160206040518083038186803b1580156114ca57600080fd5b505afa1580156114de573d6000803e3d6000fd5b505050506040513d601f19601f820116820180604052508101906115029190611825565b905090565b6000600160009054906101000a900473ffffffffffffffffffffffffffffffffffffffff1673ffffffffffffffffffffffffffffffffffffffff1663cd905dff6040518163ffffffff1660e01b815260040160206040518083038186803b15801561157157600080fd5b505afa158015611585573d6000803e3d6000fd5b505050506040513d601f19601f820116820180604052508101906115a9919061190e565b905090565b6000806000806000600160009054906101000a900473ffffffffffffffffffffffffffffffffffffffff1673ffffffffffffffffffffffffffffffffffffffff1663f57ba4af876040518263ffffffff1660e01b815260040161161191906120e9565b60a06040518083038186803b15801561162957600080fd5b505afa15801561163d573d6000803e3d6000fd5b505050506040513d601f19601f820116820180604052508101906116619190611b94565b9450945094509450945091939590929450565b600061168761168284612418565b6123e7565b905080838252602082019050828560208602820111156116a657600080fd5b60005b858110156116d657816116bc88826117e7565b8452602084019350602083019250506001810190506116a9565b5050509392505050565b6000813590506116ef8161252f565b92915050565b6000815190506117048161252f565b92915050565b600082601f83011261171b57600080fd5b815161172b848260208601611674565b91505092915050565b60008135905061174381612546565b92915050565b60008151905061175881612546565b92915050565b60008135905061176d8161255d565b92915050565b6000815190506117828161255d565b92915050565b60008083601f84011261179a57600080fd5b8235905067ffffffffffffffff8111156117b357600080fd5b6020830191508360018202830111156117cb57600080fd5b9250929050565b6000813590506117e181612574565b92915050565b6000815190506117f681612574565b92915050565b60006020828403121561180e57600080fd5b600061181c848285016116e0565b91505092915050565b60006020828403121561183757600080fd5b6000611845848285016116f5565b91505092915050565b60008060006060848603121561186357600080fd5b600084015167ffffffffffffffff81111561187d57600080fd5b6118898682870161170a565b935050602084015167ffffffffffffffff8111156118a657600080fd5b6118b28682870161170a565b925050604084015167ffffffffffffffff8111156118cf57600080fd5b6118db8682870161170a565b9150509250925092565b6000602082840312156118f757600080fd5b600061190584828501611734565b91505092915050565b60006020828403121561192057600080fd5b600061192e84828501611749565b91505092915050565b60008060008060008060c0878903121561195057600080fd5b600061195e89828a01611749565b965050602061196f89828a01611749565b955050604061198089828a016117e7565b945050606061199189828a016117e7565b93505060806119a289828a016117e7565b92505060a06119b389828a016117e7565b9150509295509295509295565b600080604083850312156119d357600080fd5b60006119e185828601611734565b92505060206119f28582860161175e565b9150509250929050565b600080600060608486031215611a1157600080fd5b6000611a1f86828701611734565b9350506020611a30868287016117d2565b9250506040611a418682870161175e565b9150509250925092565b600060208284031215611a5d57600080fd5b6000611a6b8482850161175e565b91505092915050565b60008060008060008060c08789031215611a8d57600080fd5b6000611a9b89828a01611773565b9650506020611aac89828a016117e7565b9550506040611abd89828a01611749565b9450506060611ace89828a016117e7565b9350506080611adf89828a01611749565b92505060a0611af089828a016117e7565b9150509295509295509295565b60008060208385031215611b1057600080fd5b600083013567ffffffffffffffff811115611b2a57600080fd5b611b3685828601611788565b92509250509250929050565b600060208284031215611b5457600080fd5b6000611b62848285016117d2565b91505092915050565b600060208284031215611b7d57600080fd5b6000611b8b848285016117e7565b91505092915050565b600080600080600060a08688031215611bac57600080fd5b6000611bba888289016117e7565b9550506020611bcb88828901611749565b9450506040611bdc888289016117e7565b9350506060611bed88828901611749565b9250506080611bfe888289016117e7565b9150509295509295909350565b600080600060408486031215611c2057600080fd5b6000611c2e868287016117d2565b935050602084013567ffffffffffffffff811115611c4b57600080fd5b611c5786828701611788565b92509250509250925092565b60008060008060808587031215611c7957600080fd5b6000611c87878288016117e7565b9450506020611c98878288016117e7565b9350506040611ca9878288016117e7565b9250506060611cba878288016117e7565b91505092959194509250565b600080600080600060a08688031215611cde57600080fd5b6000611cec888289016117e7565b9550506020611cfd888289016117e7565b9450506040611d0e888289016117e7565b9350506060611d1f888289016117e7565b9250506080611d30888289016117e7565b9150509295509295909350565b60008060008060008060c08789031215611d5657600080fd5b6000611d6489828a016117d2565b9650506020611d7589828a016117d2565b9550506040611d8689828a016117d2565b9450506060611d9789828a016117d2565b9350506080611da889828a016117d2565b92505060a0611db989828a016117d2565b9150509295509295509295565b6000611dd28383611f16565b60208301905092915050565b611de78161248e565b82525050565b6000611df882612454565b611e02818561246c565b9350611e0d83612444565b8060005b83811015611e3e578151611e258882611dc6565b9750611e308361245f565b925050600181019050611e11565b5085935050505092915050565b611e54816124a0565b82525050565b611e63816124ac565b82525050565b6000611e75838561247d565b9350611e828385846124e0565b611e8b8361251e565b840190509392505050565b6000611ea3601c8361247d565b91507f43616c6c6572206973206e6f7420636f6e7472616374206f776e6572000000006000830152602082019050919050565b6000611ee360198361247d565b91507f4261636b656e64206973206e6f7420617574686f72697a6564000000000000006000830152602082019050919050565b611f1f816124d6565b82525050565b611f2e816124d6565b82525050565b6000602082019050611f496000830184611dde565b92915050565b6000604082019050611f646000830186611dde565b8181036020830152611f77818486611e69565b9050949350505050565b6000606082019050611f966000830187611dde565b8181036020830152611fa9818587611e69565b9050611fb86040830184611f25565b95945050505050565b60006060820190508181036000830152611fdb8186611ded565b90508181036020830152611fef8185611ded565b905081810360408301526120038184611ded565b9050949350505050565b60006020820190506120226000830184611e4b565b92915050565b600060c08201905061203d6000830189611e4b565b61204a6020830188611e4b565b6120576040830187611f25565b6120646060830186611f25565b6120716080830185611f25565b61207e60a0830184611f25565b979650505050505050565b600060408201905061209e6000830185611e4b565b6120ab6020830184611e5a565b9392505050565b60006060820190506120c76000830186611e4b565b6120d46020830185611f25565b6120e16040830184611e5a565b949350505050565b60006020820190506120fe6000830184611e5a565b92915050565b600060c0820190506121196000830189611e5a565b6121266020830188611f25565b6121336040830187611e4b565b6121406060830186611f25565b61214d6080830185611e4b565b61215a60a0830184611f25565b979650505050505050565b600060608201905061217a6000830186611e5a565b6121876020830185611f25565b6121946040830184611f25565b949350505050565b600060208201905081810360008301526121b581611e96565b9050919050565b600060208201905081810360008301526121d581611ed6565b9050919050565b60006020820190506121f16000830184611f25565b92915050565b600060e08201905061220c600083018b611f25565b612219602083018a611dde565b818103604083015261222c81888a611e69565b905061223b6060830187611f25565b6122486080830186611f25565b61225560a0830185611f25565b61226260c0830184611f25565b9998505050505050505050565b600060a0820190506122846000830188611f25565b6122916020830187611e4b565b61229e6040830186611f25565b6122ab6060830185611e4b565b6122b86080830184611f25565b9695505050505050565b60006080820190506122d76000830187611f25565b6122e46020830186611f25565b6122f16040830185611f25565b6122fe6060830184611f25565b95945050505050565b600060a08201905061231c6000830188611f25565b6123296020830187611f25565b6123366040830186611f25565b6123436060830185611f25565b6123506080830184611f25565b9695505050505050565b600061012082019050612370600083018c611f25565b61237d602083018b611f25565b61238a604083018a611f25565b6123976060830189611f25565b6123a46080830188611f25565b6123b160a0830187611f25565b6123be60c0830186611f25565b6123cb60e0830185611f25565b6123d9610100830184611f25565b9a9950505050505050505050565b6000604051905081810181811067ffffffffffffffff8211171561240e5761240d6124ef565b5b8060405250919050565b600067ffffffffffffffff821115612433576124326124ef565b5b602082029050602081019050919050565b6000819050602082019050919050565b600081519050919050565b6000602082019050919050565b600082825260208201905092915050565b600082825260208201905092915050565b6000612499826124b6565b9050919050565b60008115159050919050565b6000819050919050565b600073ffffffffffffffffffffffffffffffffffffffff82169050919050565b6000819050919050565b82818337600083830152505050565b7f4e487b7100000000000000000000000000000000000000000000000000000000600052604160045260246000fd5b6000601f19601f8301169050919050565b6125388161248e565b811461254357600080fd5b50565b61254f816124a0565b811461255a57600080fd5b50565b612566816124ac565b811461257157600080fd5b50565b61257d816124d6565b811461258857600080fd5b5056fea26469706673582212202aa5d18a36f04e5cb48b9f4857102b82d09deee91d91c0c85f58e825a8a37d7c64736f6c63430008000033",
  "immutableReferences": {},
  "source": "pragma solidity >=0.5.16;\n\n// SPDX-License-Identifier: MIT\n\nimport \"../node_modules/@openzeppelin/contracts/utils/math/SafeMath.sol\";\n\n/************************************************** */\n/* no1s1 App Smart Contract                         */\n/************************************************** */\n\ncontract no1s1App {\n    using SafeMath for uint256;\n\n    /********************************************************************************************/\n    /*                                       DATA VARIABLES                                     */\n    /********************************************************************************************/\n\n    address private contractOwner;          // Account used to deploy contract\n\n    No1s1Data no1s1Data;                    // State variable referencing the data contract\n\n    uint256 private constant MEDITATION_PRICE = 0.01 ether;     // Price per minute meditation in no1s1\n    uint256 private constant ESCROW_AMOUNT = 0.5 ether;         // Escrow amount to be paid to meditate\n    uint256 private constant MAX_DURATION = 60;                 // Maximum allowed duration to meditate per user in minutes\n    // Minimum values for battery state of charge\n    uint256 private constant FULL_VALUE = 75;\n    uint256 private constant GOOD_VALUE = 45;\n    uint256 private constant LOW_VALUE = 25;\n    // Minimum duration for given battery state of charge\n    uint256 private constant FULL_DURATION = 60;\n    uint256 private constant GOOD_DURATION = 30;\n    uint256 private constant LOW_DURATION = 10;\n    \n    // Mappings (key value pairs)\n    mapping(address => uint256) authorizedBackends;             // Mapping to store authorized backends that can call into the app contract\n\n    /********************************************************************************************/\n    /*                                       EVENT DEFINITIONS                                  */\n    /********************************************************************************************/\n\n    // Emitted when new backend is de-/authorized\n    event AuthorizedBackend(address backendAddress);\n    event DeAuthorizedBackend(address backendAddress);\n\n    /********************************************************************************************/\n    /*                                       FUNCTION MODIFIERS                                 */\n    /********************************************************************************************/\n\n    /**\n    * @dev Modifier that requires the \"contractOwner\" account to be the function caller\n    */\n    modifier requireContractOwner()\n    {\n      require(msg.sender == contractOwner, \"Caller is not contract owner\");\n      _;\n    }\n\n    /**\n    * @dev Modifier that requires that the contract calling into the data contract is authorized\n    */\n    modifier requireBackend()\n    {\n        require(authorizedBackends[msg.sender] == 1, \"Backend is not authorized\");\n        _;\n    }\n    /********************************************************************************************/\n    /*                                       CONSTRUCTOR                                        */\n    /********************************************************************************************/\n\n    /**\n    * @dev Contract constructor\n    * tells the App contract where to find the data of the app contract (address)\n    */\n    constructor(address dataContract)\n    {\n        contractOwner = msg.sender;\n        no1s1Data = No1s1Data(dataContract);\n        // register msg.sender as first backend\n        authorizeBackend(msg.sender);\n    }\n\n    /********************************************************************************************/\n    /*                                       UTILITY FUNCTIONS                                  */\n    /********************************************************************************************/\n\n    /**\n    * @dev authorize app contract to call into data contract\n    * @return A bool that is the current authorization status\n    */\n    function authorizeBackend(address backendAddress) public requireContractOwner returns(bool)\n    {\n        authorizedBackends[backendAddress] = 1;\n        emit AuthorizedBackend(backendAddress);\n        return true;\n    }\n\n    /**\n    * @dev deauthorize app contract to call into data contract\n    * @return A bool that is the current authorization status\n    */\n    function deAuthorizeBackend(address backendAddress) public requireContractOwner returns(bool)\n    {\n        delete authorizedBackends[backendAddress];\n        emit DeAuthorizedBackend(backendAddress);\n        return true;\n    }\n\n    /********************************************************************************************/\n    /*                                     SMART CONTRACT FUNCTIONS                             */\n    /********************************************************************************************/\n\n    /**\n    * @dev function for backend to trigger storing the current state of no1s1 (daily)\n    * Pass address of function caller to data contract to enable role modifier\n    */\n    function setAccessabilityStatus(bool mode) external requireContractOwner\n    {\n        no1s1Data.setAccessabilityStatus(mode);\n    }\n\n    /**\n    * @dev function for backend to trigger storing the current state of no1s1 (daily)\n    * Pass address of function caller to data contract to enable role modifier\n    */\n    function setOccupationStatus(bool mode) external requireContractOwner\n    {\n        no1s1Data.setOccupationStatus(mode);\n    }\n\n    /**\n    * @dev function to log data in smart contract when broadcasting from backend to frontend\n    */\n    function broadcastData(uint256 _Bcurrent,uint256 _Bvoltage, uint256 _BSOC,uint256 _Pvoltage, uint256 _Senergy, uint256 _Time) external requireBackend\n    {\n        no1s1Data.broadcastData(_Bcurrent, _Bvoltage, _BSOC, _Pvoltage, _Senergy, _Time, FULL_VALUE, GOOD_VALUE, LOW_VALUE);\n    }\n\n    /**\n    * @dev function for backend to trigger storing the current state of no1s1 (daily)\n    * Pass address of function caller to data contract to enable role modifier\n    */\n    function no1s1InfoLog(uint256 _Time) external requireBackend\n    {\n        no1s1Data.no1s1InfoLog(_Time);\n    }\n\n    /**\n    * @dev buy function to access no1s1, only pass _selectedDuration and _username!\n    */\n    function buy(uint256 _selectedDuration, string calldata _username) external payable\n    {\n        no1s1Data.buy{value: msg.value}(_selectedDuration, msg.sender, _username, ESCROW_AMOUNT, MAX_DURATION, GOOD_DURATION, LOW_DURATION);\n    }\n\n    /**\n    * @dev function to check whether QR code is valid and authorizes to unlock door\n    * Pass address of function caller to data contract to enable role modifier\n    */\n    function checkAccess(bytes32 _key) external requireBackend\n    {\n        no1s1Data.checkAccess(_key, GOOD_DURATION, LOW_DURATION);\n    }\n\n    /**\n    * @dev function triggered by back-end shortly after access() function with sensor feedback\n    * Pass address of function caller to data contract to enable role modifier\n    */\n    function checkActivity(bool _pressureDetected, bytes32 _key) external requireBackend\n    {\n        no1s1Data.checkActivity(_pressureDetected, _key);\n    }\n\n    /**\n    * @dev function triggered by user after leaving no1s1. resets the occupancy state, pays back escrow, and sends out confirmation NFT\n    */\n    function exit(bool _doorOpened, uint256 _actualDuration, bytes32 _key) external requireBackend\n    {\n        no1s1Data.exit(_doorOpened, _actualDuration, _key);\n    }\n\n    /**\n    * @dev function triggered by user after leaving no1s1. resets the occupancy state, pays back escrow, and sends out confirmation NFT\n    */\n    function refundEscrow(string calldata _username) external\n    {\n        no1s1Data.refundEscrow(msg.sender, _username, MEDITATION_PRICE);\n    }\n\n    // call from data contract\n    function isDataContractOperational() external view returns(bool)\n    {\n        return no1s1Data.isOperational();\n    }\n\n    /**\n    * @dev Get operating status of no1s1 (main state variables)\n    */\n    function howAmI() external view returns (bool accessability, bool occupation, uint256 batteryState, uint256 totalUsers, uint256 totalDuration, uint256 myBalance)\n    {\n        return no1s1Data.howAmI();\n    }\n\n    /**\n    * @dev Get address of no1s1\n    */\n    function whoAmI() external view returns(address no1s1Address)\n    {\n        return no1s1Data.whoAmI();\n    }\n\n    /**\n    * @dev Get balance of no1s1\n    */\n    function howRichAmI() external view returns(uint256 no1s1Balance)\n    {\n        return no1s1Data.howRichAmI();\n    }\n\n    /**\n    * @dev get latest entries of UsageLog (max 10)\n    */\n    function getUsageLog() external view returns(uint256[] memory users, uint256[] memory balances, uint256[] memory durations)\n    {\n        return no1s1Data.getUsageLog();\n    }\n\n    /**\n    * @dev retrieve values needed to buy meditation time\n    */\n    function checkBuyStatus() external view returns(uint256 batteryState, uint256 availableMinutes, uint256 costPerMinute , uint256 lastUpdate)\n    {\n        return no1s1Data.checkBuyStatus(MEDITATION_PRICE, FULL_DURATION, GOOD_DURATION, LOW_DURATION);\n    }\n\n    /**\n    * @dev retrieve the latest technical logs\n    */ \n    function checkLastTechLogs() external view returns(uint256 pvVoltage, uint256 systemPower, uint256 batteryChargeState, uint256 batteryCurrency, uint256 batteryVoltage)\n    {\n        return no1s1Data.checkLastTechLogs();\n    }\n\n    /**\n    * @dev retrieve user information with key (QR code)\n    */ \n    function checkUserKey(bytes32 _key) external view returns(uint256 meditationDuration, bool accessed, uint256 actualDuration, bool left, uint256 escrow)\n    {\n        return no1s1Data.checkUserKey(_key);\n    }\n\n    /**\n    * @dev retrieve user information with username\n    */ \n    function checkUserName(string calldata _username) external view returns(bytes32 qrCode, uint256 meditationDuration, bool accessed, uint256 actualDuration, bool left, uint256 escrow)\n    {\n        return no1s1Data.checkUserName(msg.sender, _username);\n    }\n\n}\n\n/********************************************************************************************/\n/*                                     Interface to Data Contract                           */\n/********************************************************************************************/\n\n//visibility (also in data contract) must be `external` and signature of functions must match!\ninterface No1s1Data {\n    function setAccessabilityStatus(bool mode) external;\n    function setOccupationStatus(bool mode) external;\n    function broadcastData(uint256 _Bcurrent,uint256 _Bvoltage, uint256 _BSOC,uint256 _Pvoltage, uint256 _Senergy, uint256 _Time, uint256 FULL_VALUE, uint256 GOOD_VALUE, uint256 LOW_VALUE) external;\n    function no1s1InfoLog(uint256 _Time) external;\n    function buy(uint256 _selectedDuration, address txSender, string calldata _username, uint256 ESCROW_AMOUNT, uint256 MAX_DURATION, uint256 GOOD_DURATION, uint256 LOW_DURATION) external payable;\n    function checkAccess(bytes32 _key, uint256 GOOD_DURATION, uint256 LOW_DURATION) external;\n    function checkActivity(bool _pressureDetected, bytes32 _key) external;\n    function exit(bool _doorOpened, uint256 _actualDuration, bytes32 _key) external;\n    function refundEscrow(address _sender, string calldata _username, uint256 MEDITATION_PRICE) external;\n    function isOperational() external view returns(bool);\n    function howAmI() external view returns (bool accessability, bool occupation, uint256 batteryState, uint256 totalUsers, uint256 totalDuration, uint256 myBalance);\n    function whoAmI() external view returns(address no1s1Address);\n    function howRichAmI() external view returns(uint256 no1s1Balance);\n    function getUsageLog() external view returns(uint256[] memory users, uint256[] memory balances, uint256[] memory durations);\n    function checkBuyStatus(uint256 MEDITATION_PRICE, uint256 FULL_DURATION, uint256 GOOD_DURATION, uint256 LOW_DURATION) external view returns(uint256 batteryState, uint256 availableMinutes, uint256 costPerMinute , uint256 lastUpdate);\n    function checkLastTechLogs() external view returns(uint256 pvVoltage, uint256 systemPower, uint256 batteryChargeState, uint256 batteryCurrency, uint256 batteryVoltage);\n    function checkUserKey(bytes32 _key) external view returns(uint256 meditationDuration, bool accessed, uint256 actualDuration, bool left, uint256 escrow);\n    function checkUserName(address, string calldata _username) external view returns(bytes32 qrCode, uint256 meditationDuration, bool accessed, uint256 actualDuration, bool left, uint256 escrow);\n}",
  "sourcePath": "/Users/jenshunhevicz/Documents/GitHub/no1s1_TI/contracts/no1s1App.sol",
  "compiler": {
    "name": "solc",
    "version": "0.8.0+commit.c7dfd78e.Emscripten.clang"
  },
  "schemaVersion": "3.4.3",
  "updatedAt": "2021-10-26T12:30:56.984Z",
  "devdoc": {
    "kind": "dev",
    "methods": {
      "authorizeBackend(address)": {
        "details": "authorize app contract to call into data contract",
        "returns": {
          "_0": "A bool that is the current authorization status"
        }
      },
      "broadcastData(uint256,uint256,uint256,uint256,uint256,uint256)": {
        "details": "function to log data in smart contract when broadcasting from backend to frontend"
      },
      "buy(uint256,string)": {
        "details": "buy function to access no1s1, only pass _selectedDuration and _username!"
      },
      "checkAccess(bytes32)": {
        "details": "function to check whether QR code is valid and authorizes to unlock door Pass address of function caller to data contract to enable role modifier"
      },
      "checkActivity(bool,bytes32)": {
        "details": "function triggered by back-end shortly after access() function with sensor feedback Pass address of function caller to data contract to enable role modifier"
      },
      "checkBuyStatus()": {
        "details": "retrieve values needed to buy meditation time"
      },
      "checkLastTechLogs()": {
        "details": "retrieve the latest technical logs"
      },
      "checkUserKey(bytes32)": {
        "details": "retrieve user information with key (QR code)"
      },
      "checkUserName(string)": {
        "details": "retrieve user information with username"
      },
      "constructor": {
        "details": "Contract constructor tells the App contract where to find the data of the app contract (address)"
      },
      "deAuthorizeBackend(address)": {
        "details": "deauthorize app contract to call into data contract",
        "returns": {
          "_0": "A bool that is the current authorization status"
        }
      },
      "exit(bool,uint256,bytes32)": {
        "details": "function triggered by user after leaving no1s1. resets the occupancy state, pays back escrow, and sends out confirmation NFT"
      },
      "getUsageLog()": {
        "details": "get latest entries of UsageLog (max 10)"
      },
      "howAmI()": {
        "details": "Get operating status of no1s1 (main state variables)"
      },
      "howRichAmI()": {
        "details": "Get balance of no1s1"
      },
      "no1s1InfoLog(uint256)": {
        "details": "function for backend to trigger storing the current state of no1s1 (daily) Pass address of function caller to data contract to enable role modifier"
      },
      "refundEscrow(string)": {
        "details": "function triggered by user after leaving no1s1. resets the occupancy state, pays back escrow, and sends out confirmation NFT"
      },
      "setAccessabilityStatus(bool)": {
        "details": "function for backend to trigger storing the current state of no1s1 (daily) Pass address of function caller to data contract to enable role modifier"
      },
      "setOccupationStatus(bool)": {
        "details": "function for backend to trigger storing the current state of no1s1 (daily) Pass address of function caller to data contract to enable role modifier"
      },
      "whoAmI()": {
        "details": "Get address of no1s1"
      }
    },
    "version": 1
  },
  "userdoc": {
    "kind": "user",
    "methods": {},
    "version": 1
  }
}