{
  "contractName": "Transfer",
  "abi": [
    {
      "inputs": [],
      "stateMutability": "nonpayable",
      "type": "constructor"
    },
    {
      "anonymous": false,
      "inputs": [
        {
          "indexed": false,
          "internalType": "address",
          "name": "_to",
          "type": "address"
        },
        {
          "indexed": false,
          "internalType": "address",
          "name": "_from",
          "type": "address"
        },
        {
          "indexed": false,
          "internalType": "uint256",
          "name": "amt",
          "type": "uint256"
        }
      ],
      "name": "Pay",
      "type": "event"
    },
    {
      "inputs": [
        {
          "internalType": "address payable",
          "name": "_to",
          "type": "address"
        }
      ],
      "name": "pay",
      "outputs": [
        {
          "internalType": "bool",
          "name": "",
          "type": "bool"
        }
      ],
      "stateMutability": "payable",
      "type": "function",
      "payable": true
    },
    {
      "inputs": [],
      "name": "payb",
      "outputs": [],
      "stateMutability": "payable",
      "type": "function",
      "payable": true
    }
  ],
  "bytecode": "0x608060405234801561001057600080fd5b50336000806101000a81548173ffffffffffffffffffffffffffffffffffffffff021916908373ffffffffffffffffffffffffffffffffffffffff160217905550610345806100606000396000f3fe6080604052600436106100295760003560e01c80630c11dedd1461002e5780639f63d20d1461005e575b600080fd5b610048600480360381019061004391906101b1565b610068565b604051610055919061024d565b60405180910390f35b61006661019a565b005b600081600160006101000a81548173ffffffffffffffffffffffffffffffffffffffff021916908373ffffffffffffffffffffffffffffffffffffffff160217905550600160009054906101000a900473ffffffffffffffffffffffffffffffffffffffff1673ffffffffffffffffffffffffffffffffffffffff166108fc349081150290604051600060405180830381858888f19350505050158015610113573d6000803e3d6000fd5b507f288d9a5737d39d766acb848da277a970d9ee31f9115e17490b9393e282fa7b4d600160009054906101000a900473ffffffffffffffffffffffffffffffffffffffff1660008054906101000a900473ffffffffffffffffffffffffffffffffffffffff163460405161018993929190610216565b60405180910390a160019050919050565b565b6000813590506101ab816102f8565b92915050565b6000602082840312156101c357600080fd5b60006101d18482850161019c565b91505092915050565b6101e3816102c2565b82525050565b6101f281610268565b82525050565b6102018161028c565b82525050565b610210816102b8565b82525050565b600060608201905061022b60008301866101da565b61023860208301856101e9565b6102456040830184610207565b949350505050565b600060208201905061026260008301846101f8565b92915050565b600061027382610298565b9050919050565b600061028582610298565b9050919050565b60008115159050919050565b600073ffffffffffffffffffffffffffffffffffffffff82169050919050565b6000819050919050565b60006102cd826102d4565b9050919050565b60006102df826102e6565b9050919050565b60006102f182610298565b9050919050565b6103018161027a565b811461030c57600080fd5b5056fea2646970667358221220997a67a4c1c9821edfcbe43c9b94b261479fd8412dc75a84f3895c1e5e94e1a764736f6c63430008000033",
  "immutableReferences": {},
  "source": "pragma solidity >=0.5.16;\r\ncontract Transfer {\r\n  address from;\r\n  address payable to;\r\n  constructor(){\r\n    from = msg.sender;\r\n  }\r\n\r\n  event Pay(address _to, address _from, uint amt);\r\n  function pay( address payable _to ) public payable returns\r\n  (bool) {\r\n    to = _to;\r\n    to.transfer(msg.value);\r\n    emit Pay(to, from, msg.value);\r\n    return true;\r\n  }\r\n\r\n//   function payb( address _to ) public payable returns\r\n//   (bool) {\r\n//     to = payable(address(uint160(_to)));\r\n//     to.transfer(msg.value);\r\n//     emit Pay(to, from, msg.value);\r\n//     return true;\r\n//   }\r\n\r\n    function payb( ) public payable {\r\n  }\r\n\r\n}",
  "sourcePath": "C:/Users/wangho/Documents/RA/web_front/template integration/no1s1_TI/contracts/Transfer.sol",
  "compiler": {
    "name": "solc",
    "version": "0.8.0+commit.c7dfd78e.Emscripten.clang"
  },
  "schemaVersion": "3.4.1",
  "updatedAt": "2021-06-03T15:16:25.966Z",
  "networkType": "ethereum",
  "devdoc": {
    "kind": "dev",
    "methods": {},
    "version": 1
  },
  "userdoc": {
    "kind": "user",
    "methods": {},
    "version": 1
  }
}