{
  "contractName": "Transfer",
  "abi": [
    {
      "inputs": [],
      "stateMutability": "nonpayable",
      "type": "constructor"
    },
    {
      "anonymous": false,
      "inputs": [
        {
          "indexed": false,
          "internalType": "address",
          "name": "_to",
          "type": "address"
        },
        {
          "indexed": false,
          "internalType": "address",
          "name": "_from",
          "type": "address"
        },
        {
          "indexed": false,
          "internalType": "uint256",
          "name": "amt",
          "type": "uint256"
        }
      ],
      "name": "Pay",
      "type": "event"
    },
    {
      "inputs": [
        {
          "internalType": "address payable",
          "name": "_to",
          "type": "address"
        }
      ],
      "name": "pay",
      "outputs": [
        {
          "internalType": "bool",
          "name": "",
          "type": "bool"
        }
      ],
      "stateMutability": "payable",
      "type": "function"
    }
  ],
  "bytecode": "0x608060405234801561001057600080fd5b50336000806101000a81548173ffffffffffffffffffffffffffffffffffffffff021916908373ffffffffffffffffffffffffffffffffffffffff16021790555061032e806100606000396000f3fe60806040526004361061001e5760003560e01c80630c11dedd14610023575b600080fd5b61003d6004803603810190610038919061019a565b610053565b60405161004a9190610236565b60405180910390f35b600081600160006101000a81548173ffffffffffffffffffffffffffffffffffffffff021916908373ffffffffffffffffffffffffffffffffffffffff160217905550600160009054906101000a900473ffffffffffffffffffffffffffffffffffffffff1673ffffffffffffffffffffffffffffffffffffffff166108fc349081150290604051600060405180830381858888f193505050501580156100fe573d6000803e3d6000fd5b507f288d9a5737d39d766acb848da277a970d9ee31f9115e17490b9393e282fa7b4d600160009054906101000a900473ffffffffffffffffffffffffffffffffffffffff1660008054906101000a900473ffffffffffffffffffffffffffffffffffffffff1634604051610174939291906101ff565b60405180910390a160019050919050565b600081359050610194816102e1565b92915050565b6000602082840312156101ac57600080fd5b60006101ba84828501610185565b91505092915050565b6101cc816102ab565b82525050565b6101db81610251565b82525050565b6101ea81610275565b82525050565b6101f9816102a1565b82525050565b600060608201905061021460008301866101c3565b61022160208301856101d2565b61022e60408301846101f0565b949350505050565b600060208201905061024b60008301846101e1565b92915050565b600061025c82610281565b9050919050565b600061026e82610281565b9050919050565b60008115159050919050565b600073ffffffffffffffffffffffffffffffffffffffff82169050919050565b6000819050919050565b60006102b6826102bd565b9050919050565b60006102c8826102cf565b9050919050565b60006102da82610281565b9050919050565b6102ea81610263565b81146102f557600080fd5b5056fea2646970667358221220aa1dc3f8be3a396fe644d9be5c7be827f65606fad40b4bceb1712df2fb62ade164736f6c63430008000033",
  "immutableReferences": {},
  "source": "pragma solidity >=0.5.16;\ncontract Transfer {\n  address from;\n  address payable to;\n  constructor(){\n    from = msg.sender;\n  }\n\n  event Pay(address _to, address _from, uint amt);\n  function pay( address payable _to ) public payable returns\n  (bool) {\n    to = _to;\n    to.transfer(msg.value);\n    emit Pay(to, from, msg.value);\n    return true;\n  }\n\n//   function payb( address _to ) public payable returns\n//   (bool) {\n//     to = payable(address(uint160(_to)));\n//     to.transfer(msg.value);\n//     emit Pay(to, from, msg.value);\n//     return true;\n//   }\n\n    \n\n}\n",
  "sourcePath": "/Users/jenshunhevicz/Documents/GitHub/no1s1_TI/contracts/Transfer.sol",
  "compiler": {
    "name": "solc",
    "version": "0.8.0+commit.c7dfd78e.Emscripten.clang"
  },
  "schemaVersion": "3.4.3",
  "updatedAt": "2021-09-07T14:55:50.822Z",
  "devdoc": {
    "kind": "dev",
    "methods": {},
    "version": 1
  },
  "userdoc": {
    "kind": "user",
    "methods": {},
    "version": 1
  }
}